:020000040800F2
:1000000000900020A16F0008A1530008A35300082E
:1000100000000000000000000000000000000000E0
:10002000000000000000000000000000A5530008D0
:100030000000000000000000A7530008A9530008BA
:10004000F16F0008F16F0008F16F0008F16F000810
:10005000F16F0008B1530008F16F0008F16F00085C
:10006000F16F0008BB530008C3530008F16F00088C
:10007000F16F0008F16F0008F16F0008F16F0008E0
:10008000F16F0008CD530008F16F0008F16F000810
:10009000F16F0008F16F0008F16F0008F16F0008C0
:1000A000F16F0008DD530008ED530008F16F000800
:0C00B000F16F0008F16F0008F16F00080C
:1000BC0010B5064C2378002B07D1054B002B02D032
:1000CC00044800E000BF0123237010BD8400002011
:1000DC0000000000483C0108044B10B5002B03D075
:1000EC000349044800E000BF10BDC04600000000FA
:1000FC0088000020483C01080023C25C0133002A20
:10010C00FBD1581E7047000002B4714649084900E3
:10011C00095649008E4402BC7047C04602B4714671
:10012C0049084900095C49008E4402BC7047C0462E
:10013C0003B47146490840004900095A49008E44ED
:10014C0003BC7047002243088B4274D303098B42D3
:10015C005FD3030A8B4244D3030B8B4228D3030C8B
:10016C008B420DD3FF22090212BA030C8B4202D32D
:10017C001212090265D0030B8B4219D300E0090A55
:10018C00C30B8B4201D3CB03C01A5241830B8B425E
:10019C0001D38B03C01A5241430B8B4201D34B0347
:1001AC00C01A5241030B8B4201D30B03C01A5241AC
:1001BC00C30A8B4201D3CB02C01A5241830A8B4231
:1001CC0001D38B02C01A5241430A8B4201D34B021A
:1001DC00C01A5241030A8B4201D30B02C01A52417E
:1001EC00CDD2C3098B4201D3CB01C01A5241830932
:1001FC008B4201D38B01C01A524143098B4201D36C
:10020C004B01C01A524103098B4201D30B01C01A96
:10021C005241C3088B4201D3CB00C01A5241830810
:10022C008B4201D38B00C01A524143088B4201D33D
:10023C004B00C01A5241411A00D20146524110469D
:10024C007047FFE701B5002000F0F0F802BDC04692
:10025C000029F7D076E7704703460B437FD4002282
:10026C0043088B4274D303098B425FD3030A8B423E
:10027C0044D3030B8B4228D3030C8B420DD3FF22A8
:10028C00090212BA030C8B4202D31212090265D076
:10029C00030B8B4219D300E0090AC30B8B4201D329
:1002AC00CB03C01A5241830B8B4201D38B03C01A70
:1002BC005241430B8B4201D34B03C01A5241030BE7
:1002CC008B4201D30B03C01A5241C30A8B4201D398
:1002DC00CB02C01A5241830A8B4201D38B02C01A43
:1002EC005241430A8B4201D34B02C01A5241030ABA
:1002FC008B4201D30B02C01A5241CDD2C3098B429F
:10030C0001D3CB01C01A524183098B4201D38B011B
:10031C00C01A524143098B4201D34B01C01A5241BE
:10032C0003098B4201D30B01C01A5241C3088B4203
:10033C0001D3CB00C01A524183088B4201D38B00EE
:10034C00C01A524143088B4201D34B00C01A524190
:10035C00411A00D201465241104670475DE0CA0F67
:10036C0000D04942031000D34042534000229C4627
:10037C0003098B422DD3030A8B4212D3FC22890131
:10038C0012BA030A8B420CD3890192118B4208D307
:10039C00890192118B4204D389013AD0921100E069
:1003AC008909C3098B4201D3CB01C01A524183097D
:1003BC008B4201D38B01C01A524143098B4201D3AA
:1003CC004B01C01A524103098B4201D30B01C01AD5
:1003DC005241C3088B4201D3CB00C01A524183084F
:1003EC008B4201D38B00C01A5241D9D243088B42A5
:1003FC0001D34B00C01A5241411A00D20146634648
:10040C0052415B10104601D34042002B00D54942AB
:10041C00704763465B1000D3404201B5002000F0EA
:10042C0005F802BD0029F8D016E770477047C046A2
:10043C008446081C6146FFE71FB500F055FB0028F9
:10044C0001D40021C8421FBD10B500F0D7FA4042BC
:10045C00013010BD10B500F047FB002801DB002077
:10046C0010BD012010BDC04610B500F03DFB0028AA
:10047C0001DD002010BD012010BDC04610B500F0FC
:10048C00E5FA002801DC002010BD012010BDC0469B
:10049C0010B500F0DBFA002801DA002010BD0120B5
:1004AC0010BDC046F8B54746CE4643025B0A440031
:1004BC00C20F9C464800DD004B02240E5B0A000E66
:1004CC0080B5984626009146C90FDB00271A8A4250
:1004DC0029D0002F15DD00284AD1002B00D095E043
:1004EC00ED08FF2C00D188E06B025B0AE6B25B02E0
:1004FC00F605580A3043D20710430CBC9046994677
:10050C00F8BD002F00D087E0601CC0B2012800DCD1
:10051C00B6E0EE1A720100D5C5E0002E3DD10022E6
:10052C0000260023E3E7002F00DC96E000285DD0D6
:10053C00FF2C60D08022D20413431B2F00DDECE093
:10054C002022D21B18009340F8405A1E93410343BB
:10055C00ED186B017BD50134FF2C00D1B7E00122E3
:10056C0007262A406B089A4D1D4015432E4029E062
:10057C00FF2CB5D08022D20413431B2F00DDB2E038
:10058C002022D21B19009340F9405A1E93410B4371
:10059C00ED1A6B015BD5AD01AE09300000F094FE95
:1005AC0005388640844265DC041B3300202001346E
:1005BC00E340041BA640751EAE41334307261D00C5
:1005CC0000241E4001224B461A40002E04D00F235B
:1005DC002B40042B00D004356B0100D480E7013490
:1005EC00E6B2FF2C2FD1FF26002380E7002B52D13F
:1005FC00FF2C00D074E70A00ED08002DF3D0802307
:10060C00DB032B435B025B0AFF2670E7013F002FE5
:10061C00BED0FF2CB1D163E7002C47D0FF2869D0A6
:10062C008024E4047A4225431B2A00DDC5E02C001B
:10063C002026D440B21A95406A1E954125435D1B75
:10064C0004008946A5E7AB015B0A50E700240122B0
:10065C004B461A406B07BAD142E7002F3BD101340D
:10066C00E0B201284ADDFF2CBDD00726ED186D083D
:10067C002E40A7E70723574D241A35401E40A1E70B
:10068C00002C1BD1002D6ED1002B00D19AE00A005A
:10069C001D003C0024E7013F002F00D158E7FF2C40
:1006AC0000D04AE7A7E75E1B894676E7002D1CD1F0
:1006BC000A00FF281FD004001D0011E7002D5DD19A
:1006CC00002B17D180230022DB03FF260FE70A0043
:1006DC00FF2600230BE7002C21D1002D66D1FF282B
:1006EC00E9D11D0087E7012352E77A1CA7D0FA4312
:1006FC00FF2899D10A001D00FF24F1E6002E21D11C
:10070C00002D4FD0002B4CD0ED186B019ED5314BEA
:10071C0007362E4001241D4054E7012318E7FF281B
:10072C00DFD08024E4047F4225431B2F4DDC2026A0
:10073C00F61B2C00B540FC406A1E95412543ED1874
:10074C00040006E7002DCCD0002B00D153E780210C
:10075C006046C903084203D04046084200D11D0040
:10076C000121114047E7002B00D1B9E6EA1A5001EC
:10077C0025D507265D1B2E40894623E7FF24002B39
:10078C0000D1ADE680226046D203104204D0404630
:10079C00104201D11D00894601224B46FF241A400C
:1007AC009EE62B00DD080A0000249DE67A1CC6D0CC
:1007BC00FF43FF28B9D11D001DE701253FE7151E9A
:1007CC0000D044E70022002391E60125B7E7C0469C
:1007DC00FFFFFF7DFFFFFFFBF8B557464E46454632
:1007EC00DE464402E0B546008846640A360EC70F62
:1007FC00002E63D0FF2E24D08023E400DB041C43A6
:10080C00002399469B467F3E434642465D02D20FEB
:10081C005B006D0A1B0E9046924665D0FF2B55D09F
:10082C0080220021ED00D2047F3B1543F61A43468B
:10083C004A467B400F2A00D98DE06D4892008258C1
:10084C009746002C54D108239946063BFF269B461D
:10085C00DAE70025534602291BD0032900D1BFE05B
:10086C00012928D030007F30002820DD6A0704D011
:10087C000F222A40042A00D004352A0103D5300067
:10088C005C4A80301540FE2803DCAC01640AC2B21D
:10089C0001E0FF2200246402D205600ADB0710434A
:1008AC0018433CBC90469946A246AB46F8BD012283
:1008BC00101A1B287CDD00220024ECE7002C1DD133
:1008CC0004239946033B00269B469DE7FF3E002DE3
:1008DC0020D1022143464A467B400A430F2AD8D8EE
:1008EC004548920082589746002D19D10121F1E715
:1008FC000C239946093BFF269B4685E7200000F018
:10090C00E3FC7626431F9C4000237642361A994618
:10091C009B4679E74A4603231A439146032186E70F
:10092C00280000F0D1FC431F36189D40763600217C
:10093C007DE780240023E403FF22ACE7002580231D
:10094C00DB031C4228D01D4226D12B435C02640AD7
:10095C004346FF229FE762016C01A24224D21B2175
:10096C000025013E012710006D005200002801DB1C
:10097C00944201D8121B3D4301390029F3D11400D4
:10098C00621E944125436DE7BA46594625005346ED
:10099C00022900D061E77CE78023DB031C4364025F
:1009AC00640A3B00FF2276E7121B1A210125D9E7C6
:1009BC009E362A00B5402C00C240651EAC41144343
:1009CC00620704D00F222240042A00D004346201B2
:1009DC0003D4A401640A00225DE7012200245AE733
:1009EC008024E4032C436402640AFF2253E7C046CC
:1009FC00A03C0108FFFFFFF7E03C010870B5420086
:100A0C004E024C0045026D0A120EC30F760A240EDC
:100A1C00C90FFF2A0FD0FF2C11D00120A24200D009
:100A2C0070BDB542FCD18B420DD0002AF8D1280004
:100A3C00451EA841F4E70120002DF1D1EBE7012080
:100A4C00002EEDD1E9E70020EAE7C04670B54A0078
:100A5C004E02450244006D0A240EC30F760A120E94
:100A6C00C90FFF2C15D0FF2A0ED0002C15D1002A4F
:100A7C0001D1002E1CD0002D14D08B4227D0022087
:100A8C00013B1840013870BD002EEED002204042D0
:100A9C00F9E7002DFAD1FF2A0ED0002A0ED1002E34
:100AAC00EDD00BE001230139994308000130EAE74E
:100ABC000020002DE7D0E2E7002EE7D18B42DED1FB
:100ACC00944205DD0221581E08400138DBE7002462
:100ADC00A24204DCB542D2D80020B542D3D2581E73
:100AEC00012398430130CEE730B5420044024D0259
:100AFC00C30F4800640A120E6D0A000EC90FFF2ABC
:100B0C0012D0FF280CD0002A12D1002819D1002DA8
:100B1C0017D1002C2BD00220013B1840013826E0C5
:100B2C00002DF0D0022022E0002CFBD1FF281FD09A
:100B3C0000281FD1002D1DD10220013B1840013887
:100B4C0015E0002C0ED08B42E5D10022904204DC43
:100B5C00AC42E0D80020AC4209D2581E0123984385
:100B6C00013004E00123013999430800013030BD04
:100B7C00002DD7D18B42CED18242E7DD0221581E07
:100B8C0008400138F3E7C046F0B54E465746454697
:100B9C00DE46E0B543025B0A450083B00F1C994664
:100BAC002D0EC60F002D57D0FF2D24D08020DB003A
:100BBC00C0041843002381469A469B467F3D7C0225
:100BCC007A00FB0F640A120E984623D0FF2A4BD0F2
:100BDC00E30080240020E4047F3A1C43AD186B1C16
:100BEC0047460193534677403A000F2B48D87D492E
:100BFC009B00CB589F46002B00D085E008339A46CB
:100C0C00063B9B467C027A00FB0FFF25640A120E02
:100C1C009846DBD1002C00D090E0524601231A43B9
:100C2C0092460120DBE74C4658461700022824D098
:100C3C00032800D1CFE00022002301284DD1580217
:100C4C00D205400AFF071043384303B03CBC904622
:100C5C009946A246AB46F0BD002B5BD104239A46C5
:100C6C00033B00259B46AAE7FF35002C60D152467A
:100C7C0002231A4392460220B1E7FF220023DEE74B
:100C8C004B461B0C9C464B462604360C18046146FE
:100C9C003300220C6446000C43434E4350435443F0
:100CAC0080191A0C1218964203D9802149028C46DD
:100CBC0064441B041B0C1004C01883015E1EB3415A
:100CCC00800E1843130C1B199B0103431C002301BA
:100CDC0079D5012362081C401443019A7F32002A03
:100CEC004DDD630704D00F232340042B00D00434C4
:100CFC00230103D53C4B019A1C408032FE2ABCDCFC
:100D0C00A3015B0AD2B29AE70C239A46093BFF2552
:100D1C009B4654E7180000F0D7FA4A46431F762545
:100D2C009A4000236D4291462D1A9A469B4646E7FF
:100D3C00524603231A439246032050E7200000F04A
:100D4C00C3FA431F2D1A9C40763D002047E78023B1
:100D5C000027DB03FF2272E7424666E74C4632006F
:100D6C00584662E780234A46DB031A4222D01C42D3
:100D7C0020D123435B025B0A4746FF225FE7012336
:100D8C009A1A1B2A21DC23000199D3409E318C40F6
:100D9C001A0023005C1EA34113435A0704D00F22F0
:100DAC001A40042A00D004335A0111D49B015B0A67
:100DBC00002244E780234A46DB0313435B025B0AB1
:100DCC003700FF223BE7019587E70022002336E737
:100DDC000122002333E78023DB0323435B025B0AFE
:100DEC00FF222CE7203D0108FFFFFFF7F8B547462F
:100DFC00CE464400C20F80B547024802400A8446E2
:100E0C00664648007F0A240EF60025009046FB003B
:100E1C00000EC90FB146FF2800D185E001267140B4
:100E2C00261A914257D0002E43DD002800D07FE0D7
:100E3C004946002900D1AAE0013E002E00D0F7E07F
:100E4C005B1A5A0100D48BE09B019C09200000F036
:100E5C003BFA05388440854200DDD3E0451B230076
:100E6C0020200135EB40451BAC40621E94412343CE
:100E7C00072400251C40012241460A40002C04D0C6
:100E8C000F211940042900D00433590100D480E00B
:100E9C000135ECB2FF2D00D0A3E0FF2400235B0250
:100EAC00E405580AD207204310430CBC90469946DF
:100EBC00F8BD002E74D1601CC0B2012800DCA7E084
:100ECC004A469C1A620100D5B6E0002CBED1002225
:100EDC0000240023E3E7002E00DC85E0002846D048
:100EEC00FF2C49D080224846D2041043814601226F
:100EFC001B2E09DC20204C46801B84404A462000D7
:100F0C00F240441EA04102439B185A0128D50135DA
:100F1C00FF2D00D1A8E00122072494491A405B0858
:100F2C000B4013431C40A6E7002E00D078E775E772
:100F3C00FF2C54D080224946D20411438946012209
:100F4C001B2E09DC20214846891B88404A4601009B
:100F5C00F240481E81410A439B1A5A0100D573E79F
:100F6C00012241460A40590700D089E711E0484662
:100F7C00002858D1FF2C0CD1DB08002B00D18CE7BA
:100F8C008020C00303435B025B0AFF2487E7FF2C2E
:100F9C0025D0DB08FF2DF0D05B025B0AECB27EE7BC
:100FAC00002C4DD0FF2818D08024E4047242234337
:100FBC001B2A00DDC4E01C002025D440AA1A934053
:100FCC005A1E934123434A460500D31A884638E7F4
:100FDC00721CF8D0F243FF28EAD10A004B46FF25D9
:100FEC00D7E79B015B0A5AE7002E41D1651CE9B299
:100FFC00012945DDFF2D00D14FE707244B445B0849
:10100C001C4038E707225A4B2D1A2340144032E774
:10101C00002C1DD1002B7AD14B46002B00D191E036
:10102C000A000025B5E7013E002E19D14B446CE7B0
:10103C00FF2C84D1FF25ACE74A468846D41A05E735
:10104C00002BC5D10A00FF28C8D005004B46A0E7ED
:10105C00002B49D14B46002B77D00A00FF2598E78F
:10106C00FF2C00D043E787E70A00FF24002316E794
:10107C00002C15D1002B57D1FF28E6D14B467BE72E
:10108C00002C20D1002B57D04946002953D04B447B
:10109C005A0168D50724364A1C4001251340EAE65C
:1010AC00FF28EBD08022D204764213431B2E53DC54
:1010BC002025AD1B1A00AB40F2405C1EA34113432C
:1010CC004B44050021E7002BD8D04946002900D11C
:1010DC0052E78021C9030F4200D14DE76046084218
:1010EC0000D049E74B4647E74846FF25002800D18A
:1010FC004FE78022D203174204D06046104201D140
:10110C004B46884601224146FF250A4041E74846A6
:10111C0000281FD01A1A500120D54A460724D31A8A
:10112C001C4088460025A6E6741CC9D0F643FF284F
:10113C00BCD14B4620E799464B460025DB082BE7F4
:10114C00012340E700220023A9E680230022DB03D1
:10115C00FF24A4E600251CE70123B1E7002AF1D007
:10116C0013000025FCE60025FAE6C046FFFFFF7DD4
:10117C00FFFFFFFB41024200C30F490A120E002081
:10118C007E2A0DD99D2A0CD8802000040143952A73
:10119C000ADC9620821AD1404842002B00D108006C
:1011AC007047034A9818FBE7963A9140F4E7C0461B
:1011BC00FFFFFF7F70B500283DD0C317C5185D40F9
:1011CC00C40F280000F080F89E22121A962A07DC21
:1011DC00D2B2082833DD083885406802400A23E083
:1011EC00992A0BDD052329001B1AD94003001B3358
:1011FC009D402B005D1EAB4119430D00052801DD00
:10120C00431F9D402B000F490B406E0709D00F2642
:10121C003540042D05D004335D0102D59F220B40CF
:10122C00121A9B01580AD2B24002D205400AE407B6
:10123C001043204370BD002400220020F4E7680214
:10124C00400AF1E7FFFFFFFB70B5041E34D000F03D
:10125C003BF89E22121A962A07DCD2B208282EDD01
:10126C00083884406002400A21E0992A09DD030015
:10127C0021001B3399404B1E994105231B1ADC405E
:10128C000C43052801DD431F9C4023000D490B40F6
:10129C00650709D00F252C40042C05D004335C01C4
:1012AC0002D59F220B40121A9B01580AD2B240025F
:1012BC00D205400A104370BD00220020F7E76002FF
:1012CC00400AF4E7FFFFFFFB1C2101231B0498429B
:1012DC0001D3000C10391B0A984201D3000A0839BB
:1012EC001B09984201D30009043902A2105C401872
:1012FC007047C04604030202010101010000000016
:10130C000000000010B5831DDB7F002B02D00368AA
:10131C005B69984710BD81807047C180704701811F
:10132C007047418170477047704770477047C3885A
:10133C0010B5D21A838812B2C91A036809B25B6D50
:10134C00984710BD806A704710B50400024B0360CB
:10135C0002F02EFA200010BD683D010810B5040003
:10136C00FFF7F2FF80212000490010F083FC2000E1
:10137C0010BD00000200F0B5E032136885B00133F7
:10138C001360043212780400002A0BD0424A134036
:10139C0004D50222013B524213430133012B03D1EA
:1013AC0005B0F0BDDB07FBD52300E6331B78002B23
:1013BC00F6D02300E8331D8859880135ADB21D8065
:1013CC0002338D42ECD3603B00229B5E002B0ADA89
:1013DC002000F030E38E02889A1802802200F4324A
:1013EC0010881B18138023006D1A22002100EC3387
:1013FC000193EE31F2321B88128802910988ADB24A
:10140C00521A2100F8310E6812B200212800B047A0
:10141C00220026000390F036F43231881288019BAA
:10142C00521A2100FC310F681B8812B200212800CF
:10143C00B8476B4687B220009D89029B3288198879
:10144C00BA18691812B209B22C30FFF770FF308845
:10145C00E28E029B121820001988BA18691812B271
:10146C0009B28430FFF763FF230022000198EA33AE
:10147C00E8321B88008811881B18994200D28FE72C
:10148C0021000023E6310B70138009F047FE210088
:10149C00043009F068FE83E70100008010B50400F9
:1014AC0002F090F9094B2200236001210023DC3269
:1014BC00136053601172537293720C3220001360DC
:1014CC005360936093811361536110BD683D0108B3
:1014DC00F7B506000192E6361D00337804000F00C4
:1014EC00002B05D109F01AFE2100043009F0FAFE98
:1014FC0023000022E8331A80228E04335A80628E35
:10150C00DF809A80019A1A81089A1D80DA60099A04
:10151C001A61012333702300EA331B88002B05D199
:10152C00002D03D1236820001B6D9847F7BDEA30CE
:10153C000180704773B516000200E6321278040081
:10154C000D00002A15D1992040424843618E09189C
:10155C000AB23020215E06980093019033002000DF
:10156C00DC34FFF7B5FF23680A21E818FEF75AFFB1
:10157C00216073BDE63000787047C8300078704742
:10158C00E53000787047E430017070470300F7B520
:10159C00443301931B780400002B4AD0060023002F
:1015AC000836F08F4833013080B2F08719888842B2
:1015BC003FD322009D88023300934E321288401A8A
:1015CC00521B1B8812B2276D80B20021B84727002E
:1015DC002D182837ADB23B782AB2934208D0EDB221
:1015EC00002A27D1002B02D02000FFF78BFE3D7084
:1015FC002300009948331B880988F28F5B189A42A4
:10160C0017D30023019A1370009A138009F086FDFA
:10161C002100043009F0A7FD606D002809D0036893
:10162C00DB689847002804D0606D210003689B6834
:10163C009847F7BD3D70002DDAD02000FFF762FE11
:10164C00D6E7F7B50500019344352B7804000F005D
:10165C001600002B05D109F061FD2100043009F0C2
:10166C0041FE230000220833DA8720331A78DF8406
:10167C009A8422331E80019B236501232B70A36C5B
:10168C00002B02D12000FFF781FFF7BD030070B5DE
:10169C00C8331B78002B1FD10300E6331C78002CB9
:1016AC001AD13A3B1B78002B17D1FF3414330200AC
:1016BC0006009BB20A4D74321380583213802C30C2
:1016CC002B00142221008436FFF7BBFF2B001422C1
:1016DC0021003000FFF7B5FF70BD2300E7E7C046DF
:1016EC0029CE000810B5040002F063F809F016FDCD
:1016FC002100043009F0F6FD10BD70B5C62464005D
:10170C0005000059002808D00368DB6898470028BA
:10171C0003D0285903689B68984770BDC8225200B3
:10172C00835801338350020055321278002A2CD092
:10173C0003221A4051424A41144952420A40FA21AA
:10174C0089005218010058310A80114A134004D5FF
:10175C000422013B5242134301330022012B01D0DE
:10176C00FA22920001003531FF318A850022022BCA
:10177C0001D0FA229200010084318A850022032BC9
:10178C0001D0FA229200DC308285704718FCFFFFF2
:10179C00030000807047030010B5C2685C685010ED
:1017AC0020189B68D20701D50268D358984710BD02
:1017BC004368002B05D082680123002A01D1C2683E
:1017CC0013401800704710B50400102110F052FAA5
:1017DC00200010BD10B50400024B036001F0C3FBE8
:1017EC00200010BD143E010810B50400FFF7F2FFF5
:1017FC00D4212000490010F03DFA200010BD70B536
:10180C000400150003681B6B9847236829005B6B69
:10181C002000984770BD000010B5040001F0AEFB2D
:10182C000E4BC822236000235200A3500432A35451
:10183C0096220121FF32A3540132A15408490232ED
:10184C00A15022009932FF325460D0220549520037
:10185C00A15004322000A35010BDC046143E010814
:10186C00FC3D01084B1C000855300078704796234E
:10187C00FF33C05C70470300743319800933FF33A6
:10188C0025301980FF30B03B1980018070479023C0
:10189C005B00C05C7047CB235B00C05C704770B5CD
:1018AC000400293423780500002B07D009F036FCFE
:1018BC002900043009F057FC0023237070BDF8B5E3
:1018CC000600293633780400002B40D0438D858DDB
:1018DC0001339BB24385AB4239D3018E828E5D1BA3
:1018EC00ADB2521AC38D12B200212800A76BB847B3
:1018FC00618EE28EE38D521A070012B2002128008D
:10190C00E56BA847628E218E1218C91912B209B262
:10191C002000FFF70CFDA38DE18D628D5B189A42C0
:10192C0015D300233370638509F0F8FB21000430D4
:10193C0009F019FC206C002809D00368DB68984773
:10194C00002804D0206C210003689B689847F8BDE0
:10195C00F7B50500019329352B7804000F0016000C
:10196C00002B05D109F0DAFB2100043009F0BAFC98
:10197C0000236385A388A7862386E388E68663868F
:10198C00019BE385089BA363099BE36301232B70F5
:10199C00E36A002B02D12000FFF791FFF7BD000096
:1019AC000300F0B555331B7887B00400002B3ED1F3
:1019BC009623FF33C1543223E25E2300DC330293BF
:1019CC00CA23270026005B00E35C35372C30FF3739
:1019DC008436002B2DD02F4DF0213223019500950C
:1019EC00FFF7B6FF2300FE333C215A5ED98F380037
:1019FC00494209B2322301950095FFF7A9FF230054
:101A0C008E331A88063B52420021595E12B23223A1
:101A1C00019500953000E034FFF79AFF0023E15E5A
:101A2C00F0223223019500950298FFF791FF07B041
:101A3C00F0BD2300184DE03303930021595E32238F
:101A4C0001950095FFF784FF2300FE3304933C229D
:101A5C009A5E23008833059338000021595E3223A7
:101A6C0001950095FFF774FF3223E25E059B300071
:101A7C000021595E322301950095FFF769FF049B05
:101A8C003C229A5E039B0021595E019500953223FE
:101A9C00CAE7C04665CC0008DFCC0008962310B519
:101AAC00FF330400C05C03210130FEF7BBFC2000B7
:101ABC00C9B2FFF775FF10BD902370B55B00C45C15
:101ACC000500002C29D17633C35C002B00D1FF34E8
:101ADC002800124EE4B22C30330014222100FFF700
:101AEC00B0FD28003530FF30330014222100FFF701
:101AFC00A8FD28003300843014222100FFF7A1FD3B
:101B0C002800330014222100DC30FFF79AFDCB2291
:101B1C0001235200A95C4B40AB5470BD29CE000888
:101B2C0010B5040001F020FA09F0F8FA2100043095
:101B3C0009F0D8FB23009933FF33E3660021200022
:101B4C00FFF72EFF10BD0300F0B50600070087B0AD
:101B5C008433353601935833040003912C37FF3608
:101B6C000293012941D0002925D0022952D0782591
:101B7C00E28E3800AA1A12B2F021FFF740FE2300C1
:101B8C00FE33D98F2A004942300009B2FFF737FEE5
:101B9C0023008C348E331A8821885242691A01989A
:101BAC0012B209B2FFF72BFEF02229000298FFF7C0
:101BBC0026FE07B0F0BD042305AD290038002B80AC
:101BCC0007F02FF9039B290030002B8007F029F92F
:101BDC000323290001982B8007F023F901232B8084
:101BEC002900029807F01DF9C1E71C2305AD290057
:101BFC0038002B8007F015F91923290030002B80B1
:101C0C0007F00FF91B23290001982B8007F009F925
:101C1C001A23E4E7152305AD290038002B8007F0C3
:101C2C0000F91223290030002B8007F0FAF8142356
:101C3C00290001982B8007F0F4F81323CFE7CA236F
:101C4C0070B55B00C25C0400002A10D000229625FF
:101C5C00C254FF35415DFFF776FF2000615DFFF751
:101C6C009FFE236820008C331B68984770BD0122AF
:101C7C00C2542C30FFF713FE20003530FF30FFF735
:101C8C000EFE20008430FFF70AFE2000DC30FFF748
:101C9C0006FEEBE710B50400024B036000F048FFB2
:101CAC00200010BDAC3E010810B50400FFF7F2FF98
:101CBC00D821200089000FF0DDFF200010BDD023BB
:101CCC009B00C358443318787047000070B504006B
:101CDC000800FFF76FFA1349FEF756FF0FF0D2FF1B
:101CEC000822A35E051CD80FC0184010FFF762FA3B
:101CFC00CD239B00061CE058FFF75CFA291CFEF76D
:101D0C0043FF011C301CFEF7CDFBCE239B00051CB2
:101D1C00E058FFF74FFA011C281CFFF767F8FFF794
:101D2C0029FA70BDDB0FC93E70B504000800FFF73F
:101D3C0041FA1349FEF728FF0FF0E2FF0A22A35ED7
:101D4C00051CD80FC0184010FFF734FACD239B00A8
:101D5C00061CE058FFF72EFA291CFEF715FF011C94
:101D6C00301CFFF743F8CE239B00051CE058FFF70F
:101D7C0021FA011C281CFFF739F8FFF7FBF970BD9D
:101D8C00DB0FC93EF7B5CA230122040000259B00D6
:101D9C005242C2501833C61829002000FFF796FF94
:101DAC00290001902000FFF7BFFF6B463768042124
:101DBC00595E3B6802B29B6D38009847002208CEF2
:101DCC00013528331A70082DE6D154342270F7BD32
:101DDC0010B5040000F066FF224B08222360CC23D0
:101DEC009B00E2503832043BE25023007033002158
:101DFC00595E0822A35E20005B1A043BDA0FD2184E
:101E0C00CD2352109B00E250CE22CB0F5B185B10FF
:101E1C009200A3502200D02368329B00E25058322B
:101E2C000433E25058320433E25058320433E25057
:101E3C0058320433E250313BFF3BE2183533FF3369
:101E4C00E250DC3BE218E033E250883BE2188C3382
:101E5C00E250FFF797FFCF2300229B002000E254B3
:101E6C0010BDC046AC3E010810B50831FFF72EFF7F
:101E7C0010BD10B50831FFF757FF10BDCF23F0B5DB
:101E8C009B00C35C87B00700002B06D0CA239B00C5
:101E9C00C1584A1CC250013101DA07B0F0BD00250F
:101EAC000593CB239B00FE58059B3100F858FEF799
:101EBC00B9FACC239B00FB586B4399423AD1D02200
:101ECC00AB0092009B18FC58B3B20193230029334A
:101EDC0000931B783F4E02932900C3076FD4380040
:101EEC00FFF7C2FF290003B238000393FFF7C1FFCD
:101EFC0003B20493029B002B05D109F00FF92100CA
:101F0C00043009F0EFF900236385A388009A238637
:101F1C00E388A6636386039BE663A386049BE38640
:101F2C00019BE38501231370E36A002B02D120008F
:101F3C00FFF7C5FC0135082DB3D1CB239B00F95815
:101F4C000B235943CA239B00F858FEF76BFA0091F8
:101F5C000029A2D1204B184004D5022301385B4242
:101F6C0018430130012801D0FF230093D123CB2645
:101F7C0001249B00FD18B600B95928686143036819
:101F8C0089B2DB6E98476B461B7801CD0193BB5928
:101F9C0001999AB20134114BFFF753FB082CEBD18A
:101FAC00CA239B00FB58282B00DC76E73B0038004B
:101FBC00019A54331A702C300AF02EFA6DE738005F
:101FCC00FFF784FE290003B238000393FFF7ACFE41
:101FDC008EE7C04699CE00080100008029CE00088B
:101FEC0010B50400FFF7CEFECA2314229B00524208
:101FFC00E25023002000B03328321A806830054BA1
:10200C000A3AFF21FFF71DFBCF2301229B00E2546C
:10201C0010BDC04629CE0008D02370B504009B002B
:10202C00C5182033C618286800210368DB6E984752
:10203C0001CD094B14220021FFF703FBB542F2D16D
:10204C0023000025200054331D702C300AF0E4F9D5
:10205C00CF239B00E55470BD29CE000810B50400B9
:10206C0000F067FD09F05AF82100043009F03AF944
:10207C0010BD000010B50400024B036001F038F8ED
:10208C00200010BDF83F010810B50400FFF7F2FF67
:10209C00C0212000C9000FF0EDFD200010BDBE23B3
:1020AC0010B5DB00C2580400002A07DA0022C25027
:1020BC0009F034F82100043009F014F910BDBE23E6
:1020CC00DB00C058C043C00F70470000014BC05C20
:1020DC007047C04666020000F7B5BF27FF00C35922
:1020EC0004000321581CFEF79DF90D00E151481C1A
:1020FC000321FEF797F984237935164EFF359B00A3
:10210C00AD00E318A151651969681800019307F037
:10211C00DBF9A359104A7933FF339B00E318A0185D
:10212C00596807F0D1F90D4DE3590D4A0133A01848
:10213C000A212A000CF09FFABA22A359D2000133CB
:10214C00A0180A212A000CF096FA01980AF064F9FA
:10215C00F7BDC046FC050000EC040000383F010848
:10216C00BC05000010B5040001F004F90E4BBE22B2
:10217C00236001231E215B42D200A3500B4A200096
:10218C00A1500B490B4AA1500B490432A1500B49E9
:10219C000B4AA1500C32A35000220A4BE250FFF71D
:1021AC009BFF200010BDC046F83F0108F40500005D
:1021BC003B3F0108E4050000753F0108AD3F0108F5
:1021CC00EC050000FC050000F7B5BE25ED00040091
:1021DC004059002822DBC622184B9200E358A6185F
:1021EC0083421CDB164A9BB2A25E80B200210AF02D
:1021FC0070FDC8239B00E35E124A3081A25E6946E3
:10220C006F460B800021C01A7980B8806946300077
:10221C00FA800AF04BF9635901336351F7BD01237E
:10222C005B426351002320003381FFF755FF08F018
:10223C0075FF2100043008F096FFEFE7F40500006D
:10224C00F404000022030000F8B5060029363378A8
:10225C000400002B3DD0408DA18D013080B26085F3
:10226C00884236D3258E628E401A521BE38D12B2F1
:10227C00676B80B20021B84727002D182837ADB204
:10228C003B782AB2934208D0EDB2002A22D1002B1F
:10229C0002D02000FFF736F83D70A38DE18D628DE2
:1022AC005B189A4215D300233370E38508F036FF90
:1022BC002100043008F057FFA06B002809D00368F8
:1022CC00DB689847002804D0A06B210003689B684A
:1022DC009847F8BD3D70002DDFD02000FFF712F8B5
:1022EC00DBE7F7B50500019329352B7804000F00C7
:1022FC001600002B05D108F011FF2100043008F066
:10230C00F1FF00236385230028331B78E6852386A1
:10231C00019B6786636301232B70E36A002B02D158
:10232C002000FFF791FFF7BDF0B5674B85B0C25C9D
:10233C000400002A00D0BCE0023BC35C002B00D19F
:10234C00B9E013000192614A9BB2A21813802200DB
:10235C00583213809F229200A21893850392C222B6
:10236C009200A218138008F0D9FE84239B00E51874
:10237C002900043008F0B6FF9A2300229B00E318D2
:10238C001A8099239B00E25C514B1426E3181A80A7
:10239C006B4604229B5E200002939C23029A9B00B6
:1023AC00E3181A809B2301229B00E3181E80464BE6
:1023BC00484FE3186F6601991A702C303B003200BD
:1023CC00FFF78FFF3B00320001990398FFF789FF5D
:1023DC00AE239B00E5184C33E3181B78002B05D17A
:1023EC0008F09CFE2900043008F07CFF3A4B3B4F70
:1023FC00E21800231380C323E65D9B00E3181E80C4
:10240C00374B0299E31819801423364901206118BF
:10241C000B803049A965C1218900611808700291AF
:10242C00296D002945D11080C2229200A218128871
:10243C00944682423DD86346019AB6B2C01A921BAA
:10244C00142380B20AF0EAFC3618B6B2E25D33B25D
:10245C009A4207D0F6B2E719002B30D12800FEF7CC
:10246C0051FF3E70AE239B00E6181B4B1D49E31831
:10247C001A88C2239B00E31864181B8821885B18F8
:10248C009A4216D30023029A1370238008F046FE5A
:10249C002900043008F067FEF06D002809D00368AD
:1024AC00DB689847002804D0F06D290003689B680E
:1024BC00984705B0F0BDFF230193EB3B43E73E701B
:1024CC002800FEF71FFFCDE7660200006A0200003D
:1024DC006E02000029CE000806030000EE02000088
:1024EC000E0300000A03000010B500F002FE10BD40
:1024FC00704704387047704710B5040010210FF076
:10250C00B9FB200010BD08B4024B9C46043808BC33
:10251C006047C0460525000800238360034BC1605B
:10252C001A0020330832026043607047844001086F
:10253C0070477047F7B50022304B0600C250304B45
:10254C00C5182800FFF7A3F900281BD134009834D4
:10255C002000FFF712F8002814D1A6239B00F718CF
:10256C003800FFF7B3FD00280CD12800FFF793F9D2
:10257C00002808D02800FFF777F9002802D128009E
:10258C00FFF78CFAF7BD2800FFF771F900282ED061
:10259C000128F7D12000FEF7EDFF0028F2D1200032
:1025AC00FEF7EBFF0028EDD12000FEF7E9FF9625A2
:1025BC00002820D199362000FF360021FEF7B7FF06
:1025CC0030000021FEF7B3FF0E4F0F4BADB200935E
:1025DC002A003B0020000721FEF7ACFF0B4B2A0022
:1025EC00009321213B003000FEF7A4FFCAE738001E
:1025FC00FFF755FDC6E76D00DCE7C0463C0F000059
:10260C0098080000DFCC00087DCB00086DCD0008D9
:10261C0010B50400034B0833036001F07FF9200070
:10262C0010BDC0462841010810B50400FFF7F0FFAB
:10263C00200002490FF01EFB200010BD440F0000CB
:10264C000B7910B5012B0AD106228B5E772B07DC98
:10265C0008228B5E4F2B02DC0368DB6A984710BDA7
:10266C00782BFCD008228B5E632BF8DC03681B6B89
:10267C00F4E7000010B5064B1B68002B05D1054B89
:10268C00054A9421054810F081FA008810BDC04617
:10269C00B4330020AC40010868410108E84001084F
:1026AC0010B5040001F096F90022054B2000083308
:1026BC002360044BE25096220433D200E25010BD4A
:1026CC00284101083C0F000010B5040001F0FEF891
:1026DC00200001219830FEF756FF20009930002190
:1026EC00FF30FEF750FF236820001B6B984710BD8E
:1026FC00F7B5F426534A54498358360101338350B5
:10270C004518815904008B420CDD002383502800AE
:10271C00FFF7C1F8002835D02800FFF7BFF9FA23DE
:10272C005B00A3512800FFF7B6F800282FD0280033
:10273C00FFF7ADF800282AD1444BE618444BE018BB
:10274C00FFF798FF0C2822D10B2301A930000B8036
:10275C0006F067FB300009F05FFE2800FFF79BF8DE
:10276C00002803D03B4BE25C002A25D02800FFF761
:10277C0092F8002827D1374BE25C002A23D0E05492
:10278C00253B1DE0236820001B6B9847CAE72800F7
:10279C00FFF781F80028E0D12800FFF778F800282F
:1027AC00DBD12A4BE6182A4BE018FFF763FF0B2806
:1027BC00D3D101A90C23C9E70122E254F0231B0158
:1027CC00E01809F029FE270098373800FEF7D2FEF2
:1027DC00002803D0204EA35D002B14D13800FEF747
:1027EC00C9FE00281CD02800FFF755F8061E16D18C
:1027FC002800FFF73CF8022811D1174BE25C002AA5
:10280C000DD0E65407E00025144BE5540F4BE018AF
:10281C0009F002FEA555124BE01809F0FDFDF7BDBD
:10282C000D4FE35D002BDED12800FFF720F80600EA
:10283C000128D8D1094BE054044BE01809F0ECFD09
:10284C00E655E8E73C0F000098080000A80E0000D1
:10285C00CE0E0000250F0000F90E0000CD0E00007A
:10286C00D40E00000022F0B5674B85B0C250674B08
:10287C000400C5182800FFF70AF8002832D12600FA
:10288C0098363000FEF779FE00282BD1A6239B004A
:10289C00E7183800FFF71AFC002823D1A4231B01EA
:1028AC00E31818000293FFF70AFA00281AD128003F
:1028BC00FEF7F1FF002856D02800FEF7D5FF039055
:1028CC0000280FD101002800FEF7D5FF2800FFF7E4
:1028DC00F3F82800FEF7CBFF01280ED0002803D018
:1028EC00022830D005B0F0BD3800FFF71DFDF423F1
:1028FC0096221B019200E250F4E725009935FF3532
:10290C003000FEF7C3FE2800FEF7C0FE0F2130009A
:10291C00FEF70DFE0F212800FEF709FE3C4F3D4B44
:10292C009622009307213B003000FEF703FE3A4B42
:10293C009622009321213B002800FEF7FBFDF42397
:10294C00C8221B01D6E70298FFF74AFBF4230122A9
:10295C001B015242E250314B039AE254304BE018C7
:10296C0009F05AFDBEE72800FEF781FF01281DD0B3
:10297C00002806D0022834D0F42396221B01D20062
:10298C00B9E73800FFF79BFB0028ABD13800FFF705
:10299C009DFB0028A6D12800FFF78EF828001421F3
:1029AC00FEF769FF3800FFF7BFFCE5E73000FEF7E4
:1029BC00E1FD002896D13000FEF7DFFD002800D0A5
:1029CC0090E72800FFF778F814212800FEF753FF52
:1029DC003000FEF75BFE20009930FF30FEF756FE0C
:1029EC00CAE72800FFF768F814212800FEF743FF18
:1029FC000298FFF711FB0122084BE254084BE01838
:102A0C0009F00AFDB8E7C0463C0F0000980800002A
:102A1C00DFCC00087DCB00086DCD0008F90E00005E
:102A2C00D40E0000114B37B50500C018FEF71FFF80
:102A3C00F0231B01EC18012811D0002808D0022823
:102A4C0010D001220A4B2000EA5409F0E5FC37BDF6
:102A5C00182301A90B80200006F0E3F9F1E701A986
:102A6C001723F7E701A91623F4E7C04698080000DE
:102A7C00250F00000023036070477047704710B5A6
:102A8C003130FF30082210F0F5F810BD704710B54A
:102A9C0001F096F910BDAE2110B5040049000FF0FD
:102AAC00E9F8200010BD030010B50400FC33D86D0C
:102ABC00FFF7E3FF200008F0DDFB10BD10B5FC3084
:102ACC000400406C00280AD00368DB689847002893
:102ADC0005D0606C03689B6898470023636410BD45
:102AEC0010B5040001F03EF9014B2000236010BD2D
:102AFC00A441010800207047704701235B42838189
:102B0C0003621368C36110607047821DD27F002A74
:102B1C0004D0421DD27F002A00D0186070470300F9
:102B2C0010B528331B78002B01D0FEF7EBFB10BD42
:102B3C00704770477047704781857047808D70472C
:102B4C004830018070474830008870478185704755
:102B5C00808D704710B504003C210FF08BF82000DD
:102B6C0010BD10B5040058210FF084F8200010BDE2
:102B7C00CA2110B5040089000FF07CF8200010BDAC
:102B8C00F8B50600293633780400002B3BD0418D74
:102B9C00013189B24185808D814234D3258E628E7C
:102BAC00081A521BE38D12B2676B80B20021B84732
:102BBC0027002D182837ADB23A782BB29A4206D09E
:102BCC00EDB2002B20D12000FFF7A9FF3D70A38DA3
:102BDC00E18D628D5B189A4215D300233370E38527
:102BEC0008F09CFA2100043008F0BDFAA06B002814
:102BFC0009D00368DB689847002804D0A06B21003B
:102C0C0003689B689847F8BD3D702000FFF787FF6D
:102C1C00DDE700000023421D10B58380C3800381D3
:102C2C0043818381C3810382438243618361C36196
:102C3C0003844384D3770122831DDA77064B040087
:102C4C0003600B88FE32C384030028331A7006F02D
:102C5C00E8F8200010BDC046245D0108012313B51F
:102C6C00040001A95B420B80FFF7D4FF2200002374
:102C7C00293213700A4A6385226022004432A385EC
:102C8C00E38523866386A386E386A363E3632364D9
:102C9C0013705380043213802000636516BDC04648
:102CAC006C420108F0B500250122431D8580C580CA
:102CBC00058145818581C581058245824561856196
:102CCC00C56105844584DD77831DDA77764B070073
:102CDC000360012304008BB009AE2C3731008562F0
:102CEC005B4238003380FFF795FF704BE3622300A3
:102CFC0055331D7001331D805D80123365661800DD
:102D0C000093FFF7ABFF2300C03318000193FFF7CC
:102D1C00A5FF23001933FF3318000293FFF79EFF22
:102D2C0023007133FF3318000393FFF797FF230041
:102D3C00C933FF3318000493FFF790FF88239B00DF
:102D4C00E31818000593FFF789FF9E239B00E318F7
:102D5C0018000693FFF782FFB4239B00E3181800BA
:102D6C000793FFF77BFF524B2A00A3602900380022
:102D7C00FEF745FD0D2331003800338006F051F885
:102D8C0023003900112754331D70200004F069F919
:102D9C002A0029000098FEF732FD31000098378098
:102DAC0006F03FF8230090331D700099200004F0CA
:102DBC0058F92A0029000198FEF721FD31000198ED
:102DCC00378006F02EF82300E8331D70019920009F
:102DDC0004F047F92A0029000298FEF710FD310093
:102DEC000298378006F01DF8A0235B00E554029989
:102DFC00200004F036F92A0003980121FEF7FFFCAD
:102E0C0031000398378006F00CF8CC235B00E554B6
:102E1C000399200004F025F92A0029000498FEF7F4
:102E2C00EEFC31000498378005F0FBFFF8235B00C3
:102E3C00E5540499200004F014F92A00290005989F
:102E4C00FEF7DDFC31000598378005F0EAFF922390
:102E5C009B00E5540599200004F003F92A0006981C
:102E6C000121FEF7CCFC31000698378005F0D9FF24
:102E7C00A8239B00E5540699200004F0F2F82A00E0
:102E8C0007980121FEF7BBFC31000798378005F04D
:102E9C00C8FFBE239B002000E554079904F0E1F81D
:102EAC0020000BB0F0BDC046E8420108F841010813
:102EBC00AA00AA00F7B50400FEF701FD2300443375
:102ECC0001931B78002B48D0260023000836F08F86
:102EDC004833013080B2F087198888423DD32200F4
:102EEC009D88023300934E321288401A521B1B8865
:102EFC0012B2276D80B20021B84727002D18283751
:102F0C00ADB23A782BB29A4206D0EDB2002B25D155
:102F1C002000FFF704FE3D702300009948331B8806
:102F2C000988F28F5B189A4217D30023019A137009
:102F3C00009A138008F0F2F82100043008F013F91D
:102F4C00606D002809D00368DB689847002804D01E
:102F5C00606D210003689B689847F7BD3D702000A9
:102F6C00FFF7DDFDD8E770477047C82110B50400A6
:102F7C0049000EF07FFE200010BD0000F0B50025CA
:102F8C00012207000400431D8580C5800581458111
:102F9C008581C5810582458245618561C561058450
:102FAC004584DD77831DDA77304B2C3787B085620B
:102FBC0003603800FFF752FE23008433180001939E
:102FCC00FFF74CFE2300DC3318000293FFF746FE9C
:102FDC0023003533FF3318000393FFF73FFEC6235E
:102FEC005B00E550224B3522A3603800F021FEF740
:102FFC0006FC042305AE31003800338005F011FFC8
:10300C003900200004F02DF8432201985242382157
:10301C00FEF7F5FB032331000198338005F001FF27
:10302C000199200004F01DF80298F0227821FEF797
:10303C00E6FB012231000298328005F0F2FE029983
:10304C00200004F00EF84021782203984942FEF744
:10305C00D6FB31000398358005F0E3FE2000039980
:10306C0003F0FFFF200007B0F0BDC0467C43010811
:10307C00F000F000704730B585B06D460400036871
:10308C00018108330100DB6F280098473C340ECDDA
:10309C000EC405B030BD30B585B06D460400036874
:1030AC00418108330100DB6F280098473C340ECD7A
:1030BC000EC405B030BD0023038043808380C380E1
:1030CC00704736300170704770B504001500036806
:1030DC001B6B9847236829005B6E2000984770BDD6
:1030EC000020704710B5FEF70DF910BD806C7047CD
:1030FC007047704770477047704750300180704779
:10310C005030008870475A30018070475A30008820
:10311C00704710B5040008210EF0ACFD200010BD66
:10312C0010B504006C210EF0A5FD200010BD10B5EB
:10313C0004004C210EF09EFD200010BD10B50400C3
:10314C0060210EF097FD200010BD000010B50400AA
:10315C0002490EF08FFD200010BDC046E4050000B2
:10316C0070B5036805005E6B104B8CB21A68002AB0
:10317C0005D16C210E4B0F4A0F480FF007FD0F497C
:10318C00838D0988994203D80D4B0A4A6D21F3E7C8
:10319C005B009B5C0B4A9B001268985803681B6B86
:1031AC009847211A09B22800B04770BD7C33002023
:1031BC00CE45010824470108104601088033002041
:1031CC0051460108843300200300F7B54C330193BA
:1031DC001B780400002B48D0060023004E363088A4
:1031EC005033013080B23080198888423DD32200A0
:1031FC009D880233009356321288401A521B1B884A
:10320C0012B2A76D80B20021B84727002D183637AF
:10321C00ADB23A782BB29A4206D0EDB2002B25D142
:10322C002000FEF76FF83D702300009950331B8887
:10323C00098832885B189A4217D30023019A1370BD
:10324C00009A138007F06AFF2100043007F08BFF0F
:10325C00E06D002809D00368DB689847002804D08B
:10326C00E06D210003689B689847F7BD3D70200016
:10327C00FEF748F8D8E7012200235242036042606F
:10328C00836070470A4B421D036000238380C38018
:10329C00038143818381C3810382438243618361C0
:1032AC00C36103844384D3770122831DDA7770478B
:1032BC004C5E010870B504001E0004AB00255D5F78
:1032CC00FEF79DFA2368310020009B6B984723681A
:1032DC002900DB6B2000984770BD030002005433BB
:1032EC004E321B781278011D5A43CA8702005132A4
:1032FC001278811D5A43CA8702004F32127802316C
:10330C005A43CA8702005232127840315A430A801B
:10331C000200503212785A434A800200533212781B
:10332C004C3053430380704710B504002622002113
:10333C000FF0BCFC2000FFF7A5FFFF210B4B09048D
:10334C0023600B4B616301222100A36200235242D4
:10335C003831A28523630B704B70A11CA387E387C4
:10336C00CA87211DCA872000636410BD2C5C01082C
:10337C0014440108F0B504008FB0FFF783FFC14B74
:10338C000025236023002C330693012306AA5B42FD
:10339C000CA9A56206981383FFF73CFC2200BA4FD8
:1033AC005532E76215700132158002321580842285
:1033BC009200A6186566300006F046F88423B34ADE
:1033CC009B00E250B24A0CA9A3181D709A239B00D3
:1033DC00E55001231632A2180392B56606AA5B4289
:1033EC0003981383FFF716FC9F239B00E750AE272F
:1033FC00A84ABF00A318039A1D705585958595633F
:10340C00E21910000292FFF78FFFC121029AA24B22
:10341C0089009564E3516318A0491D70631802314B
:10342C001D806318C621890061181D800800D565B0
:10343C000491FFF727FFC623994A04999B00E25099
:10344C008D6298496718380005F0FEFF01239649F4
:10345C005B426118079106A90B8307980CA9FFF72B
:10346C00D9FBAE23DB00E0180590FFF75DFFAE2122
:10347C008E4BC900635005988D4B85645922A3600F
:10348C0029000698FEF7BBF9022006AB18830CAB9B
:10349C001900069805F0C5FC230054331D700699DD
:1034AC00200003F0DEFD0D212A003000FEF7A7F905
:1034BC00220023003D326833FF32B362F2621D708A
:1034CC0099237C4A9B00E2523000FFF706FF9023C1
:1034DC0006229B00E3181A7029233000736306F050
:1034EC0011F80220B063300006F00CF89323012190
:1034FC009B00E1543000704905F0E6FF31001026C6
:10350C00200003F0AEFD152203982221FEF777F977
:10351C0006AB1E830CAE3100039805F082FCA92388
:10352C009B00E5540399200003F09BFD292302988E
:10353C00009314220E3B2921FFF7BCFEFF26BA2371
:10354C00AE229B003606E650029E9200B586A3582A
:10355C003100083308A8DB6F9847BD2008AA80000B
:10356C002318100046C846C3544B5548E218E55280
:10357C00C0230C909B0006A8E25085830CA90298EE
:10358C0005F082FB4F48029923181D70200003F0B0
:10359C0068FD52232A00009304982B000D21FFF79D
:1035AC0089FE29002A003800FEF729F9D120800075
:1035BC002318D430BB622318FB62D1230622424865
:1035CC009B00E55423181A70292338007B631E00D6
:1035DC0005F098FF0220B863380005F093FFA5238F
:1035EC000122DB00E2543949380005F06DFF390047
:1035FC00049803F036FD152207981100FEF7FFF82A
:10360C00102206A802830CA80100079805F009FCFB
:10361C000799049803F025FD3300009605980E3B9E
:10362C0014221C21FFF746FEB423FF22AE21DB003F
:10363C001206E250059AC9009586635808A808330B
:10364C001100DB6F9847224B08AEE31807CE07C377
:10365C00BA23DB00E218E552183BE250184B0CA9D8
:10366C000C93059806AB9D8305F00EFB0599049809
:10367C0003F0F7FC2000049903F0F3FC20000FB0DA
:10368C00F0BDC04698460108F8410108B444010851
:10369C0066020000A5020000244501080603000094
:1036AC006C5B0108EC040000440500002444010894
:1036BC006C00920000FFFFFFB4450108BC05000040
:1036CC0014440108EE0200001C050000C945010865
:1036DC00AC0500000300F0B5563385B002931B789F
:1036EC000400002B53D003005833009318885988DA
:1036FC00013080B218800233884248D32200270060
:10370C0060329D881288401A521B5C373B8812B27B
:10371C0080B20021666EB04722002D185432ADB233
:10372C00019212782BB29A4211D0EDB22200EE43E4
:10373C005532F6B20392002B2BD12000FDF7E2FD9F
:10374C00019B20001D70039B1E70FFF7C6FD009BA4
:10375C0039881A8823005A331B885B189A4216D36F
:10376C000023029A13703B8007F0D8FC2100043030
:10377C0007F0F9FCA06E002809D00368DB689847B5
:10378C00002804D0A06E210003689B68984705B000
:10379C00F0BD019B20001D70039B1E70FFF79DFD6B
:1037AC002000FDF7AFFDD2E710B5FFF793FF10BD7A
:1037BC007047704710B50400DC210EF05BFA200056
:1037CC0010BD0000F0B50025012206000400431DC9
:1037DC008580C580058145818581C58105824582AD
:1037EC0045618561C56105844584DD77831DDA7784
:1037FC001D4B2C3685B0856203603000FFF72EFA26
:10380C002300843318000193FFF728FA174B290083
:10381C00A3603000FDF77FFD30000B21FDF77DFD2F
:10382C000F2303AF390030003B8005F0FAFA220079
:10383C00543215703100200003F013FC2200883242
:10384C0013000B4A39001A600F2301983B8005F0D6
:10385C00E8FA2300AC3320001D70019903F001FC41
:10386C00200005B0F0BDC046684701084300AC001D
:10387C000000EB0570477047704770477047704702
:10388C00704710B503685B6B984710BD7047030019
:10389C0010B5C2685968501008189B68D20701D53A
:1038AC000268D358984710BD4368002B05D0826836
:1038BC000123002A01D1C26813401800704710B5CB
:1038CC00040010210EF0D6F9200010BD10B5040034
:1038DC009830FDF707FF20009930FF30FDF702FF0D
:1038EC00A6239B00E018FEF7FFFD054BE018FEF742
:1038FC0017F9A4231B01E018FEF7B0FB10BDC0465E
:10390C009808000010B5352903D10368DB6A984785
:10391C0010BD3629FCD103681B6BF8E7134B70B54F
:10392C0008330360A4230400114A1B01C250C018C1
:10393C00FFF7FEF80F4B104AE018E250FFF713FBAD
:10394C00A6230E4A9B00E250E018FFF7D1FBCC23D4
:10395C000B4D5B00E550E018FFF72AFF2000983074
:10396C000560FFF725FF200070BDC0460C4801081C
:10397C00AC3E010898080000143E0108F83F01080D
:10398C00683D010810B50400FFF7C8FF200002498C
:10399C000EF070F9200010BD3C0F00000023012137
:1039AC00421D8380C380038143818381C381038251
:1039BC00438243618361C36103844384D377821D53
:1039CC00D177034AFE310260C21DD1778362704702
:1039DC00BC5C0108F0B5050097B008F025FFB24BB0
:1039EC00002708332B602B004033EF6318000C9337
:1039FC00FFF7D4FF2B006C3318000D93FFF7CEFFAD
:103A0C002B00983318000E93FDF748FD2B009933CB
:103A1C00FF3318000F93FDF741FDA6239B00EB1815
:103A2C0018001093FEF79EFBA04B0126EB18180014
:103A3C001193FDF7F1FEA4231B01EB181800129350
:103A4C00FEF7C6F9DA231B0115ACEB187642210000
:103A5C00180003932680FFF7DDF8954B2100EB1837
:103A6C00180004932680FFF7D5F8924B2100EB1831
:103A7C00180005932680FFF7CDF88F4B2100EB182B
:103A8C00180006932680FFF7C5F8E5231B01EB18F9
:103A9C002100180007932680FFF7BCF8874B210004
:103AAC00EB18180008932680FFF7B4F8844B21001C
:103ABC00EB18180009932680FFF7ACF8814B210016
:103ACC00EB1818000A932680FFF7A4F8F0231B01CB
:103ADC00EB18210018000B932680FFF79BF87A4A0D
:103AEC007A4B3900EA50EB185D601393784A794BA6
:103AFC000C98EA50784B3A00EF50A0235B000093EF
:103B0C00503BFFF7D7FBFF232E1D1B06AB660C9912
:103B1C00300003F0A6FAB4231E22009311000D9876
:103B2C00FFF7C8FB2B006D4A94331A600D993000D7
:103B3C0003F097FA22220E983521FDF760FE0E99BC
:103B4C00300003F08EFA22220F987821FDF757FEF1
:103B5C000F99300003F085FA332210984221FDF7BB
:103B6C004EFE1099300003F07CFA3A00390011989F
:103B7C00FDF745FE5A4B139A1199EA50300003F0A9
:103B8C0070FA232212981100FDF739FE12993000B9
:103B9C0003F067FA132203983521FDF730FE0A2350
:103BAC0021000398238005F03CF90399300003F0C1
:103BBC0058FAAE2204983521FDF721FE0723210087
:103BCC000498238005F02DF90499300003F049FA8C
:103BDC00142239000598FDF712FE082321000598E0
:103BEC00238005F01EF90599300003F03AFA1422EF
:103BFC000698BB21FDF703FE0923210006982380BC
:103C0C0005F00FF90699300003F02BFA3A00390051
:103C1C000798FDF7F4FD062321000798238005F093
:103C2C0000F90799300003F01CFADC2239000898DF
:103C3C00FDF7E5FD052321000898238005F0F1F838
:103C4C000899300003F00DFA0A2209981100FDF7CB
:103C5C00D6FD0B2321000998238005F0E2F8099981
:103C6C00300003F0FEF908220A98D221FDF7C7FDB7
:103C7C000E2321000A98238005F0D3F80A9930000E
:103C8C0003F0EFF9DE220B983021FDF7B8FD182375
:103C9C0021000B98238005F0C4F830000B9903F039
:103CAC00E0F9280017B0F0BD0C4801089808000096
:103CBC00CC0D0000F80D0000240E00007C0E00005E
:103CCC00A80E0000D40E0000FC4701082C0F0000C9
:103CDC008F380008340F0000380F0000F8F4E8FFAC
:103CEC00240A000070477047704741607047704766
:103CFC0001230372704770477047030010B5C26808
:103D0C005968501008189B68D20701D50268D3581F
:103D1C00984710BD4368002B05D082680123002A08
:103D2C0001D1C26813401800704710B504000C2173
:103D3C000DF0A0FF200010BDAE2110B5040049000D
:103D4C000DF098FF200010BD10B5040010210DF0EF
:103D5C0091FF200010BD10B507F0E0F90368DB6B94
:103D6C00984710BDF8B504000E00170007F0FAFADA
:103D7C00230000250E4AFC3314600E4A1D645D645A
:103D8C002260A2220C495200A15022004532FF327F
:103D9C0055609560D5609F65DE65084B01211868FC
:103DAC0003689B689847280000F0A2FA2000F8BD31
:103DBC00783300206C480108544801082C3300204B
:103DCC0003004533FF33044A5860FC30026500227F
:103DDC00436442657047C0462D3F0008F7B500901C
:103DEC009068019303680F001B6A14009847454BB9
:103DFC00984205D8A321444B444A45480EF0C6FED0
:103E0C00606803681B6A98470F2803D8414B3F4AE8
:103E1C00A421F2E7E06803681B6A98470B2803D8D3
:103E2C003D4B3A4AA521E8E707F078F9043007F052
:103E3C00B6F9019B1868002802D00368DB68984724
:103E4C00019B1868002802D003681B689847009BE8
:103E5C001868002802D003685B6998473868002806
:103E6C0002D003685B689847009B1868002802D052
:103E7C0003681B6898473868002802D003689B6861
:103E8C009847E068002103685B6A9847051E04D0D8
:103E9C00002343600372214B0360A0680021036878
:103EAC005B6A9847061E01D0FEF7FAFB606800219A
:103EBC0003685B6A9847041E02D03100FEF72CFBA6
:103ECC00019B1D60009B3C601E60231E00D0231DC7
:103EDC00089A30001360A2603368F463DB6898477B
:103EEC00236820001B6898472900300008F037FE33
:103EFC002B6828001B6998472B6828005B6998473A
:103F0C002000FEBD430F0000DC480108F14A010807
:103F1C006A490108AB4901084E4A0108C04801082A
:103F2C0007B502000100FC32D36D3D310093FF3127
:103F3C00024B926D0248FFF751FF07BD6C33002016
:103F4C0068330020002213B50B00914208D06B4659
:103F5C0003331A7001920268946801AAA047030007
:103F6C00180016BDC0897047008A7047C08870471A
:103F7C0080887047807A4006400E7047807AC0096E
:103F8C0070470020704700207047806A7047C06AF5
:103F9C00704710B58B88026ADB0A48880C889B0036
:103FAC009B5800042043181810BD30B5131E13D0B5
:103FBC000023157B9D420FD0E023547BDB00D27A8B
:103FCC0024021C401443426AA4001219ABB210889C
:103FDC00884203D10223D356180030BD884205D83D
:103FEC00013B9BB20432002BF1D1F5E70023F3E740
:103FFC00704710B5040030210DF03CFE200010BDC0
:10400C00F0B587B0009212AA12780CAC039213AAE6
:10401C0012782488049216AA12880194059217AA81
:10402C0012880DAC944626880EAC2478019A029422
:10403C008280029AC6800272039A7F26C272049A08
:10404C000FAC0273059A2478C281624610AD2F78AA
:10405C004472847A11AD2D783740B4433C43ED0162
:10406C0034402C4384720282084C0383009B083436
:10407C00C361149B04600362159B41614362189BEE
:10408C008362199BC36207B0F0BDC046F04B0108B8
:10409C0070B5C469038B2088013B081A2FD4984251
:1040AC000ADD5A00105B401A181A834227DB0028DD
:1040BC0002DAD80FC018401000229A421FDC4500CB
:1040CC00665B8E421DD00ED9431E9A4217DC6519D1
:1040DC00023D2888401A181A834210DB8242ECDD1C
:1040EC0098184010E9E7421C934208DB6519688870
:1040FC00081A8018824202DC8342DEDAF0E70120E3
:10410C00404270BDF7B5050016000193FFF7C0FFE4
:10411C0000240100431C18D00D4B1868041E14D049
:10412C000E2359436A690B4C51180268D768220058
:10413C00B8472B682100DB6D2800984730602B684E
:10414C002800DB6B9847019B18702000FEBDC04611
:10415C00E4000020A00000207047000070B501248E
:10416C00134E8EB03368134D23401DD13F21124A9C
:10417C000A9112490D9309911100183108910421EB
:10418C000C930B930793069303930293223304919E
:10419C00019300930594173B09492800FFF730FF62
:1041AC00084834600EF010FD28000EB070BDC046FB
:1041BC00B0000020B4000020D4650108F0650108AF
:1041CC006458089065410008704710B5002000291C
:1041DC0002D100F011F8006810BD10B504000421E4
:1041EC000DF048FD200010BD004870476C4C0108D4
:1041FC001D2070470120704700487047E8000020E0
:10420C0010B5FFF7ABFF014B186010BDE8000020A4
:10421C000EB403B503AB04CB0021019307F0B8FF38
:10422C0002B008BC03B018470CB407B504AB04CB00
:10423C00019307F0ADFF03B008BC02B018470000B3
:10424C0070B5436C0500002B2DD004002234E38A9A
:10425C00002B05D1C521164B164A17480EF096FCBB
:10426C00A38A5B001B5B002B1DD009F0B3FBE38A18
:10427C00012B03D8114B124ACB21EEE7A28A531C17
:10428C009BB21900092B00D90A394900605A0D4913
:10429C00884208D15200AA18508C092B00D900234F
:1042AC005B00E0525184280009F089FA70BDC046C9
:1042BC00B04E0108DD4F0108B94E0108FD4E010852
:1042CC000B4F01083F09000010B509F03FFA10BD73
:1042DC007FB503921A000AAB05930193099B0291D7
:1042EC00009302A9089B06F0A1FA07B000BD0000DC
:1042FC0070B500281DD1134B13481C681349002CB2
:10430C0018D02368E21863680260E218A3680A6098
:10431C00E418002C0DD000220D4B1A80FFF76CFF17
:10432C000500FFF767FF0B4B1C600B4B1D600B4B25
:10433C00188070BD0A4B03600A4B0B600A4B1C685B
:10434C00E7E7C046EC000020F0000020F40000205D
:10435C00F80000207C3300208433002080330020C0
:10436C0000660108F4650108FC650108044B89002E
:10437C001B68044ACB5810685B00C0187047C046D5
:10438C00F4000020F00000207047002303717047F8
:10439C00704710B5040008210DF06CFC200010BD16
:1043AC0010B52F4B2F4A1B68127834331B78002A18
:1043BC0009D0002B09D180212B4802F071FA00287A
:1043CC002BD1352010BD012BF5D08021264802F0D1
:1043DC0067FA0028F5D00121244802F061FA002880
:1043EC0032D00221214802F05BFA002834D080211F
:1043FC001E48490102F054FA00281CD010211B4819
:10440C0002F04EFA00280ED080211748890102F0E4
:10441C0047FA002822D00020D4E70121134802F0EB
:10442C003FFA002801D13420CCE702210F4802F0DA
:10443C0037FA002801D13620C4E780210B48490106
:10444C0002F02EFA002801D13820BBE710210748D2
:10445C0002F026FA0028D7D13220B3E73020B1E79A
:10446C002C3300202433002000080050000400509E
:10447C0070B504000D00FFF793FF2379834201D13F
:10448C00002070BD20710028FAD028700120F8E7B8
:10449C0003007833197001237930037070470020C2
:1044AC007047000041644B1E9941014B19707047D5
:1044BC002B3300200020704710B5836B002B01D0EC
:1044CC000800984710BD000000487047FFFF00002F
:1044DC0010B5406803689B69984710BD70477047DA
:1044EC00C1677047C06F70477047002070477047B6
:1044FC00704702790123022A07D04279022A04D09C
:10450C008379023B58424341DBB2180070470000EC
:10451C00054BC3580133032B00D10023C01800797D
:10452C0043425841C0B270472418000070B50400D3
:10453C0003F06BF923685D6E06F0F0FD01002000BE
:10454C00A847236820000433DB6F984723682000BA
:10455C009B6F9847024BA36102234834237070BDB4
:10456C00FC00002010B503F035F910BD10B50400A7
:10457C0003F01AF8200003F039F900F02FFA10BDFF
:10458C0010B503F0E0F803F053F810BD10B5002996
:10459C0005D1094B094A0A490A480EF0F7FAC163DA
:1045AC000264511E8A4108490A70026819008C3253
:1045BC001268904710BDC0461E520108885701086A
:1045CC00D2020000565201082A33002010B5094BC4
:1045DC001B888B4203D8084B1B88934205D9074B89
:1045EC00074A9E2107480EF0D1FA074B1980074B5A
:1045FC001A8010BD2033002022330020BB5101084B
:10460C004557010856520108263300202833002054
:10461C00C12310B55B01C358C0180379032B05D017
:10462C00044B054AFF2105480EF0B0FA0023037134
:10463C0010BDC0462B510108A45501084A51010870
:10464C00C12310B55B01C3580133032B00D10023E8
:10465C00C2181279022A05D0054B064AEA210648EF
:10466C000EF094FA054A9B18DB00C01810BDC0462A
:10467C000A510108C65401084A51010801030000FF
:10468C0070B5C12504006D01635908000133032B7B
:10469C000BD06351615963181B79022B07D00B4B5C
:1046AC000B4ADD210B480EF071FA0023F1E70A4B9F
:1046BC000822C918C90061180EF0DCFA03226059EF
:1046CC002318C002083020181A7170BDED50010873
:1046DC00C85301084A51010801030000F7B51B4EED
:1046EC0008AC2588845901920134032C0ED08451D6
:1046FC00845907193A79002AFCD13A79002A07D053
:10470C00134B144AAA2114480EF040FA0024EEE789
:10471C000122E4023A710834099F04193C6084595F
:10472C00019AE40004190D48215280200C49000123
:10473C0062520C4A5900A352FBF704FDA84200DD5B
:10474C002800094BE05280B2FEBDC0462418000080
:10475C00D0500108955201084A5101080818000070
:10476C000A1800000C1800000E18000010B5074BBA
:10477C00C358C0180379012B05D0054B054AB92144
:10478C0005480EF003FA0223037110BD2418000033
:10479C009A510108735601084A51010810B50400DA
:1047AC0003F09AFD23682000AC331B68984710BDBA
:1047BC0010B5040002490DF05DFA200010BDC04692
:1047CC002818000002000300002010B57A3212787D
:1047DC00824203D0586803681B68984710BD0000DC
:1047EC00010010B5783134300D4B0C7801781A7803
:1047FC008C420AD0002A07D10A490B4A088814882F
:10480C00108001220C801A7010BD002AFCD0064AC0
:10481C000449148808880C8010800022F3E7C046F5
:10482C00243300202233002020330020F8B504006C
:10483C00C06F0E0015001F0000280ED00368110079
:10484C009B689847002808D1E06F32000368290064
:10485C00DC683B00A0470120F8BD3B002A0031007A
:10486C00200003F004F9F7E710B501F035FA10BD9C
:10487C0010B501F08BFA10BD13B504AC248800946C
:10488C0001F030FA13BD10B502F01AFF10BD000094
:10489C0010B5044B1B686A331A7801321A7000F099
:1048AC0097F810BD2C3300200D4B0E4A0E491A60A0
:1048BC0000225A500D49C1205A500D4940015A50FE
:1048CC000C491A715A500C495A715A500B499A7129
:1048DC005A50012149421950094819507047C04695
:1048EC00FC000020AC500108081800000C18000057
:1048FC001018000014180000181800001C180000F4
:10490C002418000070470020704770477047002043
:10491C007047704710B5034B034A222103480EF031
:10492C0035F9C046D657010870580108F9570108E7
:10493C0010B5034B034A272103480EF027F9C04654
:10494C00D6570108AE580108F957010810B50400F4
:10495C0044210DF08FF9200010BD000070B504004B
:10496C0000252100064B0C300833257265726060FF
:10497C0023602031012203F0EFFDE562200070BDC1
:10498C00205801080023024A1360024A1360704742
:10499C002419002028190020034B1A68002AFCD186
:1049AC0001321A607047C046241900200022014BC6
:1049BC001A607047241900200122014B1A607047BD
:1049CC00241900200022014B1A6070472419002082
:1049DC000122014B1A607047281900200022014B5C
:1049EC001A60704728190020024B1868431E984122
:1049FC00C0B270472819002010B5064B1A68002A5F
:104A0C0006D000221A60044B186803681B6F984785
:104A1C0010BDC046281900202C33002070470120FF
:104A2C0070470C2070470C235943083140187047CD
:104A3C000C2359430831401870470120704700007F
:104A4C0000487047440F0000024B5943083140188E
:104A5C007047C046440F0000024B594308314018C0
:104A6C007047C046440F000001207047102070476B
:104A7C000901083140187047090108314018704786
:104A8C0010B50800FFF79CF910BD000010B504002C
:104A9C00024B036002F0CEFA200010BD5C590108F5
:104AAC0010B50400FFF7F2FF200014210DF0E2F81E
:104ABC00200010BD10B50400024B036002F0BAFADE
:104ACC00200010BD2859010810B50400FFF7F2FFB3
:104ADC00200002490DF0CEF8200010BD4C0F000054
:104AEC0010B50400024B036002F0A4FA200010BDC4
:104AFC00F458010810B50400FFF7F2FF200018214C
:104B0C000DF0B8F8200010BD10B50400074B036081
:104B1C00074BC018FFF7BAFF20002C30FFF7CAFF75
:104B2C0020001430FFF7DCFF200010BD9059010865
:104B3C00780F000010B50248FFF7E6FF10BDC04625
:104B4C003019002010B50400FFF7DEFF20000249E9
:104B5C000DF090F8200010BDEC100000F7B5FFF739
:104B6C0043FB00240500FFF743FB23000100220058
:104B7C002800009409F028FE204B214A20001A60DE
:104B8C00FFF7B6FB1F4B204E204AF36720481360FB
:104B9C0009F07CFD01221F4F3B68134229D11E4CAA
:104BAC001E4B1F4DA3601F4B1F48E3601F4B6060E3
:104BBC002561236002F040FA1D4B1848636102F036
:104BCC003BFA1C4B1748E36202F036FA1A4B1B4AAD
:104BDC001B48E250FDF74EFF220019492800FDF753
:104BEC007FFF2800FFF7ECF8012316483B600DF01F
:104BFC00EBFF300000F006F9F7BDC046883300200B
:104C0C006C3200201C2A0020EC310020E400002033
:104C1C00000000202C190020301900205C19002005
:104C2C00C0280020A8280020441900209059010811
:104C3C00F458010828590108780F00005C59010844
:104C4C00BC280020414B00087047000010B5FFF74E
:104C5C00CBFE002806D0044C200003F03DFB2000C6
:104C6C0002F0F6FD10BDC046EC31002070B5364E9A
:104C7C00364C374B30002360FFF770FE354D36490C
:104C8C00364B28000B600AF055FC354B00221900FE
:104C9C002A310A701900180048310A700121493074
:104CAC00017018004A30027018004B300270180066
:104CBC00583002702B485E60986618006C30027099
:104CCC0018006D30027018006E309D60DC601A6147
:104CDC005A619A61DA611A625A621A85DA621A8624
:104CEC009A63DA631A645A64DA641A655A65DA6587
:104CFC001A665A66027018006F3002701800703015
:104D0C0002701800783002701800793002701800A8
:104D1C007A30017018007B3001701348134C03601B
:104D2C00F0202080124C5A672080124C503020808A
:104D3C00114CDA672080114802701800104A343088
:104D4C0001701A6070BDC046A8310020A43100204B
:104D5C00A45A0108703200201C2A0020845A010831
:104D6C00EC310020010000012C3300202033002006
:104D7C002633002022330020283300202433002047
:104D8C00A4590108E0230448DB05C9188842804176
:104D9C004042C0B27047C046FFFF7F0003000800CE
:104DAC00054910B55C5CF12189005918002C00D024
:104DBC00191D00F095FD10BD84070000080010B50A
:104DCC0011001A00F92B02D800F086FD10BD00F07E
:104DDC0087FD00F089FDF9E7F12270B5074C9200D0
:104DEC00035D05008618002B00D0061D00F07CFD2D
:104DFC0001232A5D300053402B5570BD8407000001
:104E0C007047000010B5040000F05CFF00F074FD6A
:104E1C0000F044FF00F0BEFE2000FFF787FB074BBD
:104E2C006361FFF7E9FD064B186803681B6F984731
:104E3C0000F0B2FDFFF7D2FD10BDC04600330020DC
:104E4C002C33002010B5FFF750FB10BD10B5FFF749
:104E5C004EFB10BD10B5FFF793FB10BD002210B533
:104E6C00024B1A80FFF77EFB10BDC0461A330020A0
:104E7C0010B5FFF77BFB034B1B88002B01D0FFF712
:104E8C00A7FD10BD1A33002010B5FFF7CFFC10BDE5
:104E9C0010B5FFF729FB10BD10B5FFF725FB10BDB2
:104EAC0010B5FFF721FB10BD10B5FFF71DFB10BDB2
:104EBC0010B502F041FC10BD10B5040080210CF0BF
:104ECC00D9FE200010BD10B5002000F00FF810BD69
:104EDC0010B5002000F036F810BD0000014B024A5E
:104EEC001A607047003300209050010810B5032859
:104EFC000DD8114BFBF712F9020C131A1A6880210A
:104F0C0053425A418900D2B20C4801F0CFFC10BD7B
:104F1C005A68802153425A414900D2B2F4E79A6848
:104F2C00202153425A41D2B20548EEE7DA681021EB
:104F3C0053425A41D2B2F7E708330020000C00501C
:104F4C000008005010B503280DD8114BFBF7E6F8FC
:104F5C00020C131A1A688021531E9A418900D2B28E
:104F6C000C4801F0A3FC10BD5A688021531E9A41D5
:104F7C004900D2B2F4E79A682021531E9A41D2B26A
:104F8C000548EEE7DA681021531E9A41D2B2F7E7D2
:104F9C0008330020000C00500008005010B5032806
:104FAC0008D8FBF7BBF802080B0E802189000648D5
:104FBC0001F082FC10BD80214900F8E72021034854
:104FCC00F6E71021FBE7C046000C0050000800502B
:104FDC00030010B50020032B09D81800FBF79EF82E
:104FEC00020C0F1280218900074801F059FC01388E
:104FFC0043425841C0B210BD80214900F4E7202142
:10500C000248F2E71021FBE7000C005000080050AA
:10501C0070B500240125E0B2FFF7DAFF002805D0B7
:10502C00044BA200D158012900D0D5500134052CD5
:10503C00F1D170BD08330020704710B5FFF7A2FE08
:10504C0010BD10B5FFF7BAFE10BD10B5FFF7A6FEE8
:10505C0010BD10B5FFF7C0FE10BDF12110B5040056
:10506C00C9000CF007FE200010BD704700207047EF
:10507C00704710B5040004210CF0FCFD200010BD9D
:10508C00704710B592B03822002104A80DF00EFE26
:10509C001022002168460DF009FE8020800000F0EF
:1050AC00C5FE80235B000793002308930D93083300
:1050BC000E9380239B020F9380239B0410938023D9
:1050CC00022440229B0504A8049409920B940C948E
:1050DC00119300F0D5FE002801D072B6FEE707232D
:1050EC0002900390210068460093019401F036F978
:1050FC00002801D072B6FEE712B010BDF0B58DB02D
:10510C0001F0A2FEFFF7BDFF1422002107A80DF04D
:10511C00CDFD0421012602278E4DA0206A6BC0050F
:10512C000A436A636B6B00240B400293029B6A6B0D
:10513C001C310A436A636B6B0B400393039B6B6BD1
:10514C00183933436B636B6B33400493049B6B6B69
:10515C003B436B636B6B3B400593059B6A6B0A434C
:10516C006A636B6B00220B4006933900069B01F0BF
:10517C009DFB00223021784801F098FB8021320001
:10518C00C901764801F092FBC021A02032008900B1
:10519C00C00501F08BFBC02100228900704801F092
:1051AC0085FB822307A99B016B48079308940996FA
:1051BC0001F0CAFAC423A0209B0307A9C0050893D9
:1051CC000796099401F0C0FAA02007A9C00507971B
:1051DC000A970896099401F0B7FA3023BF1907A96A
:1051EC005D4807930A970896099401F0ADFA5D4B58
:1051FC0007A95A4807930894099601F0A5FA802349
:10520C0007A9DB01554807930A970896099401F002
:10521C009BFAC023A0209B0007A9C00507930A97FF
:10522C000896099401F090FAC02307A99B004C48FA
:10523C0007930A970896099401F086FA2200210038
:10524C00052001F031FA052001F058FAAB6B220071
:10525C003343AB63AB6B2100334001930920019BBB
:10526C0001F022FA092001F049FA220021000A205B
:10527C0001F01AFA0A2001F041FA3B483B4BE025B9
:10528C00036080239B0002378361FA3BFF37ED00FC
:10529C00FF3B47608460C56004614461C461046283
:1052AC0044628462C3620463446301F021FBA04244
:1052BC0001D072B6FEE72E4B2E4A98805861986149
:1052CC001A6018001E6200F073FD002801D072B63F
:1052DC00FEE7294B294A98601A60802292009A6155
:1052EC00FA3A18615861D861186258629862FF3AAC
:1052FC00186358631800DD605F60DA6201F0F8FA39
:10530C00051E01D072B6FEE701000C2207A80DF0B5
:10531C00CDFC1B4C1B4B200023601B4BA56063601A
:10532C001A4BA561E36001F00FFD002801D072B6A5
:10533C00FEE71023099007A92000079301F072F9EA
:10534C00002801D072B6FEE701F0C2FD01F0C6FDE7
:10535C00FCE7C0460010024000080050000400505A
:10536C00000C005013100000883600200030014063
:10537C00BC35002000300240583500200038004079
:10538C003C36002000100040050C0000FFFF000020
:10539C0072B6FEE77047FEE77047704710B501F034
:1053AC0067FD10BD10B5012001F08EFA10BD10B5CF
:1053BC0000F0A0FC10BD10B500F05EFA10BD0000AE
:1053CC0010B5024801F0BAFB10BDC0463C360020B7
:1053DC0010B5024801F00EFB10BDC0468836002007
:1053EC0010B5024801F006FB10BDC0465835002030
:1053FC0007B501200A4B196C0143196480211A6C02
:10540C00490502400092009ADA6BBF300A43DA6316
:10541C00DB6BC0000B400193019B01F04DFD07BD00
:10542C0000100240084B026882B09A4209D18020D9
:10543C00064A4001916B01439163936B03400193C6
:10544C00019B02B07047C046003002400010024081
:10545C0070B505008AB01422002105A80DF026FCB9
:10546C002B685C4A93424CD180205B4B4001196CF9
:10547C0002240143196401211A6C00260240009297
:10548C00009A5A6BA0200A435A635B6BC0050B4011
:10549C000193019BA02305A90593069407940894F6
:1054AC0001F052F9A0204023C00505A905930694EC
:1054BC0007940896099601F047F9484C484B200090
:1054CC00236011236360013BA3607033236180333D
:1054DC0063618023DB00E660A361E661266201F074
:1054EC0005F8B04201D0FFF753FF002219206C657C
:1054FC001100A56201F0D8F8192001F0FFF80AB0EC
:10550C0070BD384A9342FAD18020334BC001D96B1D
:10551C0002240143D963DA6B002602400420029274
:10552C00029A596B014359635A6B05A902400392C5
:10553C00039A5A6B2C4822435A635B6B06942340A4
:10554C000493049B0C2305930B3B07940894099339
:10555C0001F0FAF8802325489B0105A905930694D0
:10556C0007940894099601F0EFF8214C214B200088
:10557C002360122363606E33A660E660236166616C
:10558C00A661E661266200F0B1FFB04201D0FFF7E0
:10559C00FFFE194BAC65A562184C802223601323C7
:1055AC006360033BA36000232000E360226163611E
:1055BC00A361E361236200F099FF002801D0FFF79B
:1055CC00E7FE00221A206C651100A56201F06CF850
:1055DC001A2092E7003001400010024048370020AA
:1055EC000800024000380040000800500004005041
:1055FC00E03500201C00024030000240EC36002058
:10560C0007B50B4B02689A4210D11020094AD16B96
:10561C000143D163D36B002203400193013011008D
:10562C00019B01F041F8112001F068F807BDC0465C
:10563C000010004000100240F0B5A0238024DB05D0
:10564C0064009C620323434C060C2370424BF6B25D
:10565C001B681E7302269F683742FCD0060AF6B2FE
:10566C001E7302269F683742FCD0C0B2187302200A
:10567C00032A04D81000FAF751FD26160F089E686D
:10568C000642FCD0187B0020187302209E6806424C
:10569C00FCD0187B0020187302209E680642FCD0B8
:1056AC00187B0020187302209E680642FCD0187BE1
:1056BC0000201873022A04D0032A03D0012A02D135
:1056CC00187B187B1B7B02260027131F2348CB1843
:1056DC005D1A032D17DC02260027204899422CD393
:1056EC001D4B1D688023A8681842FCD1A023802084
:1056FC00DB0540009861042A00D904220B00581ADB
:10570C00904222DBF0BD85683542FCD025780D70C7
:10571C00277085683542FCD025784D7027708568D8
:10572C003542FCD025788D70277085683542FCD0C9
:10573C002578CD7027700431CAE785683542FCD0D6
:10574C0025780D7027700131C8E720781870013367
:10575C00D5E7C0460C3800405835002000380040D2
:10576C00F7B501243E4B01921C70A023FF34DB05DE
:10577C009C623C4BFD3C1B681C73013C9D682542A4
:10578C00FCD0040CE4B21C7302249D682542FCD0AE
:10579C00040AE4B21C7302249D682542FCD0C0B2FA
:1057AC00187380209C680442FCD1187B2E4C187B0B
:1057BC00187B187B58682D4E2040586080205C6800
:1057CC004001204358600123294C256828689843E0
:1057DC0028601C20256C776805401800A8403843C9
:1057EC0070602568019A1F486A600C2207680C37A4
:1057FC00AF60E9602F6897432F6022681C251768FB
:10580C009446022217436246176027683C681C4383
:10581C003C6007687C681C437C60164C22681768E7
:10582C009F431760226C77682A4094461A0065469D
:10583C00AA40174377602468019A022562600268C7
:10584C000C32A260E160226813432360402302689B
:10585C0011680B43136003685A6815435D60F7BD0C
:10586C001833002058350020FF9FFFFF0000024036
:10587C00E0350020EC360020022370B51C26190000
:10588C001148124A046C15683440A1400D421AD0DC
:10589C0004682168194216D00A2125688D432560B9
:1058AC00016C546831408B40234353608022084B79
:1058BC0019688B681340FCD1A0228021D2054900C5
:1058CC009161044A137070BDE03500200000024065
:1058DC00583500201833002010B5FFF7ADFE10BD71
:1058EC0010B5FFF73DFF10BD024A1378002BFCD119
:1058FC007047C04618330020034B1A6840231168C8
:10590C000B4313607047C04658350020A0238022FB
:10591C00802130B59200DB059A62074AC901074C19
:10592C009162246820738020A5680542FCD19161A6
:10593C00802292009A6130BD00040050883600200D
:10594C0070B5A02380248025DB05A4009C62104C3C
:10595C00ED01104BA5621B68187380209E680642EF
:10596C00FCD10220A5610C78013A1C730131D2B232
:10597C009C680442FCD0002AF5D18032996811420F
:10598C00FCD1A0238022DB0592009A6170BDC04639
:10599C00000400508836002010B52920FFF7B6FF10
:1059AC00642001F077FA10BDF7B51C00174B070007
:1059BC001B880D001600834203D1154B1B889342A4
:1059CC000ED001A93B0A0B700422330A2A208B70DB
:1059DC004F70CE70FFF7B4FF0C4B1F800C4B1E802A
:1059EC000C4F0D4E3B88AB4202D13388A3420CD0F6
:1059FC0001A92B0A0B700422230A2B204D708B70EB
:105A0C00CC70FFF79DFF3D803480F7BD080000206F
:105A1C000A0000200C0000200E000020F7B50190B9
:105A2C000800110001221D0008AB1C88304B314FBF
:105A3C001A7040233A68166833431360631E6A1E5B
:105A4C00CB1882189BB292B2FFF7AEFFA023802234
:105A5C0080212C20DB0592009A62274AC9019162B1
:105A6C003B68187354309F680742FCD19161F02257
:105A7C00402112015A601A68204E8A431A60012292
:105A8C001F4B6C4318680168914301601948016809
:105A9C004F6837404F601C271A4E0C31B44676685D
:105AAC0000961E6C37401600BE403700009E3743F0
:105ABC00664677601F687C600424B9600199F960C0
:105ACC003968A14339600A211C6825682943216083
