:020000040800F2
:1000000000000820E9090008ED3B0008EF3B00086C
:10001000F13B0008F33B0008F53B0008000000003E
:10002000000000000000000000000000C18800087F
:10003000F73B00080000000061890008C58900083E
:10004000390A0008390A0008390A0008390A000884
:10005000390A0008390A0008390A0008390A000874
:10006000390A0008390A0008390A0008390A000864
:10007000390A0008390A0008390A0008390A000854
:10008000390A0008390A0008390A0008390A000844
:10009000390A0008390A0008390A0008390A000834
:1000A000390A0008390A0008390A0008390A000824
:1000B000390A0008390A0008390A0008390A000814
:1000C000390A0008390A0008390A0008390A000804
:1000D000390A0008390A0008390A0008390A0008F4
:1000E000390A0008390A0008390A0008390A0008E4
:1000F000390A0008390A0008390A0008390A0008D4
:10010000390A0008390A0008390A0008390A0008C3
:10011000390A0008390A0008F93B0008390A0008C2
:10012000390A0008390A0008390A0008390A0008A3
:10013000390A0008390A0008390A0008390A000893
:10014000390A0008390A0008390A0008390A000883
:10015000390A0008390A0008390A0008390A000873
:10016000390A0008390A0008390A0008390A000863
:10017000390A0008390A0008390A0008000000009E
:10018000390A0008390A0008390A0008390A000843
:10019000390A0008390A0008390A0008390A000833
:1001A000053C0008390A0008113C0008390A00081B
:1001B000390A0008390A0008390A00081D3C0008FD
:1001C000390A0008390A0008293C0008390A0008E1
:1001D000390A0008390A0008390A0008390A0008F3
:1001E000390A0008390A0008390A0008390A0008E3
:0801F000390A0008390A000871
:1002000010B5054C237833B9044B13B10448AFF350
:1002100000800123237010BD400300200000000077
:10022000CCFD020808B5034B1BB103490348AFF3EB
:10023000008008BD0000000044030020CCFD02083F
:1002400001F0FF01102A2BDB10F0070F08D010F887
:10025000013B013A8B422DD010F0070F42B3F6D18B
:10026000F0B441EA012141EA014122F007047FF0A4
:1002700000070023F0E80256083C85EA010586EAFB
:10028000010685FA47F5A3FA87F586FA47F6A5FA37
:1002900087F68EB9EED1F0BC01F0FF0102F0070243
:1002A00032B110F8013B013A83EA010313B1F8D1EE
:1002B0000020704701387047002D06BF35460338CF
:1002C000073815F0010F07D1013015F4807F02BF08
:1002D000013015F4C03F0130F0BC0138704700BF59
:1002E00081F0004102E000BF83F0004330B54FEAE7
:1002F00041044FEA430594EA050F08BF90EA020F54
:100300001FBF54EA000C55EA020C7FEA645C7FEAE6
:10031000655C00F0E2804FEA5454D4EB5555B8BF09
:100320006D420CDD2C4480EA020281EA030382EA7A
:10033000000083EA010180EA020281EA0303362D0C
:1003400088BF30BD11F0004F4FEA01314FF4801CDF
:100350004CEA113102D0404261EB410113F0004FF1
:100360004FEA03334CEA133302D0524263EB4303A8
:1003700094EA050F00F0A780A4F10104D5F1200E46
:100380000DDB02FA0EFC22FA05F2801841F10001A1
:1003900003FA0EF2801843FA05F359410EE0A5F175
:1003A00020050EF1200E012A03FA0EFC28BF4CF0A6
:1003B000020C43FA05F3C01851EBE37101F000455C
:1003C00007D54FF0000EDCF1000C7EEB00006EEB69
:1003D0000101B1F5801F1BD3B1F5001F0CD34908F3
:1003E0005FEA30004FEA3C0C04F101044FEA44524A
:1003F00012F5800F80F09A80BCF1004F08BF5FEAD1
:10040000500C50F1000041EB045141EA050130BDB0
:100410005FEA4C0C404141EB0101013C28BFB1F5C2
:10042000801FE9D291F0000F04BF01460020B1FA0D
:1004300081F308BF2033A3F10B03B3F120020CDAE0
:100440000C3208DD02F1140CC2F10C0201FA0CF0BE
:1004500021FA02F10CE002F11402D8BFC2F1200C23
:1004600001FA02F120FA0CFCDCBF41EA0C019040D9
:10047000E41AA2BF01EB0451294330BD6FEA040422
:100480001F3C1CDA0C340EDC04F11404C4F120020D
:1004900020FA04F001FA02F340EA030021FA04F31F
:1004A00045EA030130BDC4F10C04C4F1200220FA76
:1004B00002F001FA04F340EA0300294630BD21FAB4
:1004C00004F0294630BD94F0000F83F4801306BF7A
:1004D00081F480110134013D4EE77FEA645C18BF6E
:1004E0007FEA655C29D094EA050F08BF90EA020F05
:1004F00005D054EA000C04BF1946104630BD91EAFD
:10050000030F1EBF0021002030BD5FEA545C05D1FF
:100510004000494128BF41F0004130BD14F580043E
:100520003CBF01F5801130BD01F0004545F0FE41B2
:1005300041F470014FF0000030BD7FEA645C1ABFE7
:10054000194610467FEA655C1CBF0B46024650EA1E
:10055000013406BF52EA033591EA030F41F400214A
:1005600030BD00BF90F0000F04BF0021704730B5D0
:100570004FF4806404F132044FF000054FF00001A5
:1005800050E700BF90F0000F04BF0021704730B566
:100590004FF4806404F1320410F0004548BF40423B
:1005A0004FF000013EE700BF42004FEAE2014FEA90
:1005B00031014FEA02701FBF12F07F4393F07F4F6B
:1005C00081F06051704732F07F4208BF704793F06E
:1005D0007F4F04BF41F40021704730B54FF4607481
:1005E00001F0004521F000411CE700BF50EA010284
:1005F00008BF704730B54FF000050AE050EA01022D
:1006000008BF704730B511F0004502D5404261EB9C
:1006100041014FF4806404F132045FEA915C3FF4DD
:10062000D8AE4FF003025FEADC0C18BF03325FEA7A
:10063000DC0C18BF033202EBDC02C2F1200300FA2B
:1006400003FC20FA02F001FA03FE40EA0E0021FA50
:1006500002F11444BDE600BF7BB972B90029BEBFE8
:1006600000204FF0004106E008BF00281CBF6FF0DB
:1006700000414FF0FF3000F0B5B9ADF1080C6DE965
:1006800004CE002909DB002B1ADB00F04DF8DDF861
:1006900004E0DDE9022304B07047404261EB410110
:1006A000002B1BDB00F040F8DDF804E0DDE902235D
:1006B00004B0404261EB4101524263EB4303704797
:1006C000524263EB430300F02FF8DDF804E0DDE96C
:1006D000022304B0404261EB41017047524263EB98
:1006E000430300F021F8DDF804E0DDE9022304B063
:1006F000524263EB4303704753B94AB9002908BF1C
:1007000000281CBF4FF0FF314FF0FF3000F06AB9F6
:10071000ADF1080C6DE904CE00F006F8DDF804E058
:10072000DDE9022304B070472DE9F047089D0C462F
:10073000002B4ED194468C458646B2FA82F262D99D
:100740004AB1C2F12003914020FA03F30CFA02FCF3
:10075000194300FA02FE4FEA1C471FFA8CF6B1FB60
:10076000F7F44FEA1E4307FB141143EA014304FB6D
:1007700006F199420AD91CEB030304F1FF3080F023
:100780001281994240F20F81023C6344591A1FFAC8
:100790008EF3B1FBF7F007FB101143EA014300FBB6
:1007A00006F69E420AD91CEB030300F1FF3180F0EC
:1007B000FC809E4240F2F980634402389B1B40EA71
:1007C000044000211DB1D3400022C5E90032BDE83C
:1007D000F0878B4205D90DB1C5E90001002108461B
:1007E000F5E7B3FA83F1002946D1A34202D3904240
:1007F000C0F0F080861A64EB03030120002DE6D0E0
:10080000C5E90063E3E7002A40F09080A1EB0C0407
:100810004FEA1C481FFA8CF70121B4FBF8F64FEAA7
:100820001E4308FB164443EA044307FB06F09842C4
:1008300008D91CEB030306F1FF3402D2984200F200
:10084000CD8026461C1A1FFA8EF3B4FBF8F008FB85
:10085000104443EA044300FB07F79F4208D91CEB0E
:10086000030300F1FF3402D29F4200F2B080204621
:10087000DB1B40EA0640A5E7C1F120068B4022FAC7
:1008800006F71F4320FA06FC04FA01F343EA0C03BF
:10089000F44000FA01F8380C4FEA1349B4FBF0FEBB
:1008A0001FFA87FC00FB1E4449EA04440EFB0CF9C6
:1008B000A14502FA01F20AD93C190EF1FF3A80F083
:1008C0008480A14540F28180AEF1020E3C44A4EB4D
:1008D00009041FFA83F9B4FBF0F300FB134449EA5F
:1008E000044403FB0CFCA44507D93C1903F1FF3079
:1008F00067D2A44565D9023B3C4443EA0E40A0FBC5
:100900000293A4EB0C049C42CE469C4651D34ED09D
:1009100055B1B8EB0E0364EB0C0404FA06F6CB40B9
:100920001E43CC40C5E90064002150E7C2F120031A
:1009300020FA03F10CFA02FC24FA03F394400C436E
:100940004FEA1C4800FA02FE1FFA8CF7B3FBF8F0DE
:1009500008FB1031230C43EA014300FB07F19942E5
:1009600008D91CEB030300F1FF362CD299422AD997
:10097000023863445B1AA4B2B3FBF8F108FB1133ED
:1009800044EA034401FB07F3A34208D91CEB040427
:1009900001F1FF3613D2A34211D902396444E41A9B
:1009A00041EA004139E70446F0E6084606E7C84553
:1009B000AED2B9EB020E63EB070C0138A8E7314663
:1009C000EDE7034699E73046D4E7D6467FE7634430
:1009D00002384DE70646234608460FE7023E6344C9
:1009E00030E700BF704700BFDFF834D0002103E0DC
:1009F0000C4B5B58435004310B480C4B42189A4245
:100A0000F6D30B4A02E0002342F8043B094B9A421A
:100A1000F9D304F0BDFA2EF055FB02F02DF9704722
:100A200000000820784E0308000000202801002064
:100A300040030020287A0120FEE77047704708B580
:100A400001F0A8FCBDE8084001F02CBC01F0A4BCFA
:100A5000174B1A6B42F0010210B51A6386B01B6B7C
:100A600003F001030093009B59B90123039111483E
:100A7000CDE90131022301A9049305F017F906B06D
:100A800010BD0129FBD100240223019101A90948CD
:100A9000CDE903434FF48813029305F007F922468A
:100AA0000F21062004F0E2FA062004F011FBE6E72D
:100AB0000038024000000240002108B50846FFF758
:100AC000C7FF08BD0121024808B505F06DFA08BD51
:100AD0000000024008B50020FFF7F4FF08BD4068A1
:100AE00070474160704700004FF0E022D2F8FC3DB3
:100AF00043F08073C2F8FC3D054B064AD3F8B01FA3
:100B00000A43C3F8B02F1A6842F001021A60704716
:100B1000001000E055CEACC5521A02EB5302B2FBF6
:100B2000F3F07047014B5868704700BF001000E0B9
:100B3000704710B504460C212DF0D7FB204610BDA0
:100B4000036810B51B69044631B19847A268636811
:100B50009B1A0344636010BD9847A060FBE7704791
:100B60007047000008B5FFF7A7FF024B00221A608C
:100B700008BD00BF5C03002070B50D46FFF7AAFF5B
:100B80000B4AC4B293785678117813F00100D370F1
:100B90009670517014700AD016F0010007D011F051
:100BA000010004D0E30756BF01200020287070BD6B
:100BB0005C03002010B5044604212DF096FB20466E
:100BC00010BD704710B5044604212DF08EFB204661
:100BD00010BD70477FB501238DF817204FF47A724E
:100BE000CDE901320DF1170200920A46014606488E
:100BF00005F090FB20B1044805F072FB02F01AF8F2
:100C000007B05DF804FB00BF182500207FB5002366
:100C10000A464FF47A718DF817300123CDE901317E
:100C20000DF1170100910146064805F04DFC20B179
:100C3000044805F055FB01F0FDFF9DF8170007B0D3
:100C40005DF804FB182500201FB54FF47A7400925C
:100C50000A4601460748CDE90134012305F034FC7A
:100C6000044620B1034805F03BFB01F0E3FF2046BA
:100C700004B010BD18250020F8B5134D0646134CDE
:100C80000F462B68207898476B6854209847C0B26D
:100C9000112809D06B68702098477023C0B2237068
:100CA000112803D00320F8BD54232370084BBE4203
:100CB0002CBF0C26012620781E70AB689847207840
:100CC000EB6898470020EEE7100000207103002039
:100CD0007203002008B54FF4F0714FF44870FFF72D
:100CE000CBFF074B10B901221A7008BD1B78002BEF
:100CF000FBD1044B6A21044A04482DF06DFE00BF6D
:100D0000700300207CFE02088FFE0208B9FE020874
:100D10002DE9F04F344A0546DFF8DCA085B01078A5
:100D2000DAF810309847287050B1304EA946304F4D
:100D30000DF10C0B02AC4FF000082B78984503D353
:100D4000002005B0BDE8F08F27485A462146DAF862
:100D50001430007808F101089847264BB446BE4687
:100D60001B7804360437190741BF2288BBF80010EE
:100D7000ABF8002021809A0741BF2288C2F5477254
:100D8000033222805B0756F8042C48BFBBF80030C2
:100D900034F8020B42BFC3F5EF730133ABF80030F8
:100DA00093B290423BF8021B8CBFC31A1B1A9BB232
:100DB000019357F8043C9AB29942019B8CBF8A1A5E
:100DC000521A92B21344052BC8BF46F8040CDCF843
:100DD0000030C8BF47F8041C29F8023FDEF8003095
:100DE000A9F80430A9E700BF7103002068030020C0
:100DF0006003002072030020100000207FB50B4B21
:100E00000E4615461C781CB90024204604B070BD5F
:100E100001A8FFF77DFF9DF80430002BF4D0BDF84A
:100E200006303360BDF80A302B60EEE77003002017
:100E3000032823D8DFE800F0020B121A104B4021E0
:100E40001A68B2FA82F252090E4805F0B3B80C4B98
:100E500080215A68B2FA82F25209F5E7084B022162
:100E600009489A68B2FA82F25209EEE7044B40212F
:100E70000648DA68B2FA82F25209E6E7704700BF24
:100E800074030020000802400024024000140240C5
:100E9000032823D8DFE800F0020B121A104B402180
:100EA0001A68003A18BF01220E4805F083B80C4BAF
:100EB00080215A68003A18BF0122F5E7084B022149
:100EC00009489A68003A18BF0122EEE7044B402116
:100ED0000648DA68003A18BF0122E6E7704700BF0B
:100EE0007403002000080240002402400014024065
:100EF00003280FD8DFE800F00206080B402106485F
:100F000005F05DB88021FAE702210448F8E74021A6
:100F10000348F5E7704700BF000802400024024084
:100F20000014024008B5032813D8DFE800F0020AD5
:100F30000C0F4021084805F037F8431E584258412D
:100F400008BD8021F6E702210448F4E74021044867
:100F5000F1E70020F1E700BF000802400024024052
:100F60000014024070B5084D00240126E0B2FFF7DE
:100F7000D9FF18B12B68012B18BF2E60013404353E
:100F8000052CF3D170BD00BF74030020012380F84D
:100F9000781080F87930704700207047416400393C
:100FA000024B18BF01211970704700BFE76C012088
:100FB00000207047836B0BB10846184770474FF607
:100FC000FF707047406803689B691847014B1868B9
:100FD000704700BF9803002070470000F0B4002362
:100FE000104CC4F88430BFF34F8FD4F8803043F6F0
:100FF000E076C3F3C905C3F34E335B0103EA060C85
:101000002A464CEA8277013AC4F87472F9D2203B3E
:1010100013F1200FF2D1BFF34F8FBFF36F8FF0BCEE
:1010200001F0D0BA00ED00E008B501F04BFA024B38
:101030000422DA6008BD00BF00E100E010B50446FC
:1010400001F0D0FB94F84B3013B1024B01221A701F
:1010500010BD00BF04000020014B196001F03BBA35
:101060009803002010B5044617F042FB2368204681
:10107000D3F8AC30BDE81040184716F0A5BD10B548
:1010800004467C212DF031F9204610BD024B002290
:101090001A7016F0D5BD00BF0400002038B5044614
:1010A000074D01F067FA0023284684F84A30FFF71D
:1010B0001BFD0123256184F87030024B636138BD4C
:1010C0008C030020880300200368044607B5D3F88A
:1010D00080309847236820469B6F984700F084FA39
:1010E000236820461B6F98470021292315220548B5
:1010F000009104F054FD00F077FA236820461B6F3E
:101100009847F8E76C25002008B501F0D3F90022D4
:1011100007215A2003F0AAFF002207216220BDE820
:10112000084003F0A3BF000090F834100D4B10B539
:1011300090F878401A788C4209D03AB90A490B4A9B
:1011400008881488108001220C801A7010BD002AB3
:10115000FCD0064A0449148808880C8010800022BC
:10116000F3E700BFE06C0120DE6C0120DC6C0120A5
:1011700008B5094B1B888B4203D8084B1B88934248
:1011800005D9074B9E21074A07482DF025FC074B40
:101190001980074B1A8008BDDC6C0120DE6C012031
:1011A00020FF020883FF0208C6FF0208E26C01204C
:1011B000E46C012008B501F047FB044B0422C3F89E
:1011C0008C20BFF34F8FBFF36F8F08BD00E100E0AD
:1011D000034690F87A0018B1586803681B681847EE
:1011E0007047000070B50D4619460B4B1D6035B9B0
:1011F0000A4B40F2D2210A4A0A482DF0EDFBC0E921
:101200000F52003A084B18BF01221A700368BDE85C
:101210007040D3F88C301847980300200B00030867
:1012200043000308C6FF0208E66C0120C0E9011272
:10123000C3604FF480720023C0E912231C4A038567
:1012400080F82A30C362038680F85830436680F8FD
:1012500070304367C0E91A23164A70B5C0E90433F9
:10126000BDF81050BDF81460C0E90633C0E908337A
:10127000C0E90E33C0E91033C0E91433C0E91733B5
:101280008267B5420C4A10600C4A15800C4A1580E2
:1012900028BF00250B4A38BF012516800A4A80F86E
:1012A00034501680094A1370094B036070BD00BFAB
:1012B0000100000100000101E86C0120DC6C01204C
:1012C000E26C0120DE6C0120E46C0120E06C012066
:1012D0009C00030803F0A6BE0128034607B50AD800
:1012E0004B781522084800930B78002104F057FC36
:1012F00003B05DF804FB01910A5C002102480092F2
:10130000392204F05DFCF3E76C2500200C4B012230
:1013100013B51A70DF220B4C00215A703922019349
:10132000442320460093022304F04AFC0021352385
:1013300015222046009104F032FC02B010BD00BF1F
:10134000840300206C25002010B50446FFF7DEFF63
:101350000F4B022220461B68C3F810240122C3F859
:101360001024D3F8082442F00102C3F80824D3F86B
:10137000082442F00202C3F80824064B1A68536B93
:1013800043F00303BDE81040536301F0A3B800BF6E
:101390006C25002070240020F0B589B0294B06464A
:1013A00004AA03F1100715461868083353F8041C03
:1013B0001446BB4203C42246F6D1234C05EB8605F6
:1013C0002A233922019500210093204604234FF45B
:1013D000C87504F0F5FB236800201C490290D3F87F
:1013E0000424096822F00802C3F80424D3F8042472
:1013F00002F008020292029A154A126805FB0211D5
:10140000144AC2F8AC101449116101F10111516183
:101410001249C2F888101249C2F8B0100121516275
:1014200003902046D3F8042442F00802C3F80424B1
:10143000D3F8043403F008030393039B04F09FFBE9
:1014400009B0F0BDE8FD02086C25002098030020DB
:101450009C03002000680140E201CA000300CA00AA
:101460009301400638B5124C226892F86A30013375
:1014700082F86A3000F0ACF80E4B1A780E4B1AB9AD
:101480002268197882F84A101B787BB10B4D2878B6
:1014900060B9FFF7CDFC206808B117F029F9084BB7
:1014A00000201860FFF778FF01232B7038BD00BFC4
:1014B000E86C0120E66C012004000020A00300205D
:1014C0009C03002008B50E4B1868022806DC01308A
:1014D0001860C0B2BDE80840FFF75EBF094B0022AC
:1014E0001A70094B186828B1084B1B7813B90368A8
:1014F0001B6A98470020BDE80840FFF7C9BC00BF41
:101500009C030020A0030020E86C0120E66C012071
:10151000014608B5034B186801B1012117F002F923
:10152000012008BDE86C0120054B002205485A60E7
:101530009A60054A1A60054B0360FFF713BB00BFB2
:101540008C0300208803002040FE020868FE020889
:101550000121002208B5084606F07AFE0A4B186001
:1015600028B90A4B28210A4A0A482DF035FA0022E8
:101570000421012006F036FF074B186018B9074B0D
:101580002C21034AF0E708BDA80300206C010308E2
:10159000B5010308E4010308A40300203002030896
:1015A000024B4FF0FF31186806F0AABEA8030020D6
:1015B000014B186806F0E0BEA8030020024B002192
:1015C000186806F09DBE00BFA8030020FFF7F0BF1B
:1015D0000023034803491A46006806F049BF00BFCC
:1015E000A40300200800002013B50023074C01A924
:1015F0001A46206806F07EFF4FF0FF33002201A953
:10160000206806F077FF02B010BD00BFA4030020E1
:1016100003685B6C18470120704703689B6A184792
:10162000FEE700000E4B82B01A6B42F400021A6310
:101630001A6B02F400020192019A1A6942F4000244
:101640001A611A6922F400021A61064B064A9A616D
:10165000064ADA614FF08062054B9A6002B070472B
:101660000038024088250020FD18000821160008D7
:1016700000E100E040F2EF3070470000054B4FF012
:1016800080620360044BC3F88820BFF34F8FBFF321
:101690006F8F7047CC03030800E100E010B50446EB
:1016A0004FF45A61FFF7EAFF20462CF01EFE204659
:1016B00010BD000008B50A2809D8DFE800F00610C0
:1016C0000E080808081010101000022008BD054B75
:1016D0009021054A05482DF07FF90020F6E701200A
:1016E000F4E700BF720203088D020308D802030862
:1016F00038B50C46887FFFF7DDFF174BA58AE28AD5
:10170000586342EA054221695A64628BD963521BCD
:101710001A642568082D0ED19A611A6158620F4A21
:10172000207F42EA0062DA61E2681A620C4A59617B
:10173000D9601A6038BD0022D8611A61E1680A0ACE
:101740004809C1F3C40102F4784200F4FC6002438A
:101750000A439A63034AECE700B002400900010023
:10176000012302000123030008B50B280BD8DFE892
:1017700000F00612100A0A0A0A08080808080220DF
:1017800008BD0520FCE7054B6F21054A05482DF0F3
:1017900023F90020F4E70120F2E700BF72020308FA
:1017A00022030308D80203082DE9F04191F81D80B7
:1017B0000C464046FFF7D8FFA77F05463846FFF79F
:1017C000D3FF06463846FFF775FFA18A628B434B6D
:1017D000521A1A649A61228B521A1A61E28A586369
:1017E00042EA014221695A646268D963DA6020687A
:1017F000802828D0227F0FD8202866D0402864D0A7
:1018000004281AD045EA0265344BB84545F4003542
:10181000DD6160D0324A44E0B0F5807F04D0B0F59D
:10182000007FEFD12F4800E02F4840EA0262DA61E2
:10183000E2681A625E62596132E045EA026242F48D
:101840000032DA61F6E7A068021DDA62227F45EA1B
:10185000026545F40035DD615E625961017841B190
:10186000012921D0214B4FF48D71214A21482DF0BF
:10187000B3F8DA69418822F47F42013922F010027C
:1018800042EA01220121DA61144BDA6942F02002B6
:10189000DA61DA699206FCD410229A600029B9D084
:1018A000154A1A60BDE8F081B2F1FF01DA6940889B
:1018B00022F47F4218BF0121013822F0100242EACF
:1018C000002242F01002DA61DEE745EA0262034BD1
:1018D00042F40032B5E742F20132E2E700B00240E2
:1018E00001230100090002000A0002006C03030842
:1018F00086030308D802030801230200024B1B6879
:10190000586803685B691847E86C012070B50446A5
:101910000A4B0C30002625466022606026726672F3
:1019200045F8203B294617F053F804F55A63EE605A
:1019300024359D42FBD1204670BD00BFCC03030877
:10194000034B1A68D207FCD423229A60704700BF69
:1019500000B00240094B5A69D2030AD5BFF34F8F3A
:1019600008440029A0EB010204DCBFF34F8FBFF352
:101970006F8F70472039C3F86822F2E700ED00E06E
:1019800030B5104C2568ED07FCD423250904FF2B46
:10199000A56041F001014FF0020565636164E063F9
:1019A0000AD00949656241EA0363E361074B226299
:1019B0006061E060236030BDE561039BA363044B7D
:1019C000F8E700BF00B0024009000100010002007A
:1019D0000100030030B50F4C2568ED07FCD423252A
:1019E0001204FF2BA56042F001024FF0020565636F
:1019F0006264E063E16008D01B0643F00213E36118
:101A0000054B65626061236030BD044BE3610123D7
:101A1000F9E700BF00B0024001000200020002FF2F
:101A200030B50B4C2568ED07FCD4232512041B06AA
:101A3000A56042F00102022543F40033656362644D
:101A4000E063E160E361034B65626061236030BD88
:101A500000B00240010002004069704790F8440065
:101A60007047036B23B9C06A003818BF0120704764
:101A70000120704780687047043010B50C460FC8CD
:101A800084E80F0010BD704708B5034A40F21221E8
:101A9000024B03482CF0A0FF14040308B71F0308EF
:101AA0006F04030810B5044648212CF01EFC2046A4
:101AB00010BD00002DE9F0431C46436BADF51F7DC2
:101AC00005460E461746002B37D0002203A8DFF844
:101AD000A890CDE901320EF0C5FD4FF4F47250210B
:101AE000249024A808F08BFD3A46314624A809F03A
:101AF000DFFC012124A808F07DFE022324A88DF834
:101B0000D83008F018FFBDF898322B9ABDF89C62C7
:101B10009342A89F28BF1346419A964203EB43087D
:101B2000A7EB430728BF1646479B9E4209D824A827
:101B300008F082FE24A808F0AFFD0DF51F7DBDE87A
:101B4000F083012201A924A808F03EFF6B6B03EB90
:101B50000800984201D83C44E6E759789A78C900D1
:101B600009EA022201F4FC610A4313F8031B42EA6A
:101B7000D10224F8022BECE700F8FFFF0A4A0260CA
:101B80000022C0E90522C0E90722C0E90922C0E914
:101B90000B22C0E90D12C0E90F2280F84420C0E9F1
:101BA0000322C0E9012270474C07030810B40C4619
:101BB00011461A46036B3BB1036C806BE41A204458
:101BC0005DF8044B2DF0CCB9C06AF8E7036B10B593
:101BD00073B1036C826BC91A5318525C98785C78A5
:101BE0000004DB7840EA0420104340EA036010BDA3
:101BF000C36A5858FBE7036B43B1036CC91A836B84
:101C00005A18585C527840EA02207047C36A585A02
:101C10007047000070B50446006B0D461646D8B1FB
:101C2000E36B934208D209230D4A65210D4884F8DD
:101C300044300D4B2CF0D0FE0368DB689847206BD6
:101C40003246A16B03681B69984710B90D2384F8CD
:101C50004430A06B256470BDE06A0844FBE700BF18
:101C6000D80403086F040308C50403082DE9F843EA
:101C7000436904462BB9234BAA21234A23482CF05D
:101C8000ABFE08228169FFF7C5FFA16943F2300668
:101C900046F2643704312046FFF798FFA3691844E1
:101CA000A36A00F108029A4206D30123002063616F
:101CB000236AA361BDE8F883636909300822013310
:101CC00020F0010120466361A161FFF7A3FFD4F872
:101CD000189020464946FFF78EFF09F10201804621
:101CE0002046FFF788FF09F1040105462046FFF76B
:101CF0006DFFB045D2D1BD42D0D10028CED0012059
:101D0000D8E700BF1A050308630503086F0403083A
:101D10002DE9F04F0446ADF51F7D8A4616468169D0
:101D200008229846FFF776FFA7692046391DFFF77E
:101D30004DFF07F10801024605462046FFF76AFFFE
:101D4000636B074633B93C4B40F2AB113B4A3C480E
:101D50002CF042FE002203A8CDE901320EF082FCF5
:101D60004FF4F4725021249024A808F048FC2A462D
:101D7000394624A809F09CFB012124A808F03AFD6B
:101D8000022324A88DF8D83008F0D5FDBAF9025006
:101D9000479BAB4229D3BAF900904FEA4808BAF8FA
:101DA00004702B9B08FB05664F44BAF80250DFF81D
:101DB00094B03FB29F4228BF1F46BAF8063009EBE5
:101DC000490A1D44419B2DB29D4228BF1D46479B99
:101DD000AB4210D324A808F02FFD24A808F05CFC27
:101DE00001200DF51F7DBDE8F08F012201A924A877
:101DF00008F0EAFDCCE7012201A924A808F0E4FDDF
:101E0000626B49465244B94202F1030201D346448F
:101E1000DDE712F8020C12F8013CC0000BEA0323C4
:101E200000F4FC60034312F8030C43EAD00326F8E5
:101E300011300131E7E700BF96050308EC05030800
:101E40006F04030800F8FFFF0129036838BF012170
:101E5000DB6A70B50D4604469847A84204D2236851
:101E60002046DB6A984705466B1EE669102220462D
:101E700006EB031606F10801FFF7CCFE06F1100190
:101E80002046FFF7A3FE236A043B0344C4E905533D
:101E900070BD0000002148222DE9F0410446816117
:101EA00080F84410FFF7B6FEA6690423624A314663
:101EB0002046FFF77BFE40B10323604AF22184F8FD
:101EC00044305F4B5F482CF087FD06F10801042386
:101ED0005D4A2046A161FFF769FE30B10423574AED
:101EE000FA2184F84430594BECE706F10C01042345
:101EF000574A2046A161FFF759FE074638B105232E
:101F00004E4A40F2011184F84430524BDAE706F1B0
:101F100010012046FFF75AFE054620B94E4B40F20D
:101F20000711464ACEE706F1140804234B4A20461F
:101F30004146FFF73BFE002849D0062384F8443091
:101F40000423474A06F118012046FFF72FFE002818
:101F50003FD0072384F844304544424F0C222046AA
:101F60002946FFF757FE05F1080604233A462046A6
:101F70003146FFF71BFE94F84430002848D0002B70
:101F800048D1A36AAB4249D805F10C030435204679
:101F9000A3612946FFF71AFE3044294660622046B5
:101FA000FFF714FE0644042220463146FFF732FEB6
:101FB00004232D4A31462046FFF7F8FD002838D18A
:101FC0000123E6616361A3692362BDE8F081012713
:101FD000B6E7002FC0D006F120012046FFF7F6FD3E
:101FE0004FF47A7306F13001B0FBF3F060602046E5
:101FF000FFF7ECFD06F14001A0602046FFF7E6FD8B
:1020000006F14401E0602046FFF7E0FD2061A3E710
:10201000002BB9D00A2384F84430D6E7291D204686
:10202000FFF7D4FD85190C2220462946FFF7F2FD63
:1020300099E70B23EFE700BF460603086406030891
:102040004B0603086F04030891060308960603086D
:10205000AE060308B3060308C9060308D50603083D
:10206000DA060308DF060308E4060308C0E90A21CC
:1020700000220263FFF70EBF10B500230446084696
:10208000E3620B6821639B689847A0622046BDE825
:102090001040FFF7FFBEF0B4069FBDF81050BDF82A
:1020A000146032B12BB10495CDE90567F0BCFFF7A0
:1020B00001BDF0BC704700002DE9F04F994643691F
:1020C00085B004460F4690462BB9294B7721294A03
:1020D00029482CF081FC08228169FFF79BFDA66945
:1020E00020463146FFF787FDB11C83462046FFF7A7
:1020F00082FD311D82462046FFF768FD06F108018A
:10210000A36A054642189A4226D243F230039B4501
:1021100017D146F264339A4513D190B10246A161BA
:102120002046FFF777FD0E9B01462A462046CDF854
:102130000080CDE901933B46FFF7ADFF63690133B2
:102140006361A3692B4405B908330133626A23F044
:1021500001039342A36109D1012301206361236A32
:10216000A36180F0010005B0BDE8F08F0020F8E722
:102170001A050308E90603086F04030801207047E5
:102180000C2070470C2303FB0100083070470C2320
:1021900003FB010008307047012070474FF4F870CE
:1021A00070474FF4F87303FB0100083070474FF499
:1021B000F87303FB010008307047012070471020BE
:1021C000704700EB01100830704700EB0110083039
:1021D0007047084601F01ABF034B10B50446036070
:1021E00015F04AFA204610BDF407030810B504465E
:1021F000FFF7F2FF142120462CF077F8204610BD9F
:10220000034B10B50446036015F036FA204610BDA6
:10221000C007030810B50446FFF7F2FF4FF4FC7146
:1022200020462CF062F8204610BD0000034B10B58C
:102230000446036015F020FA204610BD8C07030801
:1022400010B50446FFF7F2FF182120462CF04DF898
:10225000204610BD084B10B50446036000F5097018
:10226000FFF7BAFF04F12C00FFF7CAFF04F11400D6
:10227000FFF7DCFF204610BD2808030808B5024818
:10228000FFF7E8FF08BD00BF7C12002010B5044630
:10229000FFF7E0FF4FF4667120462CF026F8204649
:1022A00010BD00002DE9F34101F032FD0024054688
:1022B00001F032FD234601462246284600941CF0D8
:1022C000C7FF274B274A2046274D1A6002F064F9C2
:1022D000264B274A27489A601CF022FF2B68BFF341
:1022E0005B8FDB0735D428462CF001F888B3224CED
:1022F000224B04F50F7604F1140004F12C0804F5C8
:10230000097723606060C4F80880E760266115F0F3
:10231000B5F91B4B4046636115F0B0F9194B3846CF
:10232000E36215F0ABF9184B04F50E70C4F82432D3
:1023300002F054FA224604F50E71304602F098F984
:10234000304601F063FE11482CF064FB28462BF068
:10235000DAFF0F4802B0BDE8F041FEF79FBE00BFB4
:102360004C6D012028040020781200204804002031
:102370002C0400200C0000207C12002028080308F8
:102380008C070308C0070308F40703087D22000830
:10239000AC030020704700000148FEF795BE00BF67
:1023A000AC03002073B50E4C0E4B0F4E20460F4D64
:1023B0003360FFF7ABFA284622F05CF80C481BF0BC
:1023C00017F84FF448734FF4F07221460948CDE9ED
:1023D000003233462A46FEF729FF02B070BD00BF27
:1023E000D404002010FF02087412002048040020CA
:1023F0002C040020AC0300200148FFF73FB900BFC8
:10240000D40400200020704781807047C18070474D
:10241000018170474181704770477047704770472E
:10242000704710B4C4880368121B84885B6D091B55
:1024300012B25DF8044B09B218474FF6FF7383815F
:102440004FF0FF3303621368C361106070470020D0
:1024500070478B88838001207047704780F8261072
:10246000704790F826007047002210B5B1F9084077
:10247000B1F90A10028042808480C18010BD002220
:10248000028042808280C28070470177704780ED71
:10249000080A704780F82410704780F825107047AC
:1024A00001207047983070478C30704784307047F7
:1024B00070470000024B902283F85A23704700BFF8
:1024C00000E100E0024B4FF080629A60704700BF6D
:1024D00000E100E070477047124A5369DB0370B5B2
:1024E0001ED50023C2F88430BFF34F8FD2F880305E
:1024F00043F6E074C3F3C900C3F34E335B0103EA50
:102500000406014646EA81750139C2F87452F9D2CF
:10251000203B13F1200FF2D1BFF34F8FBFF36F8F2A
:1025200070BD00BF00ED00E00163C0E90D21704700
:1025300070477047704700EB8100114640680368A0
:10254000DB68184780F83C10704710B504464821F6
:102550002BF0CBFE204610BD10B504462C212BF0ED
:10256000C4FE204610BD10B50446BC212BF0BDFEB4
:10257000204610BD38B5044615F07BFB23685D6E20
:1025800019F0BEFD01462046A8472368074A2046A9
:10259000D3F8885000230649A847064B064A5A60DC
:1025A000064A1A639A63064A5A6338BD007017C018
:1025B00000B80BC0D41600201C170020000000C07B
:1025C00000B80B0015F006BB15F067BC38B5044623
:1025D0000D46406C4FF0FF3105F0DEFD606C05F0FC
:1025E0000BFE242303FB0545002385F8283094F8CF
:1025F00028300BB9236BA36338BD90F8252012B1A6
:1026000003685B691847704708B531B1044B4FF454
:10261000B871044A04482CF0DFF990F8290008BD8D
:102620003408030848080308D209030810B531B17B
:10263000064B4FF4B571064A06482CF0CDF94068B8
:1026400011460368BDE810401B6B184734080308A7
:10265000150A0308D209030808B529B1034B7921EB
:10266000034A04482CF0B8F9C06808BD34080308D0
:10267000C30B0308D209030810B5044629B1194B4E
:10268000A221194A19482CF0A7F9052A15D8DFE824
:1026900002F0031115171C22406803681B69984754
:1026A00058B1012384F8293084F82C300023C4E980
:1026B000043302E0002380F8293010BD0362F5E7FF
:1026C0000362012380F82A30F0E7002380F82930E4
:1026D00001230362F1E7003B18BF012380F82D308E
:1026E000EBE700BF34080308780D0308D20903089C
:1026F00010B50C4611461A462CB1064B9021064ADD
:1027000006482CF069F9C46040680368BDE81040D1
:102710009B681847340803084C0F0308D2090308C4
:1027200008B529B1054B8221054A06482CF054F919
:10273000C0E90411C0E9063208BD00BF340803082F
:1027400027110308D209030890F83D3010B504465C
:1027500053B14FF0FF31406C05F01EFD002384F8AB
:102760003D30012384F83E3010BD90F825201AB189
:1027700090F8242002B118607047000010B504469C
:10278000104629B1134BD021134A14482CF024F9D8
:1027900094F8293033B1124B1B6893F86B206369AE
:1027A0001344636194F82B300BB9012010BDA3686A
:1027B000036303685B699847002394F82C0084F84E
:1027C0002B300028F1D194F82D30002BEED184F875
:1027D0002900EBE734080308E3120308D2090308D1
:1027E000E86C012010B5174C15F036FA94F8293032
:1027F00013B994F82A30ABB1E169D4E905325343F7
:1028000022694A4393420DD394F83C0038B19B1A95
:10281000B3FBF1F2994298BF02F1FF3262620123E9
:1028200084F82E300123206C84F83D3005F0A4FD9F
:1028300094F83E302BB1606C05F0DEFC002384F888
:102840003E3010BDD4160020044B4FF08062C3F818
:102850008820BFF34F8FBFF36F8F704700E100E018
:10286000034690F8280070B5D8B901229D6BD86056
:102870009A624FF4807218619A8505F53B2258617F
:1028800002F500629861D8611862586283F82E00E0
:10289000D3E90C463444A2420AD90B4B52210B4ACD
:1028A00003E00B4B40F2C5110A4A0B482CF094F898
:1028B0009D609A634FF4487381F83400CB864FF4DF
:1028C000F07308630B8770BD3B1603087616030888
:1028D00084140308B4140308D2090308002370B554
:1028E000124E05468380124B0360336893F85820DC
:1028F0000AB1D86C00B998680368DB6A98473368F6
:10290000B0FA80F4D86C640930B10368DB6A984788
:10291000002808BF44F001042CB9064B2C21064ABC
:1029200006482CF059F8284670BD00BFE86C01201D
:102930001C1903081918030877180308B0180308AE
:1029400070B5244E3568BFF35B8F15F001053FD19C
:1029500030462BF0CCFC00283AD01F4C1F4B04F122
:1029600034002561E584A562A585C4E90035C4E984
:1029700002551AF09CFF04F1580017F027FC184B81
:102980002046A365174B40F8843BFFF7A7FF164B83
:102990001648C4F884302433C4F89050C4F88C30FE
:1029A0006423C4F89C50C4F8A850C4E92835002317
:1029B000C4F8AC30C4F8B030C4F8B430C4F8B8309F
:1029C0000B4BC4F898302CF025F830462BF09BFCCC
:1029D000014870BD14160020181600205C4603083C
:1029E0003C190308B419030810460308B124000871
:1029F000F04503082DE9F743044601264FF4C86764
:102A00004FF0FF31206C05F07BFC4FF0FF31606C24
:102A100005F0C2FB94F82E3043B36568D4F82080EB
:102A20002B6884F82B60B8F1000F23D05B6A414615
:102A300028469847002323622B684FF4487200977A
:102A40002846D3F814804FF4F073A168C047236977
:102A500084F82C0001332361F0B12B6828469B6A6F
:102A6000984701380023E06084F82E30606C05F050
:102A7000C3FBC5E7626A002ADED02846D3E9099382
:102A80009847616A01442846C8472369626AC4F8C6
:102A9000248013442361CFE70120E3E7014808B510
:102AA000FFF7A8FFD416002038B5154900251548B2
:102AB000FFF764F8144C154B2A4629460120236081
:102AC0004FF48073A563A387A38584F83E5084F8F0
:102AD0002E50C4E90C55C4E91055C4E90155C4E9A8
:102AE0000355C4E90555C4E90755C4E9095505F07E
:102AF000AFFB2064284605F00DFB606438BD00BFC5
:102B0000641700201C170020D4160020001A0308A8
:102B10000149002007F0D2B81115000808B564205B
:102B200005F0E0FAFBE7000000B54FF4407395B004
:102B300041F2883217480C93062306A90693002316
:102B4000CDE90D330F930B931393CDE9113304F0BB
:102B5000D7F8E0B9022301224FF4800104900D4818
:102B6000CDE900331023CDE9023205236A46CDE9D1
:102B700005134FF0407306A90F9341F2883304F018
:102B8000C0F9003818BF012015B05DF804FB012022
:102B9000FAE700BF2424002030B595B010220021B0
:102BA000022409A807252CF0D3F91422002102A839
:102BB0002CF0CEF91D4B192107A81A6C42F0805257
:102BC0001A641B6C03F080530093009B184B1A6827
:102BD00042F440421A6001221B68139503F44043FB
:102BE0000193019B4FF48033CDE907234FF4800319
:102BF000CDE90D434FF4D873CDE91144CDE90F135E
:102C000004F012FA03F010FF0F2300202946CDE94B
:102C100002344FF4A053CDE904034FF4805302A8CB
:102C2000069304F0F3FB15B030BD00BF003802403E
:102C30000070004038B50D4A00250D4C0D4B204664
:102C40002562C4E900230123C4E90455C4E9025301
:102C5000C4E9065503F0EFFA2946204603F019FDB2
:102C600029462046BDE8384003F039BD00600040E9
:102C700018250020684740202DE98048BBB010226D
:102C8000002101242CA81C262CF062F9032502F057
:102C90003FFA4FF00050D04B40F20117ADF8B04072
:102CA000CDE92D03CD4B2CA82F9302F04FFA4FF016
:102CB00010438DF8B14000242CA82D938DF8B860F6
:102CC0008DF8BB40ADF8BE4002F040FA02232CA8BC
:102CD0008DF8BB508DF8B1301923ADF8BE708DF86A
:102CE000B83002F033FA4FF040432CA88DF8B860AA
:102CF00004262D938DF8B1508DF8BB40ADF8BE4041
:102D000002F024FA17232CA88DF8B1608DF8B830A2
:102D10008DF8BB50ADF8BE7002F018FA304602F0E4
:102D200005FABFF34F8FBFF36F8FAD4AC2F8504221
:102D3000BFF34F8FBFF36F8F536943F40033536179
:102D4000BFF34F8FBFF36F8FC2F88440BFF34F8F35
:102D5000D2F8803043F6E074C3F3C900C3F34E33B6
:102D60005B0103EA0406014646EA81750139C2F8AF
:102D70006052F9D2203B13F1200FF2D1BFF34F8FF5
:102D8000536943F480335361BFF34F8FBFF36F8FA9
:102D900002F024F90125FFF7FFFE142200212CA8E0
:102DA0002CF0D6F88F4B4FF400418F481A6B4FF43C
:102DB000004600244FF0030B42F010024FF00208CF
:102DC0008A4F4FF0040A1A634FF480491A6B02F0DD
:102DD00010020392039A1A6B42F002021A631A6BF2
:102DE00002F002020492049A1A6B42F040021A6343
:102DF0001A6B02F040020592059A1A6B42F0080223
:102E00001A631A6B02F008020692069A1A6B42F0D5
:102E100004021A631A6B02F004020792079A1A6BF3
:102E200042F480721A631A6B02F480720892089A54
:102E30001A6B42F020021A631A6B02F02002099208
:102E4000099A1A6B42F400721A631A6B02F4007248
:102E50000A920A9A1A6B42F080021A6301221B6BD3
:102E600003F080030B930B9B03F0A4F80022C02116
:102E70005F4803F09FF8002240215E4803F09AF873
:102E800000220221584803F095F82CA95648CDE9B4
:102E90002C65CDE92E5502F009FFC0232CA954481A
:102EA000CDE92C35CDE92E4B02F000FF40232CA9B3
:102EB0005048CDE92C35CDE92E4B02F0F7FE2CA978
:102EC0004948CDE92C85CDE92E4B02F0EFFE314685
:102ED0002246454803F06EF8142002F0A3F831466C
:102EE0002A46414803F066F80A2002F09BF82422A3
:102EF000214615A80E942CF02BF8182221460FA875
:102F00004FF480762CF024F8342221462CA82CF0A3
:102F10001FF82C2221461EA82CF01AF8364B6422EA
:102F20000CA93846C7E900340523C7E902A5CDE955
:102F30000C2302F02FFB15A938461D94CDE915543A
:102F4000CDE91744CDE91944CDE91B4402F08EFDCB
:102F50001C2121230F20CDE90F1319230FA9CDE93F
:102F600011033846CDE9134402F043FD514638467B
:102F700002F02EFD42F21071384602F081FE4FF44D
:102F80008071384602F0A3FA4FF400734FF4806C5E
:102F90004FF4805E4FF400324FF400213846CDF8F4
:102FA000E080CDE92C634FF40063144ECDE92EC3CD
:102FB0004FF40053CDE930E34FF48033CDE9329341
:102FC0004FF480234FF01009CDE934234FF0807384
:102FD000CDE9361314E000BF120000030100010127
:102FE00000ED00E000380240002402406C25002083
:102FF0000008024000140240006C014070240020D0
:103000002CA902F0B1FCC8231EA938462895CDE9A9
:103010002039CDE91E44CDE9224ACDE92484CDE909
:10302000264402F02FFC2146384602F01AFC2146C5
:1030300034221EA82BF08CFFCC4ACA204FF0CB0CB8
:10304000C6F82080B48686F83640C6E900244FF4DE
:10305000F172C6E9090240F2E3123046C6E90BC23A
:10306000C6E90244C6E90445C6E9065803F0E2FB96
:10307000FF214FF4806E4FF4F072C823304629923E
:103080001E94ADF8A8408DF8AA40CDE9231405217F
:10309000CDE92128CDE925E122461EA9CDE91F343D
:1030A000CDE9274303F092FC32683846936923F058
:1030B0000103936102F040FD2946404601F026FDE0
:1030C0002823152221463846009402F068FD2CA9D9
:1030D000384636944FF44077CDE92C44CDE92E4460
:1030E000CDE93044CDE93244CDE9344402F03CFC32
:1030F00032689F4E4FF40061936930462B439361D1
:1031000020229C4BB462CDF8B080C6E90034402345
:10311000C6E904234FF4C073C6E906344FF4805364
:10312000C6E9081307232CA9CDE92D3ACDE92F389C
:10313000C6E9024ACDE9318B04F0E2FC4FF6FF729A
:103140001EA930460F94CDE91E59CDE9205404F054
:10315000F7FC284601F066FF4FF6FF721EA93046C5
:10316000CDE91E89CDE9205404F0EAFC08234FF68E
:10317000FF721EA93046CDE92034CDE91EB904F016
:10318000DFFC4FF40C734FF6FF721EA90F9330460D
:103190000F9B20952193CDE91EA904F0D1FC40F2AC
:1031A0002A713046744E04F0EAFC43F2D2024FF02A
:1031B000204330461A6003F580533462C6E9003577
:1031C0001923C6E90299C6E90437C6E9064403F0A3
:1031D00045FD3297662741F288322CA930462C975C
:1031E000359431943994CDE93344CDE9374403F033
:1031F00087FD002840F0AF80992441F288322CA945
:1032000030462C9403F07CFD002840F0A4804FF45D
:10321000807341F288322CA9304632932C9703F008
:103220006FFD002840F0978041F288322CA930468B
:103230002C9403F065FD0446002840F08C804FF488
:103240007A7001F0EFFE4FF480031EAA2CA923939D
:103250004FF480733046CDF88090329305232C9341
:103260004FF08073359341F28833CDE91E45CDE9A7
:10327000215403F046FE00286DD14FF48073319045
:1032800041F288322CA9329305232C934FF080739E
:10329000CDE93300CDE93650CDE9380030463593DD
:1032A00003F02EFD002856D141F2883215A9304690
:1032B00003F0C7FD00284ED14FF480733590319054
:1032C00041F288323293062339902CA92C93CDE910
:1032D0003300CDE93700304603F012FD00283AD123
:1032E00000232C4621954FF0807522934FF48003E4
:1032F0001EAA2CA9239305233046CDF880902C9349
:1033000041F288333595CDE91E8803F0FAFD10BBF4
:103310004FF48073319041F288322CA932939DF89A
:1033200054302C9443F040033595CDE93300CDE97A
:103330003640CDE9380030468DF8543003F0E0FCDB
:1033400048B941F2883215A9304603F01EFD10B984
:10335000282001F067FE4FF4807341F288322CA9D7
:103360000548329335232C93002307E00068014081
:10337000F0230020400100A024240020CDE93333B5
:10338000359331933993CDE9373303F0B9FCE0B984
:1033900041234FF0400C4FF0010E22901EAA2CA9A1
:1033A000B848CDE91EC31023CDE9203E4FF4800379
:1033B00023934FF44073329305232C934FF04073C3
:1033C000359341F2883303F09CFDB7234FF44074EA
:1033D0001E9300232494279323932B93CDE9253325
:1033E000CDE92933FFF7A0FB18BB41F288321EA9B3
:1033F000A44803F085FCE0B905233190399015AA63
:103400002C934FF0407315902CA9359301233294DF
:103410001693CDE91830102317934FF48003CDE9AC
:103420003300CDE937001A9341F28833954803F011
:1034300068FD05234FF440764FF0407401252C932E
:10344000002341F288322CA98E483296359431936C
:10345000CDE93333CDE93653CDE9383303F050FCB1
:1034600000284FD141F288321EA9864803F0E9FCBA
:10347000002847D11523319041F288322CA9329689
:103480002C933594CDE93300CDE93650CDE93800A1
:103490007C4803F035FCA8BB41F288320DF179017C
:1034A000784803F0CEFC68BBFFF73EFB50BB02231D
:1034B000C02232962C9535943190CDE93300CDE978
:1034C0003630CDE9380092FAA2F203219DF8793026
:1034D000B2FA82F26B4803F03F0301FA02F22CA920
:1034E000134341F288328DF8793003F009FC48B972
:1034F00041F288321EA9634803F047FC10B9282026
:1035000001F090FD05234FF440764FF04074012503
:103510002C93002341F288322CA95A4832963594D4
:103520003193CDE93333CDE93653CDE9383303F068
:10353000E7FB00284BD141F288321EA9514803F025
:1035400080FC002843D11523319041F288322CA908
:1035500032962C933594CDE93300CDE93650CDE940
:103560003800484803F0CCFB88BB41F288320DF1AB
:103570007901444803F065FC48BBFFF7D5FA30BB3E
:103580000223072232962C9535943190CDE93300F1
:10359000CDE93630CDE9380092FAA2F206219DF845
:1035A0007930B2FA82F2374823F0070301FA02F2C7
:1035B0002CA9134341F288328DF8793003F0A0FB37
:1035C00028B941F288321EA92E4803F0DEFB4FF4E1
:1035D000407300241EAA2C4D3293EC232CA92948B9
:1035E0002C934FF44063399433934FF440532F930B
:1035F0004FF04073CDE934430A23CDE9374431938A
:10360000CDE91E4403F0CEFC204B2846C5E900342A
:10361000C5E90244C5E90E44C5E91044C5E91244B0
:1036200001F021FE0121284601F0E0FEFFF702FB38
:10363000FDF703FA1648174B848003600123C0E9A5
:103640000544036201F0AEFDFDF7F9F9FDF7F6F967
:1036500004F0BAFC104A2146104804F0EFFC104B6D
:10366000104A21461860104804F0E8FC0F4B104A3D
:10367000214618600F4804F0E1FC0F4B186004F07D
:10368000BDFC1BE0242400208825002000B002405F
:10369000E025002000300240A81A03081D2B000876
:1036A000EC230020841A03084D0A0008E8230020B8
:1036B000601A03089D2A0008E4230020FEE700BFEB
:1036C0000268034B9A4201D101F09ABC704700BFD7
:1036D00000100040704700000D4B82B00F216FF0CA
:1036E00001001A6C42F080521A641A6C02F0805287
:1036F0000092009A5A6C42F480425A6400225B6C39
:1037000003F480430193019B02B001F0AFBC00BF02
:1037100000380240026882B0084B9A420BD1D3F8BD
:10372000302803F5006342F480521A631B6B03F4E4
:1037300080530193019B02B0704700BF00300240EC
:103740000E4B07B502689A4215D1A3F5F043052147
:103750005A201A6B42F400021A6300221B6B03F416
:1037600000030193019B01F081FC5A2003B05DF836
:1037700004EB01F0ADBC03B05DF804FB00B0024007
:1037800010B588B004461422002103A82BF0E0FBFA
:103790002268154B9A4225D103F54C4303A91348DF
:1037A0005A6C42F000625A645A6C02F00062019254
:1037B000019A1A6B42F400721A6304221B6B03F421
:1037C00000730293029B0223CDE903230D23079389
:1037D00002F06CFA62200022052101F047FC622011
:1037E00001F076FC08B010BD006C014000240240DE
:1037F000F0B5ADB004461422002103A82BF0A8FBBD
:103800009022002108A82BF0A3FB2268254B9A42A6
:1038100046D14FF4003308A8089303F0C3FE08B163
:10382000FFF758FF204C122701260325236B03A91D
:103830001E4843F002032363236B03F0020300934B
:10384000009B236B43F008032363236B03F00803FF
:103850000193019B8023CDE903370B23CDE9056557
:10386000079302F023FA4FF4805303A91048CDE9DF
:1038700003370423CDE90565079302F017FA236C9B
:103880005F200022052143F080732364236C03F042
:1038900080730293029B01F0E9FB5F2001F018FCAA
:1038A0002DB0F0BD0060004000380240000402402E
:1038B000000C0240026808B50B4B9A4212D10B4A29
:1038C00080210B48136C23F08073136402F0D2FA4A
:1038D00008484FF4805102F0CDFA5F20BDE808405F
:1038E00001F004BC08BD00BF006000400038024089
:1038F00000040240000C024010B5A6B0044690221D
:10390000002102A82BF024FB2268144B9A4222D1FA
:103910000823072002934FF4C07307930223CDE9D5
:103920000830012302A80C9303F03CFE08B1FFF716
:10393000D1FE0B4B582003215A6C42F080625A642E
:1039400000225B6C03F080630193019B01F08EFB0E
:10395000582001F0BDFB26B010BD00BF006801403B
:1039600000380240142200212DE9F0418AB00446BB
:103970000DEB02002BF0ECFA22683A4B9A426ED122
:10398000394B0225032409269A694FF0040805A93A
:10399000364842F0020200279A619A6922F0020238
:1039A0009A619A6B42F002029A639A6B02F00202E9
:1039B0000092009A1A6B42F010021A631A6B02F01E
:1039C00010020192019A1A6B42F002021A631A6BFA
:1039D00002F002020292029A1A6B42F004021A6387
:1039E0001A6B02F004020392039A1A6B42F0080267
:1039F0001A631B6B03F008030493049BCDE9058550
:103A0000CDE9084602F052F9402305A91848CDE94E
:103A100005350123CDE907340A23099302F046F95D
:103A20004FF4C06305A913480996CDE90535CDE9E2
:103A3000077402F03BF905A90D480996CDE9058503
:103A4000CDE9077402F032F94FF4005305A90A4892
:103A50000996CDE90535CDE9077402F027F90AB0DA
:103A6000BDE8F081001000A00038024000100240C4
:103A70000004024000080240000C0240F0B50023A0
:103A800087B003932A4B1E68002E4FD101220227D4
:103A900003250C241A6001A9264B27489A6B42F093
:103AA00001029A639B6B03F001030093009B4FF6A6
:103AB0008373CDE90454CDE9013702F0F7F848F2F9
:103AC000331301A91D480594CDE90137CDE90365FC
:103AD00002F0ECF84CF2037301A919480594CDE902
:103AE0000137CDE9036502F0E1F840F2FF6301A977
:103AF00014480594CDE90137CDE9036502F0D6F805
:103B00004FF63F0301A910480594CDE90137CDE9EF
:103B1000036502F0CBF84FF62C7301A90B4805940E
:103B2000CDE90137CDE9036502F0C0F807B0F0BD7B
:103B30000426002000380240001002400018024015
:103B4000000C02400020024000140240001C024011
:103B5000214B1A6C42F0100270B51A6488B01B6CCD
:103B6000054601A903A803F010030293029B03F08A
:103B7000FBFC069B4BBB03F0E7FC184E184B336075
:103B800040F2E733F360174BB0FBF3F3013B3046F1
:103B9000736000233361B360B36104F057F90446E6
:103BA00080B9304604F004F8044658B9362001F0D4
:103BB0008FFA0F2D0DD822462946362001F056FAED
:103BC000094B1D60204608B070BD03F0BDFC4000ED
:103BD000D3E70124F6E700BF0038024008260020A2
:103BE0000010004040420F00400000207047FEE7F8
:103BF000FEE7FEE7FEE77047014804F01BB800BF90
:103C000008260020014802F084BE00BF7024002076
:103C1000014801F060BB00BF88250020014802F088
:103C200031BD00BF18250020014801F0A8BD00BF2C
:103C30006C2500200120704708B52BF03DFA1623B3
:103C400003604FF0FF3008BD08B52BF035FA16239E
:103C50000360FEE770B50D4614460E46731B9C428A
:103C600001DC204670BDAFF3008006F8010BF5E7DC
:103C700070B50D4614460E46731B9C4201DC20466F
:103C800070BD16F8010BAFF30080F5E74FF0FF3081
:103C900070474FF4005300204B607047012070477D
:103CA000002070470A4A116808B5034609B9094956
:103CB00011601068694603448B4206D92BF0FCF969
:103CC0000C2303604FF0FF3008BD1360FCE700BF1A
:103CD00054260020287A0120704710B5044604219C
:103CE0002AF003FB204610BD012908B506D00229A1
:103CF00008D059B900F08EFC006808BD00F08AFCBD
:103D00004068FAE700F086FC8068F6E70020F4E7F8
:103D100000487047E01A03080220704713B50024DA
:103D200051B1036801AA01948DF803409C680DF11C
:103D30000303A04702B010BD0846FBE7C0897047E7
:103D4000008A7047C088704780887047807A00F08A
:103D50007F007047807AC0097047002070470000DC
:103D60009FED010A704700BF0000000070477047D8
:103D700000F598730868496803C370477047704737
:103D80004160704770470000064BC0F84801C0F81A
:103D90004C310023C0F8503100F5A273C0F8403117
:103DA000704700BF493E0008012303727047704707
:103DB000704710B441680346C2689B68541001EB19
:103DC0006200D20748BF0A595DF8044B48BFD35878
:103DD00018470346406830B19A681AB9D86800F0AD
:103DE000010070470120704710B504460C212AF0ED
:103DF0007CFA204610BD10B5044610212AF075FA51
:103E0000204610BD10B504464FF4AE712AF06DFA8D
:103E1000204610BD10B518F073F90368BDE81040D6
:103E2000DB6B184710B50446D0F8400158B1036861
:103E3000DB68984738B1D4F8400103689B6898471D
:103E40000023C4F8403110BD2DE9F14FD0E9556A87
:103E50000746B06803681B6A9847B0F5F87F05D23B
:103E6000444BA321444A45482AF0B6FD70680368D4
:103E70001B6A98470F2803D8414BA4213E4AF2E71A
:103E8000F06803681B6A98470B2803D83D4BA521AF
:103E9000394AE8E7DFF8F49018F032F9043018F006
:103EA0006DF9D9F8000010B10368DB689847D9F8BC
:103EB000000010B103681B689847DFF8D480D8F879
:103EC000000010B103685B699847D7F83C0110B156
:103ED00003685B689847D8F8000010B103681B6856
:103EE0009847D7F83C0110B103689B689847F06881
:103EF00000214FF0000B03685B6A9847224B044691
:103F0000C0F804B080F808B059460360B068036890
:103F10005B6A9847054600F025FC706859460368BF
:103F20005B6A98470646294600F0BAFB331DC7F87E
:103F30003C612846C9F80040C8F80050CAF8003073
:103F40002B68C6F808A0DB68EE63984733683046F4
:103F50001B689847214628461AF00CF9236820462A
:103F60001B699847236820465B6901B0BDE8F04FA4
:103F7000184700BF081B0308961B0308621C0308B0
:103F8000A91C03084C1D0308641E0308306D0120A2
:103F90002C6D0120044B1B6893F858200AB1D86C93
:103FA00000B99868704700BFE86C012070B51646EC
:103FB00004460D4618F0B4F9104B00211C60104B5C
:103FC0002360104BC4E951310F4B1868C4E95311F9
:103FD0000368C4E94F119B68C4E955659847FFF72A
:103FE000D9FF22F09AF8FFF7D5FF22F011F9FFF779
:103FF000D1FF22F019F9204670BD00BF3C6D0120B1
:10400000101E0308F81D0308E86C0120064BC0F8D9
:104010004801C0F84C310023C0F8503100F5A273BC
:10402000C0F84031704700BF493E0008406A704701
:10403000806A704770478B88C069DB0A0A6850F84D
:1040400023001044704710B50446BAB1107B68B124
:10405000537BD27A1B0203F4E0631A43236A03EB17
:1040600082031A888A4202D193F9020010BD05D852
:104070000138043380B20028F3D1F7E70020F5E7D8
:1040800010B504462C212AF030F9204610BD00005E
:1040900030B58BB00446BDF860500895BDF85C5053
:1040A00007959DF8505006959DF84C5005959DF844
:1040B000485004959DF8445003959DF84050029552
:1040C0009DF83C500195BDF83850009519F0ACFCB6
:1040D000064B20462360159BE361169B2362199BC8
:1040E00063621A9BA3620BB030BD00BF881E030839
:1040F0007047704770477047704710B50446983056
:1041000000F07DFC04F5A070BDE8104000F077BC25
:1041100038B5084B0446084D036000F5A0700560F3
:1041200000F0ACF8204640F8985F00F0A7F8204671
:1041300038BD00BFF01E03084822030810B504462E
:10414000FFF7E6FF4FF4F47120462AF0CEF8204640
:1041500010BD036870B504461B6B1546984723686D
:10416000204629465B6BBDE87040184770B5044691
:104170001D46BDF91060FFF7ECFF23682946204675
:104180009B6B9847236831462046DB6BBDE8704047
:1041900018470000094A4FF48071026000228184B0
:1041A000FF21826280F82610C0E90122C0E90322C3
:1041B000C0E90522C0E90722704700BF2047030875
:1041C0002DE9F74F0446002719F028FE284B254615
:1041D00004F16C0A04F19809E76345F8403B28466E
:1041E000FFF7D8FF04F5A07850464FF4F07BFFF7B7
:1041F000D1FF484600F08CFB404600F089FB3A4670
:10420000394628464FF44873CDF800B0FFF7AEFFAB
:10421000261D4FF07F4329463046A36613F040FA2F
:104220003A46394650464FF44873CDF800B0FFF790
:104230009DFF104B51463046C4F8943013F030FACD
:10424000442248464FF48171FFF783FF49463046C8
:1042500013F026FA442240464FF4CC71FFF779FF61
:104260003046414613F01CFA204603B0BDE8F08FFB
:10427000F01E0308F8F4E8FF806A70477047704743
:1042800010B5044684212AF030F8204610BD000005
:10429000002310B5C0E90133C0E90333C0E9073397
:1042A000C0E905334FF4807304468384054B0360F3
:1042B0000B88C384FF2380F8283015F0E2FF2046E6
:1042C00010BD00BF884703084FF480732DE9F34108
:1042D0000446002506468384214B04F158074FF617
:1042E000FF78856201A9ADF80480C0E90155C0E9F5
:1042F0000355C0E90555C0E9075546F82C3B304643
:10430000FFF7C6FF01A93846ADF80480FFF7C0FFEC
:10431000144B0B222946A36030464FF00108FFF7EB
:1043200018FF01A93046ADF8048015F0AAFF314608
:10433000204613F0B5F940F6D63229463846FFF745
:1043400008FF01A93846ADF8048015F09AFF204611
:10435000394613F0A5F9204602B0BDE8F08100BF50
:10436000241F0308860058017047000030B5164D21
:104370008FB02C68BFF35B8F14F0010420D1284666
:1043800029F0B5FFE0B13F23012210490993104BFA
:1043900010480893104B0A940594CDE90643042372
:1043A000CDE903320A23CDE90B440093CDE9014462
:1043B000FFF76EFE09482AF02DFB284629F0A3FFDF
:1043C00004480FB030BD00BF58260020C4A50F9090
:1043D000344E03085C260020404E03086943000861
:1043E0007047000030B5164D8FB02C68BFF35B8F5F
:1043F00014F0010420D1284629F079FFE0B13F23D1
:10440000012210490993104B10480893104B0A944D
:104410000594CDE906430423CDE903321423CDE905
:104420000B440093CDE90144FFF732FE09482AF01E
:10443000F1FA284629F067FF04480FB030BD00BFED
:1044400088260020D4A50F90384E03088C26002023
:10445000444E0308E14300087047000030B5164D94
:104460008FB02C68BFF35B8F14F0010420D1284675
:1044700029F03DFFE0B13F23012210490993104B81
:1044800010480893104B0A940594CDE90643042381
:10449000CDE903322823CDE90B440093CDE9014453
:1044A000FFF7F6FD09482AF0B5FA284629F02BFF58
:1044B00004480FB030BD00BFB8260020E4A50F901F
:1044C0003C4E0308BC260020484E0308594400080F
:1044D00000207047002070470EB403B503AB0021E5
:1044E00053F8042B019318F0A3FD02B05DF804EB20
:1044F00003B070470CB407B504AB53F8042B019319
:1045000018F096FD03B05DF804EB02B070470000B0
:10451000436C10B5044673B3038F2BB9184BC521F8
:10452000184A19482AF058FAC38E00EB43035B8CF3
:104530000BB31AF0B9FB238F012B03D8134BCB21FC
:10454000134AEEE7E28E40F63F10531C9BB2092B54
:10455000194688BFA3F10A0104EB4101498C81424D
:1045600009D10A2B04EB420228BF0023508C04EB34
:104570004303588451842046BDE810401AF096BA8F
:10458000B01F0308B91F030864200308AE20030806
:10459000BC2003081AF053BA38B518BB124B1348A5
:1045A0001C681349B4B12268224402606268224444
:1045B0000A60A26814440F4B00221A8000F02AF807
:1045C000054600F025F80C4B1C600C4B1D600C4B95
:1045D000188007E00B4B03600B4B0B600B4B1C6808
:1045E000002CE8D138BD00BFF4260020EC260020C6
:1045F000E8260020F0260020406D0120486D0120B3
:10460000446D0120F8A50F90F4A50F90FCA50F9024
:104610000020704700487047F826002010B5054C70
:10462000FFF7E0FE2060FFF719FF6060FFF79EFED6
:10463000A06010BDF826002010B5002404600C60B6
:1046400014601C6010BD704710B504464FF4AE7185
:1046500029F04BFE204610BD10B50446D0F8580195
:1046600000F0BFF82046BDE8104017F0E5BD00009F
:1046700010B50446FFF79AFC014B2046236010BD9D
:1046800098210308704704387047704710B50446F6
:10469000102129F02AFE204610BDA0F10400F5E704
:1046A0000022C1608260024A026018324260704794
:1046B000EC21030870470000034B10B5044603606B
:1046C000FFF726FD204610BD1422030810B504464E
:1046D000FFF7F2FF4FF4F871204629F006FE20465E
:1046E00010BD0000D0F8E8310133B3F5487FF7B5CD
:1046F000044603DCC0F8E83103B0F0BD002300F548
:10470000A077C0F8E831384600F072F90546002875
:10471000F2D13846983400F06FF90028294638461F
:104720000CBF96264FF4967600F03DF929462046B8
:10473000B6B200F038F9084B3246384600930721EC
:10474000064B00F033F9064B3246212100932046F8
:10475000024B00F02BF9CFE781E101082DE20108BF
:1047600093E2010810B50446FFF72AFD014B2046ED
:10477000236010BD14220308F7B50446FFF7BDFC03
:10478000134F04F5A07604F19805304600F033F994
:10479000284600F030F930460F2100F004F9284691
:1047A0000F2100F000F90B4B3046962200930721B1
:1047B0003B4600F0FBF8084B962221210093284647
:1047C0003B4600F0F3F80023C4F8E83103B0F0BD35
:1047D0002DE2010881E1010893E201080022026054
:1047E00070477047034B10B504460360FFF746FD62
:1047F000204610BD4822030810B50446FFF7F2FF1B
:10480000A821204629F071FD204610BDD0F888204F
:1048100090F88C100132F8B5044602F00103C0F89C
:10482000882029B1002AB8BF5B42012B02D1F8BD14
:10483000002BFCD094F88E30002BF8D0B4F89030D8
:10484000B4F8920001339BB28342A4F89030EED3C7
:10485000B4F95E20002A0ADAE28EB4F89810114406
:10486000A4F89810B4F89C100A44A4F89C201B1AD1
:10487000B4F89A20D4F8A06000219DB2B4F8963024
:10488000D21A2846B4F8943012B2B047B4F898302F
:10489000B4F89C200646D4F8A4700021D21A284609
:1048A000B4F89430B5B212B2B847B4F8983087B2C1
:1048B00013FA80F0B4F8963013FA86F102B204F1DC
:1048C0002C0009B2FDF7ADFDB4F89820E38E04F199
:1048D00058001344FA18B4F89630E91812B209B225
:1048E000FDF79FFDB4F89230B4F89410B4F890201E
:1048F0000B449A429BD3002384F88E30A4F8903066
:1049000017F0FEFB21460430BDE8F84017F01DBC4F
:1049100010B50446FFF7D8FC094B0122204623605E
:104920000023A4F88C2084F88E30C4F89830A4F8C2
:104930009C30C4E92133C4E92433C4E9283310BDD1
:10494000482203082DE9F0471D4690F88E300446B2
:104950000F461646DDE908982BB917F0D1FB214622
:10496000043017F09BFC0023A4F89A70A4F89C6014
:10497000A4F89030238EA4F89450A4F89630638E57
:10498000A4F89830012384F88E30B4F892302B4389
:10499000C4E9289805D1236820461B6DBDE8F0477F
:1049A0001847BDE8F087A0F89210704773B50C4621
:1049B00090F88E100546C9B904EBC401468E01EB90
:1049C0000111A6EB4101069ECDE9003613460AB25D
:1049D000B0F93010FFF7B6FFD5F884301C440A2335
:1049E00094FBF3F203FB1244C5F8844002B070BD9F
:1049F00090F88E007047704790F88D00704710B5A2
:104A00000446FFF73CFC17F07BFB04302146BDE871
:104A1000104017F043BC70470020704710B50446A3
:104A2000FCF7D7F8A821E0B2FCF7F0F810BD0000C1
:104A300013B500240221C0B28DF80740FCF7E6F858
:104A40008DF807009DF8073003F00F038DF807304D
:104A50009DF80730022B01D98DF807409DF80720FB
:104A6000034B9DF807005A7000229A7002B010BDE7
:104A70000427002073B5154C15460E46A3786278BE
:104A80009A421FD903B3012B0CBF09210021042333
:104A9000C0B20DEB0302FCF7D7F89DF804309DF887
:104AA00005201B0203F4706313439DF80720338035
:104AB0009DF806301B0203F4706313432B80A37828
:104AC0000133A37002B070BD0321E0E7042700208A
:104AD0000122A421C0B2FCF77DB80022A421C0B2FB
:104AE000FCF778B8FFF7F9BF70470000064A137863
:104AF000984208D05178884205D00BB119B90123EA
:104B0000D054FCF766B870470727002038B5044634
:104B10000D460020C949FCF7DFFBC9490320FCF71B
:104B2000DBFBC8490020FCF7D7FBC7490220FCF794
:104B3000D3FBC4490020FCF7CFFBC4490020FCF79D
:104B4000CBFB0A20FCF7C6FBC1490020FCF7C4FBE5
:104B5000C0490020FCF7C0FB0A20FCF7BBFBBE49A4
:104B60000020FCF7B9FBBD490020FCF7B5FBBC49B0
:104B70000020FCF7B1FBBB490020FCF7ADFBBA49B4
:104B80000020FCF7A9FBB9490020FCF7A5FBAB49C5
:104B90000020FCF7A1FBB6490020FCF79DFBB549BE
:104BA0000020FCF799FBB4490020FCF795FBB349C2
:104BB0000020FCF791FBB2490020FCF78DFBB149C6
:104BC0000020FCF789FBA7490020FCF785FB9B49E7
:104BD0000020FCF781FBAC490220FCF77DFBAB49D0
:104BE0000020FCF779FBAA490020FCF775FBA949D6
:104BF0000020FCF771FBA8490020FCF76DFBA749DA
:104C00000020FCF769FBA6490020FCF765FBA549DD
:104C10000020FCF761FBA4490020FCF75DFB9549EF
:104C20000020FCF759FBA1490020FCF755FBA049E7
:104C30000020FCF751FB9F490220FCF74DFB814906
:104C40000020FCF749FB9C490620FCF745FB9B49EB
:104C50000020FCF741FB9A490E20FCF73DFB9949E7
:104C60000020FCF739FB98490E20FCF735FB9749EB
:104C70000020FCF731FB96490A20FCF72DFB9549F3
:104C80000020FCF729FB94490020FCF725FB6D4927
:104C90000020FCF721FB91490A20FCF71DFB9049FD
:104CA0000020FCF719FB8F490F20FCF715FB834907
:104CB0000020FCF711FB8C490F20FCF70DFB81490C
:104CC0000020FCF709FB89490A20FCF705FB7F4916
:104CD0000020FCF701FB86490F20FCF7FDFA7D4917
:104CE0000020FCF7F9FA83490F20FCF7F5FA824916
:104CF0000020FCF7F1FA81490A20FCF7EDFA80491F
:104D00000020FCF7E9FA7F490A20FCF7E5FA4D4953
:104D10000020FCF7E1FA7C490A20FCF7DDFA704933
:104D20000020FCF7D9FA79490F20FCF7D5FA63493E
:104D30000020FCF7D1FA76490F20FCF7CDFA614943
:104D40000020FCF7C9FA73490A20FCF7C5FA5F494D
:104D50000020FCF7C1FA70490F20FCF7BDFA5D494D
:104D60000020FCF7B9FA6D490F20FCF7B5FA4D4960
:104D70000020FCF7B1FA6A490020FCF7ADFA694956
:104D80000020FCF7A9FA68490020FCF7A5FA67495A
:104D90000020FCF7A1FA66490020FCF79DFA27499C
:104DA0000020FCF799FA63490320FCF795FA2349A0
:104DB0000020FCF791FA21490020FCF78DFA5E49AA
:104DC0001020FCF789FA1D490020FCF785FA5B49A1
:104DD0001020FCF781FA00205949FCF77DFA782071
:104DE000FCF778FA002C00F0C980022C03D1554959
:104DF0000020FCF771FA012D0BD153490020FCF77C
:104E00006BFA52490420FCF767FA51490420FCF779
:104E100063FA50490020FCF75FFA4F490020FCF785
:104E20005BFA4E490020FCF757FA4D490020FCF789
:104E300053FA4C490020FCF74FFA95E0362303085B
:104E4000632403083423030860240308322303087F
:104E5000302303082E2303082C2303082A230308E6
:104E600028230308262303082423030822230308F6
:104E7000202303081C2303081A230308182303080C
:104E800016230308142303083B24030812230308F2
:104E9000102303080E2303080C2303080A23030826
:104EA000082303081E23030806230308042303081A
:104EB00002230308382403083124030800230308CD
:104EC00022240308FE22030813240308FC220308FB
:104ED00008240308FA220308DE220308FD2303083E
:104EE000F8220308ED230308DD230308D223030877
:104EF000C2230308B2230308F6220308A7230308EA
:104F0000F42203089C230308912303088123030848
:104F10007123030866230308562303084623030866
:104F2000DC220308DA220308D8220308D622030869
:104F3000D4220308422303084F2403083E24030815
:104F4000F2220308F0220308EC2203083D230308A1
:104F500038230308EA220308E8220308E6220308AC
:104F6000E4220308E222030806490020FCF7B4F912
:104F700005490020FCF7B0F9002038BD0349204660
:104F800037E700BF36230308E0220308EE220308B8
:104F90000F490020D1F8883043F47003C1F88830FD
:104FA0000C4B1A6842F001021A6098601A6822F0ED
:104FB000847222F480321A60074A5A601A6822F416
:104FC00080221A60D8604FF000638B60704700BF8A
:104FD00000ED00E00038024010300024074A0320B2
:104FE00008B5136843F48073136000F02DF80020B7
:104FF000FEF7AEFDFEF770FB002008BD003C02404E
:10500000034A044B11681B780B441360704700BFC0
:105010000C2700203C000020014B1868704700BF9F
:105020000C27002038B50446FFF7F6FF0546631C41
:105030001EBF044B1B78E418FFF7EEFF431BA3428F
:10504000FAD338BD3C00002007490302CA6803F4C4
:10505000E06322F4E0621204120C134343F0BF63D6
:1050600043F40033CB60704700ED00E0164B30B5E1
:10507000DC68C4F30224C4F10703251D042B28BFF8
:105080000423062D4FF0FF358CBF033C002405FAA6
:1050900003F3002805FA04F521EA030322EA0502D6
:1050A00003FA04F343EA02034FEA0313DBB206DB1D
:1050B00000F1604000F5614080F8003330BD00F041
:1050C0000F00024A1354F9E700ED00E014ED00E090
:1050D000002807DB4109012300F01F00024A83403A
:1050E00042F82130704700BF00E100E000280CDBEF
:1050F0004309012200F01F0004492033824041F897
:105100002320BFF34F8FBFF36F8F704700E100E0A4
:10511000BFF35F8F044B5A6A22F480325A62002236
:10512000C3F89420704700BF00ED00E0064B40F04C
:105130000100C3F894005A6A42F480325A62BFF305
:105140004F8FBFF36F8F704700ED00E04378144A34
:10515000C2F89830D2F8A03023F00103C2F8A03092
:105160004368C2F89C30C37A017B1B0643EA017393
:1051700001780B43817A43EAC143417B43EA81438F
:10518000817B43EA4143C17B43EA0143417A43EADD
:105190000123017A43EA4103C2F8A030704700BFFF
:1051A00000ED00E010B5044608B9012010BD437FB2
:1051B00003F0FF0213B90277FEF7ACFA022363771C
:1051C0002379E3B92368134A5A619A6822F01802D6
:1051D0009A6062792368D2B94FF0FF321A610020D9
:1051E0009A68616922F060020A43A1699A609A682C
:1051F00022F080020A439A6001236377D6E7D4E95C
:105200000212204600F008F80028E2D0CDE722691B
:10521000E4E700BFB71DC104CB0710B50DD51F23B0
:10522000013B1DD321FA03F4E407F9D5102A13D06A
:10523000102A04D83AB1082A10D001200BE0182A0D
:10524000FBD1062BF9D800684161836823F018036D
:1052500013438360002010BD072BF3E70F2BF1E70A
:10526000102AE5D1E9E710B5044680B390F8513033
:1052700003F0FF021BB980F85020FEF761FA022309
:10528000616884F8513023681A6822F440320A4376
:10529000A1681A605A6B22F007020A43E1685A6358
:1052A0001A6C22F47F5222F03F020A431A64596BAF
:1052B000D4E9040221F44011520542EA00520020D0
:1052C0000A435A630123606584F8513010BD012000
:1052D000FCE770477047036870B55E6804461D6858
:1052E000F20714D5E90512D51A6822F480721A6003
:1052F000426D42F00102426501229A60042380F867
:105300005130002380F85030C36903B19847B2068A
:1053100016D5AB0414D523681A6822F400521A601B
:1053200020229A60636D43F002036365042384F8CE
:105330005130002384F85030E3690BB12046984780
:10534000300716D5290514D523681A6822F400629F
:105350001A6008229A60636D43F0040363650423B6
:1053600084F85130002384F85030E3690BB12046B3
:10537000984772070BD56B0509D5236820461A6834
:1053800022F480621A6004229A60FFF7A2FFB0073D
:1053900014D5A90512D523681A6822F400721A6080
:1053A00002229A60636D6365012384F85130002303
:1053B00084F85030A3690BB120469847F20613D504
:1053C000EB0411D5236820461A6822F480521A6033
:1053D00010229A60636D6365012384F851300023C5
:1053E00084F85030FFF776FF70BD000070B590F87C
:1053F000503002460220012B31D082F85100182093
:105400000123214E00FB012082F85030036BD0E9CC
:1054100009451B0543EA0543456BC06A2343093C24
:10542000012C43EA455396BF00F07F4043EA0063F6
:1054300003431068A1B9416A012C01EA060143EA5D
:1054400001034362136A836103D8D36A23F07F4365
:1054500083620123002082F8513082F8500070BD31
:10546000C569012C05EA060543EA0503C3614FF04F
:10547000180303FB01210B6A0361EAD8CB6A23F00E
:105480007F430362E5E700BFF0FFCC002DE9F04168
:1054900007460D4614461E46FFF7BEFD80463B6894
:1054A0005A6FD2070AD544EA0624069A002044EA35
:1054B000024444EA8514DC66BDE8F081FFF7ACFDE8
:1054C000A0EB0800B0F57A7FE9D90320F4E7037C6C
:1054D0000246012B5BD003680020C3F8C400C3F868
:1054E000C800C807916107D5D3F8C4006FEA10401F
:1054F0006FEA0040C3F8C400880705D5D3F8C4009C
:1055000040F4F810C3F8C400480705D5D3F8C80024
:1055100040F00100C3F8C800080705D5D3F8C8005B
:1055200040F00200C3F8C800C80605D5D3F8C8008B
:1055300040F00C00C3F8C800880605D5D3F8C800B1
:1055400040F01000C3F8C800480605D5D3F8C800DD
:1055500040F02000C3F8C800080605D5D3F8C800FD
:1055600040F04000C3F8C800C80505D5D3F8C8000E
:1055700040F08000C3F8C800890505D5D3F8C810ED
:1055800041F4F851C3F8C81000201074704702208D
:10559000704700007FB50D460446002800F0EA8001
:1055A000437C0BB9FEF7ECF80323637400230093EC
:1055B0002368D3F8302442F08072C3F83024D3F843
:1055C000303403F080730093009BFFF725FD0646FF
:1055D0002268D2F80C34D9046ED5D2F8303423F4D2
:1055E0005E3323F4FE73C2F83034D2F83014D5E9B8
:1055F0000003DB0243EA8003A86843EA004301207A
:105600000B43C2F8303400230193D2F8303443F016
:105610000103C2F83034D2F8303403F001030193AF
:10562000019BFFF7FFFCFFF7F7FC06462368D3F862
:105630000C24D20548D50022A16802925A6842F093
:1056400001025A605A6802F001020292029A9A68B4
:1056500022F0FF029A609A680A43E1689A60D3F8E0
:10566000A02042F00202C3F8A020D3F8A02042F00C
:105670000402C3F8A020D3F8A42022F00302C3F848
:10568000A420D3F8A4200A43C3F8A420FFF7C4FC45
:1056900023680646D3F8A4309B0725D02368D3F8A7
:1056A000B03003F09403942B25D0FFF7B5FC801B9A
:1056B000B0F57A7FF2D914E0FFF7AEFC801BB0F5AD
:1056C0007A7F85D9032053E0FFF7A6FC801BB0F555
:1056D0007A7FABD9F6E7FFF79FFC801BB0F57A7FA6
:1056E00002D900232374EDE72368D3F8B03003F028
:1056F0001403142BEFD16B6846F2A8111E4A002048
:10570000012B38BF01235A43AB6803F003039A40CF
:105710002B684B43B2FBF3F22368D3F8181421F043
:105720003F01C3F81814D3F818140A436168C3F88A
:105730001824C3F8C400C3F8C80003905A68A061D5
:1057400022F001025A605A6802F001020392039AA1
:10575000D3F8942022F00302C3F89420D3F89420C5
:105760000A4342F00102C3F894200123606163748C
:1057700004B070BD0120FBE700093D0070470368DD
:10578000D3F80C24D10710B5044608D5D3F8082463
:10579000D20704D50122C3F81024FBF763FE236867
:1057A000D3F80C24910709D5D3F80824920705D51E
:1057B00002222046C3F81024FBF784FEA369002BC5
:1057C0004ED02168D1F8BC20D1F8C4301A40D1F8AD
:1057D000C030D1F8C8100B4091B219B1616941F0E5
:1057E0000101616112F4F81F03D0626942F0020204
:1057F0006261D80703D5626942F0040262619907C9
:1058000003D5626942F00802626113F00C0F03D005
:10581000626942F010026261DA0603D5626942F001
:1058200020026261980603D5626942F0400262611B
:10583000590603D5626942F0800262611A0603D5F7
:10584000626942F48072626113F4F85F03D06369A5
:1058500043F400736361636913B12046FFF78EFF61
:1058600010BD027C0346012A0AD00268106B20F0AA
:1058700003001063106B014300201163187470471C
:105880000220704730B5037C0446012B69D00368C1
:1058900008685A6B42F001025A63D3F8002422F0E0
:1058A0000102C3F80024D3F8002442F00102C3F837
:1058B0000024DA6822F00302DA60DA680243DA6070
:1058C0005A6922F007025A615869D1E906522A43FF
:1058D0004D692A43024348685A611A6922F00F024F
:1058E0001A611A6902431A61D3F8002422F00E02E9
:1058F000C3F80024D3F8002442EA40028868C3F8C1
:1059000000245A6E120C12045A665A6E02435A66EA
:10591000D3F8002422F0F002C3F80024D3F80004E6
:10592000D1E903252A434D6A2A430D6A896A2A432D
:1059300002430020C3F800249A6E22F001029A6606
:105940009A6E0A439A66D3F8082442F00102C3F81B
:105950000824D3F8082442F00202C3F80824207473
:1059600030BD0220FCE7000030B5037C0246012B6D
:1059700029D00068154B846E23408366846ED1E97C
:1059800000352B438D682B43CD682B430D692B438A
:105990004D692B438D692B43CD692B430D6A2B43F6
:1059A0004D6A2B438D6A2B43CD6A096B2B432343EE
:1059B0008366836E23F002038366836E0B438366E4
:1059C0000020107430BD0220FCE700BFFF80F0FE15
:1059D000027C0346012A0AD00268D06A20F01F0028
:1059E000D062D06A01430020D1621874704702204F
:1059F000704730B5037C0446012B34D0D1E9000355
:105A0000984238BF18462368D3F8982002F0FC2249
:105A1000C3F89820D3F8982042EA00420243C3F822
:105A20009820D3F89C2002F40042C3F89C20D3F8BD
:105A30009C00D1E90225120642EA05420D69496936
:105A40002A4302430020C3F89C20D3F8A42022F468
:105A50007F42C3F8A420D3F8A42042EA0122C3F86D
:105A6000A420207430BD0220FCE7000030B5037C88
:105A70000446012B5BD0036808689A688D6822F49D
:105A80007F429A609A6842EA002248689A609A6F58
:105A900092B29A679A6F42EA00429A67254A986FD3
:105AA00010409867986F2843CD689867D86F10406A
:105AB000D867D86F28430D69D867D3F880001040A5
:105AC000C3F88000D3F8800028434D69C3F88000F4
:105AD000D3F884001040C3F88400D3F8840028432E
