:020000040800F2
:1000000000900020B94D0008B9310008BB3100084C
:1000100000000000000000000000000000000000E0
:10002000000000000000000000000000BD310008DA
:100030000000000000000000BF310008C1310008CE
:10004000094E0008094E0008094E0008094E000834
:10005000094E0008C9310008094E0008094E000881
:10006000094E0008D3310008DB310008094E0008B2
:10007000094E0008094E0008094E0008094E000804
:10008000094E0008E5310008094E0008094E000835
:10009000094E0008094E0008094E0008094E0008E4
:1000A000094E0008F531000805320008094E000825
:0C00B000094E0008094E0008094E000827
:1000BC0010B5064C2378002B07D1054B002B02D032
:1000CC00044800E000BF0123237010BD8400002011
:1000DC000000000034DB0008044B10B5002B03D0EB
:1000EC000349044800E000BF10BDC04600000000FA
:1000FC008800002034DB000802B47146490849002E
:10010C00095649008E4402BC7047C04602B4714681
:10011C0049084900095C49008E4402BC7047C0463E
:10012C0003B47146490840004900095A49008E44FD
:10013C0003BC7047002243088B4274D303098B42E3
:10014C005FD3030A8B4244D3030B8B4228D3030C9B
:10015C008B420DD3FF22090212BA030C8B4202D33D
:10016C001212090265D0030B8B4219D300E0090A65
:10017C00C30B8B4201D3CB03C01A5241830B8B426E
:10018C0001D38B03C01A5241430B8B4201D34B0357
:10019C00C01A5241030B8B4201D30B03C01A5241BC
:1001AC00C30A8B4201D3CB02C01A5241830A8B4241
:1001BC0001D38B02C01A5241430A8B4201D34B022A
:1001CC00C01A5241030A8B4201D30B02C01A52418E
:1001DC00CDD2C3098B4201D3CB01C01A5241830942
:1001EC008B4201D38B01C01A524143098B4201D37C
:1001FC004B01C01A524103098B4201D30B01C01AA7
:10020C005241C3088B4201D3CB00C01A5241830820
:10021C008B4201D38B00C01A524143088B4201D34D
:10022C004B00C01A5241411A00D2014652411046AD
:10023C007047FFE701B5002000F0F0F802BDC046A2
:10024C000029F7D076E7704703460B437FD4002292
:10025C0043088B4274D303098B425FD3030A8B424E
:10026C0044D3030B8B4228D3030C8B420DD3FF22B8
:10027C00090212BA030C8B4202D31212090265D086
:10028C00030B8B4219D300E0090AC30B8B4201D339
:10029C00CB03C01A5241830B8B4201D38B03C01A80
:1002AC005241430B8B4201D34B03C01A5241030BF7
:1002BC008B4201D30B03C01A5241C30A8B4201D3A8
:1002CC00CB02C01A5241830A8B4201D38B02C01A53
:1002DC005241430A8B4201D34B02C01A5241030ACA
:1002EC008B4201D30B02C01A5241CDD2C3098B42AF
:1002FC0001D3CB01C01A524183098B4201D38B012C
:10030C00C01A524143098B4201D34B01C01A5241CE
:10031C0003098B4201D30B01C01A5241C3088B4213
:10032C0001D3CB00C01A524183088B4201D38B00FE
:10033C00C01A524143088B4201D34B00C01A5241A0
:10034C00411A00D201465241104670475DE0CA0F77
:10035C0000D04942031000D34042534000229C4637
:10036C0003098B422DD3030A8B4212D3FC22890141
:10037C0012BA030A8B420CD3890192118B4208D317
:10038C00890192118B4204D389013AD0921100E079
:10039C008909C3098B4201D3CB01C01A524183098D
:1003AC008B4201D38B01C01A524143098B4201D3BA
:1003BC004B01C01A524103098B4201D30B01C01AE5
:1003CC005241C3088B4201D3CB00C01A524183085F
:1003DC008B4201D38B00C01A5241D9D243088B42B5
:1003EC0001D34B00C01A5241411A00D20146634658
:1003FC0052415B10104601D34042002B00D54942BC
:10040C00704763465B1000D3404201B5002000F0FA
:10041C0005F802BD0029F8D016E770477047C046B2
:10042C008446081C6146FFE71FB500F055FB002809
:10043C0001D40021C8421FBD10B500F0D7FA4042CC
:10044C00013010BD10B500F047FB002801DB002087
:10045C0010BD012010BDC04610B500F03DFB0028BA
:10046C0001DD002010BD012010BDC04610B500F00C
:10047C00E5FA002801DC002010BD012010BDC046AB
:10048C0010B500F0DBFA002801DA002010BD0120C5
:10049C0010BDC046F8B54746CE4643025B0A440041
:1004AC00C20F9C464800DD004B02240E5B0A000E76
:1004BC0080B5984626009146C90FDB00271A8A4260
:1004CC0029D0002F15DD00284AD1002B00D095E053
:1004DC00ED08FF2C00D188E06B025B0AE6B25B02F0
:1004EC00F605580A3043D20710430CBC9046994687
:1004FC00F8BD002F00D087E0601CC0B2012800DCE2
:10050C00B6E0EE1A720100D5C5E0002E3DD10022F6
:10051C0000260023E3E7002F00DC96E000285DD0E6
:10052C00FF2C60D08022D20413431B2F00DDECE0A3
:10053C002022D21B18009340F8405A1E93410343CB
:10054C00ED186B017BD50134FF2C00D1B7E00122F3
:10055C0007262A406B089A4D1D4015432E4029E072
:10056C00FF2CB5D08022D20413431B2F00DDB2E048
:10057C002022D21B19009340F9405A1E93410B4381
:10058C00ED1A6B015BD5AD01AE09300000F094FEA5
:10059C0005388640844265DC041B3300202001347E
:1005AC00E340041BA640751EAE41334307261D00D5
:1005BC0000241E4001224B461A40002E04D00F236B
:1005CC002B40042B00D004356B0100D480E70134A0
:1005DC00E6B2FF2C2FD1FF26002380E7002B52D14F
:1005EC00FF2C00D074E70A00ED08002DF3D0802317
:1005FC00DB032B435B025B0AFF2670E7013F002FF6
:10060C00BED0FF2CB1D163E7002C47D0FF2869D0B6
:10061C008024E4047A4225431B2A00DDC5E02C002B
:10062C002026D440B21A95406A1E954125435D1B85
:10063C0004008946A5E7AB015B0A50E700240122C0
:10064C004B461A406B07BAD142E7002F3BD101341D
:10065C00E0B201284ADDFF2CBDD00726ED186D084D
:10066C002E40A7E70723574D241A35401E40A1E71B
:10067C00002C1BD1002D6ED1002B00D19AE00A006A
:10068C001D003C0024E7013F002F00D158E7FF2C50
:10069C0000D04AE7A7E75E1B894676E7002D1CD100
:1006AC000A00FF281FD004001D0011E7002D5DD1AA
:1006BC00002B17D180230022DB03FF260FE70A0053
:1006CC00FF2600230BE7002C21D1002D66D1FF283B
:1006DC00E9D11D0087E7012352E77A1CA7D0FA4322
:1006EC00FF2899D10A001D00FF24F1E6002E21D12C
:1006FC00002D4FD0002B4CD0ED186B019ED5314BFB
:10070C0007362E4001241D4054E7012318E7FF282B
:10071C00DFD08024E4047F4225431B2F4DDC2026B0
:10072C00F61B2C00B540FC406A1E95412543ED1884
:10073C00040006E7002DCCD0002B00D153E780211C
:10074C006046C903084203D04046084200D11D0050
:10075C000121114047E7002B00D1B9E6EA1A5001FC
:10076C0025D507265D1B2E40894623E7FF24002B49
:10077C0000D1ADE680226046D203104204D0404640
:10078C00104201D11D00894601224B46FF241A401C
:10079C009EE62B00DD080A0000249DE67A1CC6D0DC
:1007AC00FF43FF28B9D11D001DE701253FE7151EAA
:1007BC0000D044E70022002391E60125B7E7C046AC
:1007CC00FFFFFF7DFFFFFFFBF8B557464E46454642
:1007DC00DE464402E0B546008846640A360EC70F72
:1007EC00002E63D0FF2E24D08023E400DB041C43B6
:1007FC00002399469B467F3E434642465D02D20FFC
:10080C005B006D0A1B0E9046924665D0FF2B55D0AF
:10081C0080220021ED00D2047F3B1543F61A43469B
:10082C004A467B400F2A00D98DE06D4892008258D1
:10083C009746002C54D108239946063BFF269B462D
:10084C00DAE70025534602291BD0032900D1BFE06B
:10085C00012928D030007F30002820DD6A0704D021
:10086C000F222A40042A00D004352A0103D5300077
:10087C005C4A80301540FE2803DCAC01640AC2B22D
:10088C0001E0FF2200246402D205600ADB0710435A
:10089C0018433CBC90469946A246AB46F8BD012293
:1008AC00101A1B287CDD00220024ECE7002C1DD143
:1008BC0004239946033B00269B469DE7FF3E002DF3
:1008CC0020D1022143464A467B400A430F2AD8D8FE
:1008DC004548920082589746002D19D10121F1E725
:1008EC000C239946093BFF269B4685E7200000F028
:1008FC00E3FC7626431F9C4000237642361A994629
:10090C009B4679E74A4603231A439146032186E71F
:10091C00280000F0D1FC431F36189D40763600218C
:10092C007DE780240023E403FF22ACE7002580232D
:10093C00DB031C4228D01D4226D12B435C02640AE7
:10094C004346FF229FE762016C01A24224D21B2185
:10095C000025013E012710006D005200002801DB2C
:10096C00944201D8121B3D4301390029F3D11400E4
:10097C00621E944125436DE7BA46594625005346FD
:10098C00022900D061E77CE78023DB031C4364026F
:10099C00640A3B00FF2276E7121B1A210125D9E7D6
:1009AC009E362A00B5402C00C240651EAC41144353
:1009BC00620704D00F222240042A00D004346201C2
:1009CC0003D4A401640A00225DE7012200245AE743
:1009DC008024E4032C436402640AFF2253E7C046DC
:1009EC008CDB0008FFFFFFF7CCDB000870B5420082
:1009FC004E024C0045026D0A120EC30F760A240EED
:100A0C00C90FFF2A0FD0FF2C11D00120A24200D019
:100A1C0070BDB542FCD18B420DD0002AF8D1280014
:100A2C00451EA841F4E70120002DF1D1EBE7012090
:100A3C00002EEDD1E9E70020EAE7C04670B54A0088
:100A4C004E02450244006D0A240EC30F760A120EA4
:100A5C00C90FFF2C15D0FF2A0ED0002C15D1002A5F
:100A6C0001D1002E1CD0002D14D08B4227D0022097
:100A7C00013B1840013870BD002EEED002204042E0
:100A8C00F9E7002DFAD1FF2A0ED0002A0ED1002E44
:100A9C00EDD00BE001230139994308000130EAE75E
:100AAC000020002DE7D0E2E7002EE7D18B42DED10B
:100ABC00944205DD0221581E08400138DBE7002472
:100ACC00A24204DCB542D2D80020B542D3D2581E83
:100ADC00012398430130CEE730B5420044024D0269
:100AEC00C30F4800640A120E6D0A000EC90FFF2ACC
:100AFC0012D0FF280CD0002A12D1002819D1002DB9
:100B0C0017D1002C2BD00220013B1840013826E0D5
:100B1C00002DF0D0022022E0002CFBD1FF281FD0AA
:100B2C0000281FD1002D1DD10220013B1840013897
:100B3C0015E0002C0ED08B42E5D10022904204DC53
:100B4C00AC42E0D80020AC4209D2581E0123984395
:100B5C00013004E00123013999430800013030BD14
:100B6C00002DD7D18B42CED18242E7DD0221581E17
:100B7C0008400138F3E7C046F0B54E4657464546A7
:100B8C00DE46E0B543025B0A450083B00F1C994674
:100B9C002D0EC60F002D57D0FF2D24D08020DB004A
:100BAC00C0041843002381469A469B467F3D7C0235
:100BBC007A00FB0F640A120E984623D0FF2A4BD002
:100BCC00E30080240020E4047F3A1C43AD186B1C26
:100BDC0047460193534677403A000F2B48D87D493E
:100BEC009B00CB589F46002B00D085E008339A46DB
:100BFC00063B9B467C027A00FB0FFF25640A120E13
:100C0C009846DBD1002C00D090E0524601231A43C9
:100C1C0092460120DBE74C4658461700022824D0A8
:100C2C00032800D1CFE00022002301284DD1580227
:100C3C00D205400AFF071043384303B03CBC904632
:100C4C009946A246AB46F0BD002B5BD104239A46D5
:100C5C00033B00259B46AAE7FF35002C60D152468A
:100C6C0002231A4392460220B1E7FF220023DEE75B
:100C7C004B461B0C9C464B462604360C180461460E
:100C8C003300220C6446000C43434E435043544300
:100C9C0080191A0C1218964203D9802149028C46ED
:100CAC0064441B041B0C1004C01883015E1EB3416A
:100CBC00800E1843130C1B199B0103431C002301CA
:100CCC0079D5012362081C401443019A7F32002A13
:100CDC004DDD630704D00F232340042B00D00434D4
:100CEC00230103D53C4B019A1C408032FE2ABCDC0C
:100CFC00A3015B0AD2B29AE70C239A46093BFF2563
:100D0C009B4654E7180000F0D7FA4A46431F762555
:100D1C009A4000236D4291462D1A9A469B4646E70F
:100D2C00524603231A439246032050E7200000F05A
:100D3C00C3FA431F2D1A9C40763D002047E78023C1
:100D4C000027DB03FF2272E7424666E74C4632007F
:100D5C00584662E780234A46DB031A4222D01C42E3
:100D6C0020D123435B025B0A4746FF225FE7012346
:100D7C009A1A1B2A21DC23000199D3409E318C4006
:100D8C001A0023005C1EA34113435A0704D00F2200
:100D9C001A40042A00D004335A0111D49B015B0A77
:100DAC00002244E780234A46DB0313435B025B0AC1
:100DBC003700FF223BE7019587E70022002336E747
:100DCC000122002333E78023DB0323435B025B0A0E
:100DDC00FF222CE70CDC0008FFFFFFF7F8B54746B5
:100DEC00CE464400C20F80B547024802400A8446F2
:100DFC00664648007F0A240EF60025009046FB004C
:100E0C00000EC90FB146FF2800D185E001267140C4
:100E1C00261A914257D0002E43DD002800D07FE0E7
:100E2C004946002900D1AAE0013E002E00D0F7E08F
:100E3C005B1A5A0100D48BE09B019C09200000F046
:100E4C003BFA05388440854200DDD3E0451B230086
:100E5C0020200135EB40451BAC40621E94412343DE
:100E6C00072400251C40012241460A40002C04D0D6
:100E7C000F211940042900D00433590100D480E01B
:100E8C000135ECB2FF2D00D0A3E0FF2400235B0260
:100E9C00E405580AD207204310430CBC90469946EF
:100EAC00F8BD002E74D1601CC0B2012800DCA7E094
:100EBC004A469C1A620100D5B6E0002CBED1002235
:100ECC0000240023E3E7002E00DC85E0002846D058
:100EDC00FF2C49D080224846D2041043814601227F
:100EEC001B2E09DC20204C46801B84404A462000E7
:100EFC00F240441EA04102439B185A0128D50135EB
:100F0C00FF2D00D1A8E00122072494491A405B0868
:100F1C000B4013431C40A6E7002E00D078E775E782
:100F2C00FF2C54D080224946D20411438946012219
:100F3C001B2E09DC20214846891B88404A460100AB
:100F4C00F240481E81410A439B1A5A0100D573E7AF
:100F5C00012241460A40590700D089E711E0484672
:100F6C00002858D1FF2C0CD1DB08002B00D18CE7CA
:100F7C008020C00303435B025B0AFF2487E7FF2C3E
:100F8C0025D0DB08FF2DF0D05B025B0AECB27EE7CC
:100F9C00002C4DD0FF2818D08024E4047242234347
:100FAC001B2A00DDC4E01C002025D440AA1A934063
:100FBC005A1E934123434A460500D31A884638E704
:100FCC00721CF8D0F243FF28EAD10A004B46FF25E9
:100FDC00D7E79B015B0A5AE7002E41D1651CE9B2A9
:100FEC00012945DDFF2D00D14FE707244B445B0859
:100FFC001C4038E707225A4B2D1A2340144032E785
:10100C00002C1DD1002B7AD14B46002B00D191E046
:10101C000A000025B5E7013E002E19D14B446CE7C0
:10102C00FF2C84D1FF25ACE74A468846D41A05E745
:10103C00002BC5D10A00FF28C8D005004B46A0E7FD
:10104C00002B49D14B46002B77D00A00FF2598E79F
:10105C00FF2C00D043E787E70A00FF24002316E7A4
:10106C00002C15D1002B57D1FF28E6D14B467BE73E
:10107C00002C20D1002B57D04946002953D04B448B
:10108C005A0168D50724364A1C4001251340EAE66C
:10109C00FF28EBD08022D204764213431B2E53DC64
:1010AC002025AD1B1A00AB40F2405C1EA34113433C
:1010BC004B44050021E7002BD8D04946002900D12C
:1010CC0052E78021C9030F4200D14DE76046084228
:1010DC0000D049E74B4647E74846FF25002800D19A
:1010EC004FE78022D203174204D06046104201D150
:1010FC004B46884601224146FF250A4041E74846B7
:10110C0000281FD01A1A500120D54A460724D31A9A
:10111C001C4088460025A6E6741CC9D0F643FF285F
:10112C00BCD14B4620E799464B460025DB082BE704
:10113C00012340E700220023A9E680230022DB03E1
:10114C00FF24A4E600251CE70123B1E7002AF1D017
:10115C0013000025FCE60025FAE6C046FFFFFF7DE4
:10116C00FFFFFFFB41024200C30F490A120E002091
:10117C007E2A0DD99D2A0CD8802000040143952A83
:10118C000ADC9620821AD1404842002B00D108007C
:10119C007047034A9818FBE7963A9140F4E7C0462B
:1011AC00FFFFFF7F70B500283DD0C317C5185D4009
:1011BC00C40F280000F080F89E22121A962A07DC31
:1011CC00D2B2082833DD083885406802400A23E093
:1011DC00992A0BDD052329001B1AD94003001B3368
:1011EC009D402B005D1EAB4119430D00052801DD10
:1011FC00431F9D402B000F490B406E0709D00F2653
:10120C003540042D05D004335D0102D59F220B40DF
:10121C00121A9B01580AD2B24002D205400AE407C6
:10122C001043204370BD002400220020F4E7680224
:10123C00400AF1E7FFFFFFFB70B5041E34D000F04D
:10124C003BF89E22121A962A07DCD2B208282EDD11
:10125C00083884406002400A21E0992A09DD030025
:10126C0021001B3399404B1E994105231B1ADC406E
:10127C000C43052801DD431F9C4023000D490B4006
:10128C00650709D00F252C40042C05D004335C01D4
:10129C0002D59F220B40121A9B01580AD2B240026F
:1012AC00D205400A104370BD00220020F7E760020F
:1012BC00400AF4E7FFFFFFFB1C2101231B049842AB
:1012CC0001D3000C10391B0A984201D3000A0839CB
:1012DC001B09984201D30009043902A2105C401882
:1012EC007047C04604030202010101010000000026
:1012FC000000000010B5831DDB7F002B02D00368BB
:10130C005B69984710BD81807047C180704701812F
:10131C007047418170477047704770477047C3886A
:10132C0010B5D21A838812B2C91A036809B25B6D60
:10133C00984710BD806A704710B50400024B0360DB
:10134C0000F03BFA200010BD54DC000810B504007E
:10135C00FFF7F2FF2000A8210BF09EFB200010BD30
:10136C000200F0B58832136885B001331360043283
:10137C0012780400002A0BD0434A134004D50222F1
:10138C00013B524213430133012B03D105B0F0BD95
:10139C00DB07FBD523008E331B78002BF6D0230004
:1013AC0090331D8859880135ADB21D808D42EDD327
:1013BC003222A35E002B0CDA23002000623398301B
:1013CC001B8802889A18028022009C3210881B18F5
:1013DC00138023006D1A220021009433019396315F
:1013EC009A321B88128802910988ADB2521A2100D8
:1013FC00A0310E6812B200212800B047220026004E
:10140C00039098369C3231881288019B521A210025
:10141C00A4310F681B8812B200212800B8476B4614
:10142C0087B220009D89029B32881988BA186918E6
:10143C0012B209B25830FFF772FF230062331A88D8
:10144C003088029B121820001988BA18691812B239
:10145C0009B22C30FFF763FF23002200019892336E
:10146C0090321B88008811881B18994200D28DE796
:10147C00210000238E310B70138006F085F92100BA
:10148C00043006F0A6F981E70100008010B50400D5
:10149C0000F0C0F90A4B220023600023012108321E
:1014AC00D36780321360117153719371083220002D
:1014BC0013605360936093811361536110BDC046F8
:1014CC0054DC0008F7B5060001928E361D00337807
:1014DC0004000F00002B05D106F056F92100043052
:1014EC0006F036FA2300002290331A80343B1A8817
:1014FC005A8702331A889F875A87019A36331A8182
:10150C00089A1D80DA60099A1A610123337023004E
:10151C0092331B88002B05D1002D03D123682000AA
:10152C001B6D9847F7BD92300180704773B516005C
:10153C0002008E32127804000D00002A19D102002C
:10154C009920404248435E32118809180AB22100A2
:10155C005C310020095E0698009301903300200056
:10156C000834FFF7AFFFE36F0A21E818FEF752FFCC
:10157C00E16773BD8E300078704770478D3000780E
:10158C00704710B5040000F019F906F0FDF82100C1
:10159C00043006F0DDF910BD704704387047704711
:1015AC0010B5040010210BF077FA200010BD08B420
:1015BC00024B9C46043808BC6047C046AD15000879
:1015CC0000238360034BC1601A0020330832026091
:1015DC0043607047E0DC00087047704770470000BC
:1015EC0010B50400034B0833036000F077F92000BA
:1015FC0010BDC04608DD000810B50400FFF7F0FF71
:10160C00F821200049000BF047FA200010BD000023
:10161C00F7B5F422C8215200835804000133890025
:10162C008B4201DC8350F7BD060000234136FF36A8
:10163C0083503000FFF79EFF0028F4D13000FFF7F5
:10164C009DFF962500281BD1300098340021FFF710
:10165C006AFF20000021FFF766FF0A4F0A4BADB26C
:10166C0000932A003B0030001121FFF75FFF074B6E
:10167C002A0000930B213B002000FFF757FFD2E715
:10168C006D00E1E7D1920008E99100085F93000832
:10169C0010B5040000F07AF9024B200008332360E7
:1016AC0010BDC04608DD0008F7B504002600250073
:1016BC004136FF3600F007F998353000FFF75DFF33
:1016CC002800FFF75AFF30000F21FFF72CFF2800EE
:1016DC000F21FFF728FF0B4F0B4B30000093962286
:1016EC003B000721FFF722FF084B280000939622AE
:1016FC003B002121FFF71AFFF42300225B00E2508C
:10170C00F7BDC046D1920008E99100085F9300082C
:10171C000023036070477047704710B53130FF30BD
:10172C0008220BF03DFA10BD704710B500F0FCF923
:10173C0010BDAE2110B5040049000BF0ADF920002E
:10174C0010BD030010B50400FC33D86DFFF7E3FFA8
:10175C00200006F0C5F810BD10B5FC300400406C3C
:10176C0000280AD00368DB689847002805D0606C15
:10177C0003689B6898470023636410BD10B5040090
:10178C0000F0A6F9014B2000236010BD44DD0008D9
:10179C0000207047704701235B428381036213680A
:1017AC00C36110607047821DD27F002A04D0421D95
:1017BC00D27F002A00D0186070477047704710B570
:1017CC00040084210BF068F9200010BD0023421D99
:1017DC0010B58380C380038143818381C3810382DD
:1017EC00438243618361C36103844384D3770122C1
:1017FC00831DDA77064B040003600B88FE32C3842A
:10180C00030028331A7004F009FE200010BDC046F6
:10181C0070F00008F0B500250122431D8580C580BD
:10182C00058145818581C58105824582456185613A
:10183C00C56105844584DD77831DDA771D4B070070
:10184C0003600123040085B003AE2C3785625B4234
:10185C00310038003380FFF7B9FF220001235832E2
:10186C0010005B42310001923380FFF7AFFF124B47
:10187C002900A3603800FFF746FD38000F49FFF739
:10188C0044FD31003800358004F0C8FD39002000DB
:10189C0003F0F3FAC0231B03E36531000198358094
:1018AC0004F0BCFD2000019903F0E7FA200005B01C
:1018BC00F0BDC04698DD00084300AC00EB0500000D
:1018CC0070477047704710B504009830FFF759FE09
:1018DC0020004130FF30FFF754FE10BD094B70B5AE
:1018EC0008330360A0230400074D5B00C550C018EB
:1018FC00FFF763FF200098300560FFF75EFF2000C4
:10190C0070BDC04624DE000854DC000810B504008D
:10191C00FFF7E4FFF421200049000BF0BDF8200094
:10192C0010BD70B50400150003681B6B9847236845
:10193C0029005B6B2000984770BD70B50400150042
:10194C0003689B6B984723682900DB6B2000984742
:10195C0070BD000000230121421D8380C3800381E0
:10196C0043818381C3810382438243618361C36169
:10197C0003844384D377821DD177034AFE310260FE
:10198C00C21DD1778362704708F00008F0B50400DF
:10199C002700002585B007F07DFA2B4B4037083324
:1019AC002360E5633800FFF7D5FF23006C33180084
:1019BC000193FFF7CFFF2300983318000293FFF732
:1019CC0065FD23004133FF3318000393FFF75EFDE1
:1019DC002A0029003800FFF7A4FFA022380052008B
:1019EC00F021FFF7AAFFFF23261D1B06A366390073
:1019FC00300003F042FA2A0029000198FFF791FF0A
:101A0C00A02201985200F021FFF797FF23000F4A04
:101A1C0094331A600199300003F02FFA4A2202988D
:101A2C003321FFF77EFF0299300003F026FA4A2299
:101A3C0003987D21FFF775FF3000039903F01DFA21
:101A4C00200005B0F0BDC04624DE0008F8F4E8FF25
:101A5C0070477047704741607047704701230372AD
:101A6C00704770477047030010B5C2685968501032
:101A7C0008189B68D20701D50268D358984710BD47
:101A8C004368002B05D082680123002A01D1C2686B
:101A9C0013401800704710B504000C210AF0FCFF2D
:101AAC00200010BDAE2110B5040049000AF0F4FF6F
:101ABC00200010BD10B5040010210AF0EDFF20002D
:101ACC0010BD10B505F060FE0368DB6B984710BDC8
:101ADC0070B504000D00160005F07AFF22000023FB
:101AEC000D49FC320C600D49136453642160A22132
:101AFC000B484900605021004531FF314B608B6031
:101B0C00CB60084B96651868D565036801219B6806
:101B1C009847200070BDC0469426002078DE00084F
:101B2C0060DE00084826002003004533FF33044ADA
:101B3C005860FC3002650022436442657047C04621
:101B4C00951C0008F7B500909068019303680F008E
:101B5C001B6A14009847F023FF33984205D8A32141
:101B6C00434B444A44480AF0A7FF606803681B6A69
:101B7C0098470F2803D8414B3E4AA421F2E7E0686E
:101B8C0003681B6A98470B2803D83D4B394AA5219B
:101B9C00E8E705F0F9FD043005F037FE019B186805
:101BAC00002802D00368DB689847019B186800285E
:101BBC0002D003681B689847009B1868002802D065
:101BCC0003685B6998473868002802D003685B6833
:101BDC009847009B1868002802D003681B68984738
:101BEC003868002802D003689B689847E068002199
:101BFC0003685B6A9847051E04D000234360037298
:101C0C00204B0360A068002103685B6A9847061E9E
:101C1C0001D0FFF73DFD6068002103685B6A9847BF
:101C2C00041E02D03100FFF7CBFC019B1D60009B12
:101C3C003C601E60231E00D0231D089A30001360E8
:101C4C00A2603368F463DB689847236820001B6844
:101C5C0098472900300007F0B8FA2B6828001B6958
:101C6C0098472B6828005B6998472000FEBDC0464A
:101C7C00E8DE0008FDE0000876DF0008B7DF0008AA
:101C8C005AE00008CCDE000807B502000100FC3267
:101C9C00D36D3D310093FF31024B926D0248FFF73B
:101CAC0051FF07BD8826002084260020002213B592
:101CBC000B00914208D06B4603331A7001920268F4
:101CCC00946801AAA0470300180016BDC08970478C
:101CDC00008A7047C088704780887047807A4006B9
:101CEC00400E7047807AC009704700207047002072
:101CFC007047806A7047C06A704710B58B88026A5B
:101D0C00DB0A48880C889B009B5800042043181859
:101D1C0010BD30B5131E13D00023157B9D420FD080
:101D2C00E023547BDB00D27A24021C401443426A29
:101D3C00A4001219ABB21088884203D10223D356E7
:101D4C00180030BD884205D8013B9BB20432002BF1
:101D5C00F1D1F5E70023F3E7704710B5040030210B
:101D6C000AF09AFE200010BDF0B587B0009212AABE
:101D7C0012780CAC039213AA12782488049216AA37
:101D8C0012880194059217AA12880DAC94462688E5
:101D9C000EAC2478019A02948280029AC680027258
:101DAC00039A7F26C272049A0FAC0273059A2478A8
:101DBC00C281624610AD2F784472847A11AD2D78B1
:101DCC003740B4433C43ED0134402C4384720282CF
:101DDC00084C0383009B0834C361149B04600362AA
:101DEC00159B41614362189B8362199BC36207B0C8
:101DFC00F0BDC046FCE1000870B5C469038B2088B7
:101E0C00013B081A2FD498420ADD5A00105B401A85
:101E1C00181A834227DB002802DAD80FC0184010AA
:101E2C0000229A421FDC4500665B8E421DD00ED903
:101E3C00431E9A4217DC6519023D2888401A181A6D
:101E4C00834210DB8242ECDD98184010E9E7421C1B
:101E5C00934208DB65196888081A8018824202DCF4
:101E6C008342DEDAF0E70120404270BDF7B5050091
:101E7C0016000193FFF7C0FF00240100431C18D08B
:101E8C000D4B1868041E14D00E2359436A690B4C71
:101E9C0051180268D7682200B8472B682100DB6D07
:101EAC002800984730602B682800DB6B9847019B13
:101EBC0018702000FEBDC0464C010020A000002080
:101ECC007047000070B50124124E8EB03368124D6D
:101EDC0023401CD13F21114A0A9111490D930991BC
:101EEC00111D089104210C930B93079306930393F4
:101EFC0002930A330491019300930594230009493A
:101F0C002800FFF731FF084834600AF0F3FD280081
:101F1C000EB070BDB0000020B4000020CCF2000860
:101F2C00D4F200083C220390CD1E0008704700003C
:101F3C0070B50124124E8EB03368124D23401CD163
:101F4C003F21114A0A9111490D930991111D0891D4
:101F5C0004210C930B93079306930393029328335A
:101F6C000491019300930594230009492800FFF77D
:101F7C00FBFE084834600AF0BDFD28000EB070BDB1
:101F8C00E4000020E8000020DCF20008C8F20008A1
:101F9C0064220390391F00087047000070B50124BB
:101FAC00124E8EB03368124D23401CD13F21114A82
:101FBC000A9111490D930991111D089104210C935B
:101FCC000B93079306930393029314330491019399
:101FDC0000930594230009492800FFF7C5FE084823
:101FEC0034600AF087FD28000EB070BD1801002087
:101FFC001C010020E4F20008D8F2000874220390BF
:10200C00A51F0008704710B5040004210AF044FD18
:10201C00200010BD10B5012909D0002903D00229D8
:10202C0009D0002002E000F013F8006810BD00F0A9
:10203C000FF84068FAE700F00BF88068F6E700004C
:10204C000048704778E20008012070470020704774
:10205C00004870475001002010B5FFF79FFF044C5B
:10206C002060FFF765FF6060FFF72CFFA06010BDDC
:10207C00500100200EB403B503AB04CB0021019337
:10208C0006F0BCFB02B008BC03B018470CB407B593
:10209C0004AB04CB019306F0B1FB03B008BC02B057
:1020AC001847000070B5436C0500002B2DD00400C0
:1020BC002234E38A002B05D1C521164B164A17484A
:1020CC000AF0FAFCA38A5B001B5B002B1DD007F007
:1020DC0089FEE38A012B03D8114B124ACB21EEE780
:1020EC00A28A531C9BB21900092B00D90A3949004A
:1020FC00605A0D49884208D15200AA18508C092BFD
:10210C0000D900235B00E0525184280007F05FFDEA
:10211C0070BDC0468CE20008B9E3000895E20008E7
:10212C00D9E20008E7E200083F09000010B507F00B
:10213C0015FD10BD70B500281DD1134B13481C683C
:10214C001349002C18D02368E21863680260E21867
:10215C00A3680A60E418002C0DD000220D4B1A80E5
:10216C00FFF776FF0500FFF771FF0B4B1C600B4B65
:10217C001D600B4B188070BD0A4B03600A4B0B6043
:10218C000A4B1C68E7E7C0465C0100206001002098
:10219C00640100206801002098260020A026002061
:1021AC009C260020F8F20008ECF20008F4F200087B
:1021BC007047002303717047704710B50400082165
:1021CC000AF06AFC200010BD10B52F4B2F4A1B687B
:1021DC00127834331B78002A09D0002B09D18021C6
:1021EC002B4802F069FA00282BD1352010BD012BA9
:1021FC00F5D08021264802F05FFA0028F5D00121A5
:10220C00244802F059FA002832D00221214802F069
:10221C0053FA002834D080211E48490102F04CFAB0
:10222C0000281CD010211B4802F046FA00280ED0C2
:10223C0080211748890102F03FFA002822D00020A3
:10224C00D4E70121134802F037FA002801D13420D9
:10225C00CCE702210F4802F02FFA002801D13620DA
:10226C00C4E780210B48490102F026FA002801D16D
:10227C003820BBE71021074802F01EFA0028D7D1FE
:10228C003220B3E73020B1E748260020402600205A
:10229C00000800500004005070B504000D00FFF75A
:1022AC0093FF2379834201D1002070BD2071002857
:1022BC00FAD028700120F8E7030078331970012355
:1022CC0079300370704700207047000041644B1E4A
:1022DC009941014B19707047472600200020704728
:1022EC0010B5836B002B01D00800984710BD00007F
:1022FC0000487047FFFF000010B5406803689B69F9
:10230C00984710BD70477047C1677047C06F7047E2
:10231C007047002070477047704702790123022AEA
:10232C0007D04279022A04D08379023B58424341B8
:10233C00DBB2180070470000054BC3580133032B68
:10234C0000D10023C018007943425841C0B27047F5
:10235C002418000070B5040003F063F923685D6E67
:10236C0005F012FA01002000A8472368200004336E
:10237C00DB6F9847236820009B6F9847024BA36143
:10238C0002234834237070BD6C01002010B503F09B
:10239C002DF910BD10B5040003F012F8200003F065
:1023AC0031F900F02FFA10BD10B503F0D8F803F096
:1023BC004BF810BD10B5002905D1094B094A0A4943
:1023CC000A480AF079FBC1630264511E8A4108492C
:1023DC000A70026819008C321268904710BDC04612
:1023EC00FAE5000864EB0008D202000032E60008AF
:1023FC004626002010B5094B1B888B4203D8084B8E
:10240C001B88934205D9074B074A9E2107480AF0BF
:10241C0053FB074B1980074B1A8010BD3C2600203C
:10242C003E26002097E5000821EB000832E6000864
:10243C004226002044260020C12310B55B01C3585E
:10244C00C0180379032B05D0044B054AFF2105481E
:10245C000AF032FB0023037110BDC04607E50008EB
:10246C0080E9000826E50008C12310B55B01C358BC
:10247C000133032B00D10023C2181279022A05D094
:10248C00054B064AEA2106480AF016FB054A9B183A
:10249C00DB00C01810BDC046E6E40008A2E8000846
:1024AC0026E500080103000070B5C12504006D018C
:1024BC00635908000133032B0BD063516159631826
:1024CC001B79022B07D00B4B0B4ADD210B480AF072
:1024DC00F3FA0023F1E70A4B0822C918C900611866
:1024EC000AF05EFB032260592318C0020830201842
:1024FC001A7170BDC9E40008A4E7000826E50008BD
:10250C0001030000F7B51B4E08AC258884590192D5
:10251C000134032C0ED08451845907193A79002ABE
:10252C00FCD13A79002A07D0134B144AAA2114483B
:10253C000AF0C2FA0024EEE70122E4023A710834F0
:10254C00099F04193C608459019AE40004190D4850
:10255C00215280200C49000162520C4A5900A352AE
:10256C00FDF7E8FDA84200DD2800094BE05280B2DF
:10257C00FEBDC04624180000ACE4000871E600085B
:10258C0026E50008081800000A1800000C180000C6
:10259C000E18000010B5074BC358C0180379012B57
:1025AC0005D0054B054AB92105480AF085FA0223E6
:1025BC00037110BD2418000076E500084FEA0008EE
:1025CC0026E5000810B5040003F092FD23682000F6
:1025DC00AC331B68984710BD10B5040002490AF0D3
:1025EC005BFA200010BDC046281800000200030052
:1025FC00002010B57A321278824203D058680368F2
:10260C001B68984710BD0000010010B578313430BC
:10261C000D4B0C7801781A788C420AD0002A07D11D
:10262C000A490B4A08881488108001220C801A7001
:10263C0010BD002AFCD0064A0449148808880C8076
:10264C0010800022F3E7C046402600203E260020E2
:10265C003C260020F8B50400C06F0E0015001F00CA
:10266C0000280ED0036811009B689847002808D1F9
:10267C00E06F320003682900DC683B00A0470120B2
:10268C00F8BD3B002A003100200003F0FCF8F7E70E
:10269C0010B501F02DFA10BD10B501F083FA10BD84
:1026AC0013B504AC2488009401F028FA13BD10B5BE
:1026BC0002F012FF10BD000010B5044B1B686A330A
:1026CC001A7801321A7000F097F810BD48260020D5
:1026DC000D4B0E4A0E491A6000225A500D49C1206A
:1026EC005A500D4940015A500C491A715A500C4914
:1026FC005A715A500B499A715A500121494219503A
:10270C00094819507047C0466C01002088E4000845
:10271C00081800000C180000101800001418000015
:10272C00181800001C180000241800007047002026
:10273C0070477047704700207047704710B5034BC7
:10274C00034A222103480AF0B7F9C046B2EB00084D
:10275C004CEC0008D5EB000810B5034B034A2721BD
:10276C0003480AF0A9F9C046B2EB00088AEC00084D
:10277C00D5EB000810B5040044210AF08DF92000B7
:10278C0010BD000070B5040000252100064B0C3074
:10279C00083325726572606023602031012203F0DA
:1027AC00E7FDE562200070BDFCEB00080023024A47
:1027BC001360024A13607047941900209819002086
:1027CC00034B1A68002AFCD101321A607047C046CC
:1027DC00941900200022014B1A60704794190020B4
:1027EC000122014B1A607047941900200022014B02
:1027FC001A607047941900200122014B1A6070472F
:10280C00981900200022014B1A607047981900207B
:10281C00024B1868431E9841C0B2704798190020AB
:10282C0010B5064B1A68002A06D000221A60044B19
:10283C00186803681B6F984710BDC0469819002094
:10284C00482600207047012070470C2070470C234D
:10285C0059430831401870470C235943083140182C
:10286C00704701207047F82040007047F8235B0048
:10287C005943083140187047F8235B00594308311D
:10288C00401870470120704710207047090108312B
:10289C0040187047090108314018704710B50800FE
:1028AC00FFF742F910BD000010B50400024B0360A5
:1028BC0002F0CCFA200010BD38ED000810B5040071
:1028CC00FFF7F2FF200014210AF0E6F8200010BDFB
:1028DC0010B50400024B036002F0B8FA200010BDE2
:1028EC0004ED000810B50400FFF7F2FFFC212000F6
:1028FC0049000AF0D1F8200010BD000010B504000A
:10290C00024B036002F0A2FA200010BDD0EC0008CC
:10291C0010B50400FFF7F2FF200018210AF0BCF8F4
:10292C00200010BD094B10B50360892304009B00E7
:10293C00C018FFF7B9FF20002C30FFF7C9FF2000AB
:10294C001430FFF7DBFF200010BDC0466CED000813
:10295C0010B50248FFF7E6FF10BDC046A0190020D5
:10296C0010B50400FFF7DEFFE621200089000AF015
:10297C0093F8200010BD0000F7B5FFF761FB0024B1
:10298C000500FFF761FB23000100220028000094E2
:10299C0007F07EFD204B214A20001A60FFF7CAFB8E
:1029AC001F4B204E204AF3672048136007F0D2FCDF
:1029BC0001221F4F3B6813422AD11E4C1E4B1F4D48
:1029CC00A3601F4B1F48E3601F4B606025612360B1
:1029DC0002F03EFA1D4B1848636102F039FA1C4BA9
:1029EC001748E36202F034FA89231A4A9B00E2503A
:1029FC001948FEF78DFE220017492800FEF7BEFE8F
:102A0C002800FFF791F8012314483B600AF072F894
:102A1C00300000F003F9F7BDA42600208825002023
:102A2C00381D0020082500204C010020000000204B
:102A3C009C190020A0190020CC190020DC1B0020C0
:102A4C00C41B0020B41900206CED0008D0EC000869
:102A5C0004ED000838ED0008D81B00205D290008A3
:102A6C007047000010B5FFF7D3FE002806D0044CC9
:102A7C00200003F03DFB200002F0F6FD10BDC04627
:102A8C000825002070B5364E364C374B300023608D
:102A9C00FFF778FE354D3649364B28000B6008F0B1
:102AAC00ADFB354B002219002A310A7019001800B1
:102ABC0048310A7001214930017018004A30027007
:102ACC0018004B3002701800583002702B485E60B2
:102ADC00986618006C30027018006D300270180087
:102AEC006E309D60DC601A615A619A61DA611A621B
:102AFC005A621A85DA621A869A63DA631A645A641D
:102B0C00DA641A655A65DA651A665A660270180034
:102B1C006F3002701800703002701800783002703C
:102B2C0018007930027018007A30017018007B3070
:102B3C0001701348134C0360F0202080124C5A672C
:102B4C002080124C50302080114CDA6720801148C4
:102B5C0002701800104A343001701A6070BDC04603
:102B6C00C4240020C024002080EE00088C25002006
:102B7C00381D002060EE000808250020010000012F
:102B8C00482600203C260020422600203E2600201D
:102B9C00442600204026002080ED0008E023044855
:102BAC00DB05C918884280414042C0B27047C0461C
:102BBC00FFFF7F0003000800054910B55C5CF121A4
:102BCC0089005918002C00D0191D00F095FD10BD7E
:102BDC0084070000080010B511001A00F92B02D868
:102BEC0000F086FD10BD00F087FD00F089FDF9E7CF
:102BFC00F12270B5074C9200035D05008618002B7E
:102C0C0000D0061D00F07CFD01232A5D30005340EE
:102C1C002B5570BD840700007047000010B50400F0
:102C2C0000F05CFF00F074FD00F044FF00F0BEFE0D
:102C3C002000FFF78FFB074B6361FFF7F1FD064B9D
:102C4C00186803681B6F984700F0B2FDFFF7DAFDB8
:102C5C0010BDC0461C2600204826002010B5FFF7EA
:102C6C0058FB10BD10B5FFF756FB10BD10B5FFF7A4
:102C7C009BFB10BD002210B5024B1A80FFF786FBA0
:102C8C0010BDC0463626002010B5FFF783FB034B62
:102C9C001B88002B01D0FFF7AFFD10BD362600209E
:102CAC0010B5FFF7D7FC10BD10B5FFF731FB10BD09
:102CBC0010B5FFF72DFB10BD10B5FFF729FB10BDAC
:102CCC0010B5FFF725FB10BD10B502F041FC10BD8F
:102CDC0010B50400802109F0DFFE200010BD10B5F6
:102CEC00002000F00FF810BD10B5002000F036F8F1
:102CFC0010BD0000014B024A1A6070471C260020D0
:102D0C006CE4000810B503280DD8114BFDF7FEF943
:102D1C00020C131A1A68802153425A418900D2B20C
:102D2C000C4801F0CFFC10BD5A68802153425A4127
:102D3C004900D2B2F4E79A68202153425A41D2B2E8
:102D4C000548EEE7DA68102153425A41D2B2F7E750
:102D5C0024260020000C00500008005010B5032859
:102D6C000DD8114BFDF7D2F9020C131A1A688021F9
:102D7C00531E9A418900D2B20C4801F0A3FC10BD3D
:102D8C005A688021531E9A414900D2B2F4E79A68DE
:102D9C002021531E9A41D2B20548EEE7DA68102181
:102DAC00531E9A41D2B2F7E724260020000C0050A3
:102DBC000008005010B5032808D8FDF7A7F9020841
:102DCC000B0E80218900064801F082FC10BD802189
:102DDC004900F8E720210348F6E71021FBE7C0463D
:102DEC00000C005000080050030010B50020032B0D
:102DFC0009D81800FDF78AF9020C0F1280218900FE
:102E0C00074801F059FC013843425841C0B210BD8B
:102E1C0080214900F4E720210248F2E71021FBE76A
:102E2C00000C00500008005070B500240125E0B2E1
:102E3C00FFF7DAFF002805D0044BA200D158012976
:102E4C0000D0D5500134052CF1D170BD24260020C2
:102E5C00704710B5FFF7A2FE10BD10B5FFF7BAFE14
:102E6C0010BD10B5FFF7A6FE10BD10B5FFF7C0FEE4
:102E7C0010BDF12110B50400C90009F00DFE2000B1
:102E8C0010BD704700207047704710B50400042136
:102E9C0009F002FE200010BD704710B592B0382228
:102EAC00002104A809F085FE10220021684609F0D3
:102EBC0080FE8020800000F0C5FE80235B0007931D
:102ECC00002308930D9308330E9380239B020F93DA
:102EDC0080239B0410938023022440229B0504A88A
:102EEC00049409920B940C94119300F0D5FE0028D5
:102EFC0001D072B6FEE707230290039021006846CA
:102F0C000093019401F036F9002801D072B6FEE767
:102F1C0012B010BDF0B58DB001F0A2FEFFF7BDFFF1
:102F2C001422002107A809F044FE042101260227DF
:102F3C008E4DA0206A6BC0050A436A636B6B00243C
:102F4C000B400293029B6A6B1C310A436A636B6BE6
:102F5C000B400393039B6B6B183933436B636B6BA5
:102F6C0033400493049B6B6B3B436B636B6B3B4039
:102F7C000593059B6A6B0A436A636B6B00220B40DB
:102F8C0006933900069B01F09DFB00223021784806
:102F9C0001F098FB80213200C901764801F092FBC8
:102FAC00C021A02032008900C00501F08BFBC0219C
:102FBC0000228900704801F085FB822307A99B0140
:102FCC006B4807930894099601F0CAFAC423A02011
:102FDC009B0307A9C00508930796099401F0C0FA52
:102FEC00A02007A9C00507970A970896099401F035
:102FFC00B7FA3023BF1907A95D4807930A970896BB
:10300C00099401F0ADFA5D4B07A95A48079308944F
:10301C00099601F0A5FA802307A9DB01554807930F
:10302C000A970896099401F09BFAC023A0209B00F4
:10303C0007A9C00507930A970896099401F090FA1E
:10304C00C02307A99B004C4807930A97089609943C
:10305C0001F086FA22002100052001F031FA05204A
:10306C0001F058FAAB6B22003343AB63AB6B21001E
:10307C00334001930920019B01F022FA092001F051
:10308C0049FA220021000A2001F01AFA0A2001F064
:10309C0041FA3B483B4BE025036080239B00023701
:1030AC008361FA3BFF37ED00FF3B47608460C560EE
:1030BC0004614461C461046244628462C362046357
:1030CC00446301F021FBA04201D072B6FEE72E4B07
:1030DC002E4A9880586198611A6018001E6200F0A0
:1030EC0073FD002801D072B6FEE7294B294A98607F
:1030FC001A60802292009A61FA3A18615861D8617C
:10310C00186258629862FF3A186358631800DD60C1
:10311C005F60DA6201F0F8FA051E01D072B6FEE7C4
:10312C0001000C2207A809F044FD1B4C1B4B20008E
:10313C0023601B4BA56063601A4BA561E36001F033
:10314C000FFD002801D072B6FEE71023099007A9E5
:10315C002000079301F072F9002801D072B6FEE747
:10316C0001F0C2FD01F0C6FDFCE7C04600100240B4
:10317C000008005000040050000C00501310000018
:10318C00A429002000300140D82800200030024043
:10319C0074280020003800405829002000100040FE
:1031AC00050C0000FFFF000072B6FEE77047FEE75B
:1031BC007047704710B501F067FD10BD10B50120C8
:1031CC0001F08EFA10BD10B500F0A0FC10BD10B5CA
:1031DC0000F05EFA10BD000010B5024801F0BAFB19
:1031EC0010BDC0465829002010B5024801F00EFB56
:1031FC0010BDC046A429002010B5024801F006FB02
:10320C0010BDC0467428002007B501200A4B196C6C
:10321C000143196480211A6C490502400092009AFE
:10322C00DA6BBF300A43DA63DB6BC0000B400193EF
:10323C00019B01F04DFD07BD00100240084B0268D8
:10324C0082B09A4209D18020064A4001916B014319
:10325C009163936B03400193019B02B07047C0468E
:10326C00003002400010024070B505008AB01422F4
:10327C00002105A809F09DFC2B685C4A93424CD1B7
:10328C0080205B4B4001196C02240143196401211D
:10329C001A6C002602400092009A5A6BA0200A4336
:1032AC005A635B6BC0050B400193019BA02305A9DE
:1032BC00059306940794089401F052F9A02040233A
:1032CC00C00505A90593069407940896099601F084
:1032DC0047F9484C484B2000236011236360013BA5
:1032EC00A36070332361803363618023DB00E6606D
:1032FC00A361E661266201F005F8B04201D0FFF748
:10330C0053FF002219206C651100A56201F0D8F85A
:10331C00192001F0FFF80AB070BD384A9342FAD177
:10332C008020334BC001D96B02240143D963DA6B83
:10333C000026024004200292029A596B0143596301
:10334C005A6B05A902400392039A5A6B2C482243EC
:10335C005A635B6B069423400493049B0C230593E4
:10336C000B3B07940894099301F0FAF88023254845
:10337C009B0105A90593069407940894099601F0FE
:10338C00EFF8214C214B20002360122363606E3335
:10339C00A660E66023616661A661E661266200F0C4
:1033AC00B1FFB04201D0FFF7FFFE194BAC65A5622F
:1033BC00184C8022236013236360033BA36000231B
:1033CC002000E36022616361A361E361236200F08A
:1033DC0099FF002801D0FFF7E7FE00221A206C6548
:1033EC001100A56201F06CF81A2092E70030014040
:1033FC0000100240642A00200800024000380040FF
:10340C000008005000040050FC2800201C00024062
:10341C0030000240082A002007B50B4B02689A4284
:10342C0010D11020094AD16B0143D163D36B002218
:10343C000340019301301100019B01F041F8112070
:10344C0001F068F807BDC0460010004000100240B3
:10345C00F0B5A0238024DB0564009C620323434C5D
:10346C00060C2370424BF6B21B681E7302269F6833
:10347C003742FCD0060AF6B21E7302269F6837420A
:10348C00FCD0C0B218730220032A04D81000FCF739
:10349C003DFE26160F089E680642FCD0187B0020C5
:1034AC00187302209E680642FCD0187B002018730B
:1034BC0002209E680642FCD0187B00201873022064
:1034CC009E680642FCD0187B00201873022A04D098
:1034DC00032A03D0012A02D1187B187B1B7B0226FE
:1034EC000027131F2348CB185D1A032D17DC022667
:1034FC000027204899422CD31D4B1D688023A868B7
:10350C001842FCD1A0238020DB0540009861042ADE
:10351C0000D904220B00581A904222DBF0BD8568BA
:10352C003542FCD025780D70277085683542FCD06B
:10353C0025784D70277085683542FCD025788D70C4
:10354C00277085683542FCD02578CD702770043102
:10355C00CAE785683542FCD025780D70277001319B
:10356C00C8E7207818700133D5E7C0460C38004006
:10357C007428002000380040F7B501243E4B01921E
:10358C001C70A023FF34DB059C623C4BFD3C1B688C
:10359C001C73013C9D682542FCD0040CE4B21C73E6
:1035AC0002249D682542FCD0040AE4B21C73022458
:1035BC009D682542FCD0C0B2187380209C680442E0
:1035CC00FCD1187B2E4C187B187B187B58682D4E21
:1035DC002040586080205C684001204358600123E3
:1035EC00294C25682868984328601C20256C77682E
:1035FC0005401800A840384370602568019A1F48A0
:10360C006A600C2207680C37AF60E9602F6897433B
:10361C002F6022681C2517689446022217436246C5
:10362C00176027683C681C433C6007687C681C4337
:10363C007C60164C226817689F431760226C776871
:10364C002A4094461A006546AA40174377602468BE
:10365C00019A0225626002680C32A260E160226865
:10366C00134323604023026811680B431360036803
:10367C005A6815435D60F7BD34260020742800207D
:10368C00FF9FFFFF00000240FC280020082A0020BA
:10369C00022370B51C2619001148124A046C1568D7
:1036AC003440A1400D421AD004682168194216D04A
:1036BC000A2125688D432560016C546831408B408C
:1036CC00234353608022084B19688B681340FCD14C
:1036DC00A0228021D20549009161044A137070BD6B
:1036EC00FC28002000000240742800203426002012
:1036FC0010B5FFF7ADFE10BD10B5FFF73DFF10BDC7
:10370C00024A1378002BFCD17047C04634260020A7
:10371C00034B1A68402311680B4313607047C04673
:10372C0074280020A0238022802130B59200DB0574
:10373C009A62074AC901074C916224682073802061
:10374C00A5680542FCD19161802292009A6130BD3E
:10375C0000040050A429002070B5A02380248025EB
:10376C00DB05A4009C62104CED01104BA5621B689C
:10377C00187380209E680642FCD10220A5610C784B
:10378C00013A1C730131D2B29C680442FCD0002A6D
:10379C00F5D1803299681142FCD1A0238022DB053F
:1037AC0092009A6170BDC04600040050A42900200C
:1037BC0010B52920FFF7B6FF642001F077FA10BD91
:1037CC00F7B51C00174B07001B880D001600834231
:1037DC0003D1154B1B8893420ED001A93B0A0B70E9
:1037EC000422330A2A208B704F70CE70FFF7B4FF7F
:1037FC000C4B1F800C4B1E800C4F0D4E3B88AB426C
:10380C0002D13388A3420CD001A92B0A0B700422DD
:10381C00230A2B204D708B70CC70FFF79DFF3D80E1
:10382C003480F7BD080000200A0000200C000020A6
:10383C000E000020F7B501900800110001221D00B8
:10384C0008AB1C88304B314F1A7040233A6816680D
:10385C0033431360631E6A1ECB1882189BB292B25C
:10386C00FFF7AEFFA023802280212C20DB059200E5
:10387C009A62274AC90191623B68187354309F6859
:10388C000742FCD19161F022402112015A601A6862
:10389C00204E8A431A6001221F4B6C431868016842
:1038AC0091430160194801684F6837404F601C27ED
:1038BC001A4E0C31B446766800961E6C37401600D2
:1038CC00BE403700009E3743664677601F687C60B9
:1038DC000424B9600199F9603968A14339600A215F
:1038EC001C682568294321601B6819680A4340211C
:1038FC001A60026813680B43136002230268516854
:10390C000B435360F7BDC046C02A0020A4290020F9
:10391C0000040050FFBFFFFF642A0020000002409B
:10392C0037B5194D2C68636A01939F23019A5B008C
:10393C009A4204D94223019AFF339A4212D9A02108
:10394C00A36A01989BB258434900A030FCF7F2FBE4
:10395C000E4B0F4AC3189BB2934203D8012380B27B
:10396C00A06263610B4A138801339BB2138001225E
:10397C0023689343002223602B685A62FEF79CFE57
:10398C00FFF7ADF937BDC0465829002017FCFFFFE3
:10399C008613000036260020012210B5024B1B684E
:1039AC001A60FFF7A1F910BD58290020402373B508
:1039BC003E4C11202268DC2511680B431360FFF785
:1039CC00B1FE642001F072F91320FFF7ABFE642006
:1039DC0001F06CF9382321680A6808681A4098438A
:1039EC0008602168086803430B60A02380218020B5
:1039FC00DB05890099622E49C001886223681D731A
:103A0C005C3D9E682E42FCD1886101209968014082
:103A1C0049D11973803198680842FCD1A0218025C6
:103A2C00C905AD00187B8D611968C93DFF3DA943DF
:103A3C001960236801AC19680A431A60002814D174
:103A4C0048230122210036302370FFF785FE6420C5
:103A5C0001F02CF9F8235B01B12023800222210014
:103A6C00FFF77AFE642001F021F9052300252100DF
:103A7C0001223A202370FFF76FFE642001F016F943
:103A8C002100012235202570FFF766FE642001F02D
:103A9C000DF92580022221004420FFF75DFE6420F1
:103AAC0001F004F973BD197BB0E7C046A4290020CE
:103ABC000004005010B5A024E405002202212000CF
:103ACC0000F000FE642001F0F1F801220221200038
:103ADC0000F0F8FD642001F0E9F810BD002210B5EB
:103AEC001100092000F0ECFC092000F013FD10BDC2
:103AFC00014B1878C0B27047C02A002013B504AC33
:103B0C0024880094FFF796FE13BD0000022310B525
:103B1C001D4A1068110018421FD01C480068046828
:103B2C001C421AD00A240168A143016051680B435E
:103B3C0053600022164B1A70164B80321B68996822
:103B4C001142FCD1A0228021D20589009161E02292
:103B5C00D2005A60FEF7ABFD10BD0B689B07FBD57E
:103B6C000A4B1B681A681207F6D50E201A68824396
:103B7C001A6001234A68084813434B60B221074B73
:103B8C00074A490008F098FF00000240642A002010
:103B9C00C02A0020A4290020D0EE000893E20008DF
:103BAC00EFEE0008064B821C1B6801205B6A9BB27F
:103BBC009A4203DB034B1888431E98417047C0465A
:103BCC00582900203626002010B5041E01D10120F2
:103BDC0010BD437FDBB2002B02D10377FFF72EFB26
:103BEC00022363772379002B1FD118212368144AF1
:103BFC005A61226893688B43936062792368002A28
:103C0C001BD1013A60211A612268002093688B4312
:103C1C0061690B4380219360226893688B43A1698F
:103C2C000B43936001236377D2E7E268A16820001D
:103C3C0000F0C0FF0028E0D0C9E72269E2E7C046E7
:103C4C00B71DC10410B5104C1049236802000B407D
:103C5C0003432360802300209B009A420CD10C4B21
:103C6C000C49186806235843FCF764FA8022431C5D
:103C7C00D2006069104000D110BD002B01D0013B77
:103C8C00F7E70320F8E7C04600700040FFF9FFFF9C
:103C9C000400002040420F00F0B5040085B000285D
:103CAC0002D1012005B0F0BD0368DB0710D42368F6
:103CBC009B075DD423681B0700D5C3E023685B0713
:103CCC0000D5F5E0E269002A00D07FE10020E9E7A9
:103CDC003822B24DAB681340EA68102B09D1D2439D
:103CEC00930708D12B689B03E1D56368002BDED1C9
:103CFC00D7E7082BF6D0802263685202934203D197
:103D0C002A6813432B600BE0A021C9028B4219D106
:103D1C0080232968DB020B432B602B681A432A6033
:103D2C006368002B16D000F0BBFF80260700B6029C
:103D3C002B683342BBD100F0B3FFC01B6428F7D90A
:103D4C000320AFE72B68964A13402B602B68954AEB
:103D5C001340D7E700F0A4FF80260700B6022B68BB
:103D6C003342A4D000F09CFFC01B6428F7D9E7E7CE
:103D7C0038238A4DAA681340EA68102B29D10321F5
:103D8C000A40022A27D12A68520503D5E268002A84
:103D9C0000D186E7696862698348120201400A43D0
:103DAC006A60002B0DD12B68804A134022691343A3
:103DBC002B602B687E4A9B045B0FDA4013007D4A14
:103DCC0013607D4B186800F023FF002800D171E7C9
:103DDC0067E7002BD7D0E368002B20D02B68734A01
:103DEC00802613402269F60013432B6080232A6837
:103DFC005B0013432B6000F053FF07002B6833422A
:103E0C0007D06A68636968491B020A4013436B60F8
:103E1C0050E700F045FFC01B0228EFD990E72B6854
:103E2C00664A802613402B6000F03AFF0700F6002C
:103E3C002B68334200D13DE700F032FFC01B022853
:103E4C00F6D97DE73821554B9A681D000A40182A8F
:103E5C0008D11B6E9B0700D430E7A369002B00D060
:103E6C002CE71EE7A2690123002A10D02A6E022635
:103E7C0013432B6600F014FF07002B6E334200D067
:103E8C001CE700F00DFFC01B0228F6D958E72A6E7C
:103E9C0002269A432A6600F003FF07002B6E33427A
:103EAC0000D10BE700F0FCFEC01B0228F6D947E757
:103EBC0038213A4B9A681D000A40202A08D1DB6D44
:103ECC009B0700D4FEE6A368002B00D0FAE6E8E6D8
:103EDC0080220021DB6B52050091134208D1EB6B61
:103EEC001343EB63EB6B13400393039B012300938E
:103EFC008027334E7F0033683B4218D0A368012BD8
:103F0C0025D1EA6D1343EB65A368002B37D000F085
:103F1C00C7FE02270600EB6D3B4229D0009B012B0C
:103F2C0000D0CFE6EB6B274A1340EB63CAE633684D
:103F3C003B43336000F0B4FE019033683B42DDD16B
:103F4C0000F0AEFE019BC01A0228F6D9F8E6052B4C
:103F5C0006D1EA6D013B1343EB65EA6D0123D1E712
:103F6C000122EB6D9343EB65EB6D03329343CAE790
:103F7C0000F096FE144B801B9842CCD9E0E600F082
:103F8C008FFE02270600EB6D3B42C7D000F088FE87
:103F9C000D4B801B9842F6D9D2E6C0460010024069
:103FAC00FFFFFEFFFFFFFBFFFF80FFFFFFC7FFFFD1
:103FBC000024F4000400002014000020FFFEFFFF8A
:103FCC0000700040FFFFFFEF881300003820424BC9
:103FDC0099681D000140102950D01B683F490B40C7
:103FEC002B60022A37D100F05BFE80260700B60456
:103FFC002B68334229D1616A236AEA680B4338493A
:10400C000A401343E26A1343226B1343626B13435C
:10401C00A26A802412021343EB6080232A685B049B
:10402C0013432B608023EA685B051343EB6000F0BD
:10403C0037FE0600A4042B68234200D046E600F0AD
:10404C002FFE801B0228F6D97AE600F029FEC01B51
:10405C000228CDD974E600F023FE80240600A404C7
:10406C002868204004D1EB681E4A1340EB6019E627
:10407C0000F016FE801B0228F2D961E6012A00D15D
:10408C000FE6D8680323226A0340934200D008E667
:10409C007023626A0340934200D002E6FE22A36AB8
:1040AC00D20102401B029A4200D0FAE5F823E26AE0
:1040BC009B030340934200D0F3E5E023226B1B05E6
:1040CC000340934200D0ECE5636B400F4007C01AED
:1040DC00431E9841C0B2E5E500100240FFFFFFFE11
:1040EC008C80C111FCFFFEEE382370B51E4A91681E
:1040FC001400194208D1012113681C489B045B0F62
:10410C009940FCF717F870BD91681940082925D023
:10411C0091681940102915D1D368D168DB437F22EF
:10412C00E5684906490F2D0A013115409B0707D157
:10413C000F48FBF7FFFFE1686843490F0131E0E7E7
:10414C000A48F6E791681940202909D092680020A6
:10415C001340182BD7D1FA20C001D4E70448D2E77A
:10416C0080200002CFE7C046001002400024F4007B
:10417C0000127A00F7B505000E00002801D10120CD
:10418C00FEBD07274A4C23683B408B422BD32B6840
:10419C009A073CD42B68DB0748D4072723683B409D
:1041AC00B3420AD92368BB433343236000F078FD44
:1041BC00019023683B40B3426BD12B683D4C5B07AD
:1041CC006FD4FFF791FFA3683B4A1B051B0F9B00A5
:1041DC009B581F221340D840384B1860384B186836
:1041EC0000F016FDCCE72368BB430B43236000F0C3
:1041FC0057FD019023683B40B342C8D000F050FDFE
:10420C00019BC01A2F4B9842F4D90320B8E7294AD6
:10421C005B0704D5E0239168DB010B439360936843
:10422C0029490B40A9680B439360B3E76A68214F97
:10423C00012A19D13B689B03A1D50721BB688B438D
:10424C001343BB6000F02CFD01903823BA681A4070
:10425C006B68DB009A42A0D000F022FD019BC01AD3
:10426C00184B9842F1D9D0E7022A03D13B689B0145
:10427C00E3D484E7002A03D13B685B05DDD47EE7F9
:10428C000223032A03D1396E1942D6D177E7F96D8F
:10429C00FAE700F005FD019BC01A0A4B984288D939
:1042AC00B3E7A368094A1340EA681343A36088E79D
:1042BC00002002400010024090EE00080400002094
:1042CC001400002088130000FFF0FFFFFF8FFFFF9A
:1042DC0010B50400036C094A9B089B189B004364AF
:1042EC0003681421D8B20838FBF724FF044BA364ED
:1042FC001F2318401E3B8340E36410BD0082001056
:10430C008008024070B504000120002C49D02668BA
:10431C00274B1421F018FBF70DFF02238000A51D7D
:10432C002064EB773368234A13403360E068A3685A
:10433C002268034320691168034360690343A06941
:10434C000343E0690343206A03430B4313602000DB
:10435C00FFF7BEFF8023A268DB019A4201D1002344
:10436C0063603F236168626C0B401360A36CE26C6A
:10437C005A606368591E032914D80F4A9B180F4AB8
:10438C009B00626501228A40A265002223651A60A7
:10439C00636DA26D5A6000200123E0630534EB7756
:1043AC00E07770BD002323656365A365F3E7C04622
:1043BC00F8FFFDBF0F80FFFF3F8200104009024055
:1043CC00F8B5841DE37F022B04D00423C363033BA5
:1043DC001800F8BD0E210268164D13688B4313604C
:1043EC00012301680A689A430A60416C0A682A40F2
:1043FC000A601C21076C104A39408B4056683343C5
:10440C005360836CC26C5A60036D002B05D01A6824
:10441C002A401A60436D826D5A600123E3770024B1
:10442C00431DDC77826B1300A242D1D0904723004E
:10443C00CEE7C046FFFEFFFF00000240F7B50500C7
:10444C0002233C352A7804001800012A2BD02600C0
:10445C0001223D362A7033702068134F43688268FE
:10446C000192B84203D1114A13404A681343702297
:10447C0093430A68134343602368BB4209D08020EE
:10448C00C005834205D00A48834202D009488342C2
:10449C0005D18020019A896882430A439A600123DE
:1044AC00002033702870FEBD002C0140FFFF0FFF71
:1044BC000004004000400140704770477047000006
:1044CC0030B5FF2503242A00C3B21C40E400A240EF
:1044DC0089012940D243A14000280ADBC0240B4BA0
:1044EC0080088000C018A40003591A4011430151E0
:1044FC0030BD0F200340083B05489B089B001B1850
:10450C00D86902401143D961F2E7C04600E100E0EE
:10451C0000ED00E0002805DB1F2318401E3B834004
:10452C00014A13607047C04600E100E0094A431E8F
:10453C00012093420DD8C021074A08485360036AF2
:10454C0009061B021B0A0B43036200200723906021
:10455C0013607047FFFFFF0010E000E000ED00E08B
:10456C00F7B50322002394460A681400DC4000D1FE
:10457C00F7BD01279F403A40009200D18EE065467E
:10458C0064465E00B5404A68ED432240013A012A78
:10459C000ED8CA688468B2402C40224382604468BA
:1045AC004A68BC43012712093A409A4022434260B0
:1045BC0064464A682240032A05D08A68C468B2401F
:1045CC002C402243C26064464A682240022A0FD122
:1045DC00DA08920007248218176A01920F221C40F5
:1045EC00A400A24097430A69A2401743019A17629C
:1045FC006446026815404A682240B240C024154304
:10460C0005604A68A402224248D0254A9C086546A7
:10461C00A400A4180F221D40ED00AA40A027266E6E
:10462C00FF0596430022B8420CD01E4F0132B8420F
:10463C0008D01D4F0132B84204D01C4F0332B8428F
:10464C0000D16246AA4032432266154C009A266875
:10465C00009D4F68D2433543FF0201D4350015400D
:10466C0025606668009D4F683543BF0201D4350054
:10467C00154065600E4C009DE66F4F683543BF03D7
:10468C0001D435001540E5670A4C009EE56F4F6874
:10469C002E43FF0301D415402E00E667013363E778
:1046AC00001802400004005000080050000C00509C
:1046BC00081802400418024000690840411E884155
:1046CC00C0B27047002A01D0816170478162FCE75B
:1046DC00426913000B401B049143194381617047DD
:1046EC0070B5084D0400EB68184202D0E860FFF783
:1046FC0017F92B69234203D02C612000FFF74CF9EA
:10470C0070BDC04600180240F8B504000120002C12
:10471C006FD0636A002B24D18222616852009142CF
:10472C0000D0E36100232500A3625D352B78DBB25A
:10473C00002B05D122005C3213702000FEF794FD93
:10474C00022340212B70226813688B43E0211360F5
:10475C00E268C90000238A424ED806D18022520159
:10476C0006E0002323616361DCE780225201A3622F
:10477C00822360685B0003408420A66800023040FE
:10478C00034302202669A769304001260343606970
:10479C002168304003438020800038400343382098
:1047AC00E769384003438020276A38400343802060
:1047BC00A76A8001384003430B601023606A676B63
:1047CC000340082038400343F020E76800013840DC
:1047DC0004270343A0692168000C384003430020E0
:1047EC001A434A6022680749D3690B40D36120669B
:1047FC002E70F8BD1A00BAE7F02109018A42F9D1EE
:10480C001A00B5E7FFF7FFFF70470000F0B503682B
:10481C00040059689A6801259009060085B02E405D
:10482C0009D12A4207D08F092F4204D0E36C200013
:10483C00984705B0F0BD0125970704D5CF092F4245
:10484C0001D0236DF3E7012755092843384202D1E3
:10485C00100A3842EDD08806EBD5002E0FD0200080
:10486C005D300078032856D00420266E3043206635
:10487C0000200090D8680090986800900098012063
:10488C0005420BD0256E284320660020402502905F
:10489C00986802901868A8431860029BD30509D544
:1048AC000823226E134323660023039323689B681B
:1048BC000393039B236E002BBBD0E020226853682C
:1048CC0083435360230001225D33DD381A700142AB
:1048DC0029D02268536883435360A36D002B0AD000
:1048EC00134A9A63A06DFFF76BFD002803D0402399
:1048FC00226E13432366636D002B9AD00C4A9A6385
:10490C00606DFFF75DFD002800D192E74023226E19
:10491C00134323668DE700220192DA6801929B68AB
:10492C000193019B85E72000FFF76EFF81E7C046EE
:10493C004149000810B5806A002302000832D38771
:10494C00C387FFF761FF10BD704770477047704712
:10495C0070470000022270B503680400DD681E6910
:10496C0016420ED015420CD0053A1A61012303777A
:10497C0003689B699B0700D17FE0FFF7E7FF0023EB
:10498C00237704231E4213D01D4211D00522236825
:10499C0052421A6102232377236820009A69C023AC
:1049AC009B001A4200D16EE0FFF7D0FF0023237763
:1049BC0008231E4210D01D420ED0092223685242F9
:1049CC001A610423237723682000DB699B0760D0DE
:1049DC00FFF7BCFF0023237710231E4212D01D4289
:1049EC0010D01122236852421A61082323772368BE
:1049FC002000DA69C0239B001A4250D0FFF7A6FFB3
:104A0C000023237701231E4208D01D4206D0022228
:104A1C00236852421A612000FFF796FF82239B0104
:104A2C001E4207D02B0605D52368204A20001A61A8
:104A3C00FFF743FDF30507D52B0605D523681C4A64
:104A4C0020001A61FFF73AFD40231E4208D01D4298
:104A5C0006D04122236852421A612000FFF778FFEA
:104A6C0020231E4208D01D4206D021222368524228
:104A7C001A612000FFF720FD70BDFFF766FF2000D4
:104A8C00FFF765FF7BE7FFF760FF2000FFF75FFF95
:104A9C008CE7FFF75AFF2000FFF759FF9AE7FFF763
:104AAC0054FF2000FFF753FFAAE7C0467FDFFFFF4C
:104ABC00FFFEFFFF234A10B50368904206D0802406
:104ACC00E405A04202D0204CA0420CD17024A34398
:104ADC004C682343904212D08024E405A0420ED0AF
:104AEC00194CA0420BD0194CA04208D0184CA04233
:104AFC0005D0184CA04202D0174CA04203D1174C41
:104B0C002340CC6823438024A3434C692343036094
:104B1C008B68C3620B688362904208D00C4B98423E
:104B2C0005D00C4B984202D00B4B984201D10B692B
:104B3C000363012242610369134202D00369934368
:104B4C00036110BD002C0140000400400020004017
:104B5C00004001400044014000480140FFFCFFFFC1
:104B6C0070B504000120002C23D025003D352B7896
:104B7C00DBB2002B05D122003C3213702000FEF773
:104B8C004BFC02232B702068211DFFF793FF2200A2
:104B9C00012300204832137047340A3A13705370C3
:104BAC009370D370137153719371D371137223700B
:104BBC002B7070BD30B501252B00294214D01F2459
:104BCC00013C06D30B00E3402B42F9D0082A1AD043
:104BDC0003D8002A0DD0012306E0102A06D0182A8B
:104BEC00F9D10123062C04D9180030BD0123072C60
:104BFC00FAD803685961016818208B6883431A43FB
:104C0C008A600023F0E701230F2CF2D9ECE70000B7
:104C1C0070B5104B05001978002901D1012070BD29
:104C2C00FA208000FBF786FA0B4B01001868FBF7A3
:104C3C0081FAFFF77BFC041EF0D1032DEED80200A5
:104C4C00012029004042FFF73BFC044B20001D6073
:104C5C00E5E7C046100000200400002014000020EE
:104C6C00802310B5074A5B00116800200B431360CA
:104C7C00FFF7CEFF041E03D1FEF7C6FA200010BDCD
:104C8C000124FBE700200240034A044B11681B7807
:104C9C005B1813607047C046C42A00201000002027
:104CAC00014B18687047C046C42A002070B5040038
:104CBC00FFF7F6FF0500631C02D0044B1B78E418C9
:104CCC00FFF7EEFF401BA042FAD370BD100000208E
:104CDC00034A044913680B40184310607047C046E0
:104CEC0000000140FFF9FFFF10B5FDF7B9FEFDF71D
:104CFC0043FE10BD10B5FDF7B5FE10BD0120704789
:104D0C0010B507F0FFFE162303600120404210BDD2
:104D1C0010B507F0F7FE16230360FEE770B50E0022
:104D2C0015000C00A31B9D4201DC280070BD00E0A7
:104D3C0000BF20700134F5E770B50E0015000C00B3
:104D4C00A31B9D4201DC280070BD207800E000BF51
:104D5C000134F5E701204042704780239B0100207D
:104D6C004B607047012070470020704710B50B4B0B
:104D7C000B490200C91A0B4B1868002801D10A48CC
:104D8C001860186882188A4206D907F0BBFE0C23FB
:104D9C0003600120404210BD1A60FCE700080000CF
:104DAC000090002038260020D02A00200D4885468F
:104DBC00FEF772F80C480D490D4A002302E0D45856
:104DCC00C4500433C4188C42F9D30A4A0A4C002349
:104DDC0001E013600432A242FBD307F0A9FEFEF7F8
:104DEC0099F8FEE7009000200000002084000020CD
:104DFC001CF3000884000020CC2A0020FEE78088E9
:104E0C00704770B5036805000C005B6A0021984779
:104E1C002B6806001B6A28009847A41B0100A0B24F
:104E2C00FBF788F980B270BD00238380704710B502
:104E3C000400036881885B6A9847A3880133A380C8
:104E4C0010BD10B503685B6A984710BD7047000031
:104E5C00024B083303600023838070470CEF00087B
:104E6C00836A0020002B07D0002805D1581A424233
:104E7C0050419B69C0B2F5E77047002348618B61D4
:104E8C00836A002B02D18162704713009A69002A51
:104E9C00FBD19961F8E70022836A002B04D0996951
:104EAC0081625A619A61F7E7704700238362704709
:104EBC000023038043808380C380704770B50D004E
:104ECC001600846A002C07D0236820005B6D32002A
:104EDC0029009847A469F5E770BD70B50D00846A88
:104EEC00002C06D02B6821009B6828009847A469E9
:104EFC00F6E770BD704710B504002C2107F0CCFD0F
:104F0C00200010BD836A002B07D08B420AD10021F0
:104F1C009A69596182628A4200D170479961FCE7B3
:104F2C00131EFAD09A698A42FAD18A699A610023CF
:104F3C004B618B61F1E7836A10B5002B04D10368D8
:104F4C0011001B6E984710BD002905D19361826238
:104F5C005061F8E7231EF6D09C699942FAD194610E
:104F6C008A61F5E7F7B50193431DDB7F0F00150050
:104F7C00002B01D0019B1860846A002C23D0A31D48
:104F8C00DB7F002B1DD00423E15E8F4219DB2389CC
:104F9C0089B2CB181BB29F4213DA0623E25E95420C
:104FAC000FDB638992B2D3181BB29D4209DA2368D6
:104FBC00AA1A5B6A791A1E0012B209B2019B200070
:104FCC00B047A469D9E7F7BDF0B51F006B4BA5B08E
:104FDC001B68039249331B782A9A00930023138091
:104FEC002B9A040013803B60039A3B000291FFF75D
:104FFC00B9FF009B032B00DCBAE010AD21002800A8
:10500C0003F0D7FD0022AB5E3E6808930222AB5E34
:10501C000A93002E00D1ADE014AD2800310003F04E
:10502C00C8FD029B089A9A1804216B5ED90FC91807
:10503C0000202B5E4910C918511A039B0A9A494348
:10504C009A180623E85EC30F1B180220285E5B101B
:10505C001B18D31A5B43CB184022494914A804935C
:10506C0007F09EFD03230593009B0C2B04DC581EBC
:10507C000321FBF7E9F805900025009B06936B1CB8
:10508C00059906980B93FBF7DFF801231D406B0184
:10509C0024AAD5181DAAD3180C903C3D0D936B4631
:1050AC001A8E2B1F1B68029953439BB259180793F6
:1050BC000423E05E09B281424DDB23891B181BB22D
:1050CC00994248DA2B685A4393B2039A09939A1877
:1050DC000623E05E12B282423DDB63891B181BB2D1
:1050EC009A4238DA002320000F930FABFFF73AFFF8
:1050FC000F9B0193002B2ED0B3422CD012AE190073
:10510C00300003F056FD089A029B9B180421725E36
:10511C00D10F89180020325E49108918591A0A9A41
:10512C00039B49439A180623F05EC30F1B180220F9
:10513C00305E5B101B18D31A5B43049ACB18934256
:10514C0008D20F9A07993A602A9A049311802B9AE5
:10515C0009991180019E0D9B0835AB429FD1009A95
:10516C00069B9446634406930B9D059B9D4286D1FA
:10517C0025B0F0BD01235B426EE7C04648260020F7
:10518C004CDB0008F0B50023C75E0023CE5E8B8895
:10519C0085B09B199BB200936B4600229B5E0193DA
:1051AC009F4239DA8388DB199BB29C461BB202936F
:1051BC009E4231DA0223CC5E0223C55ECB881B19DA
:1051CC001BB29D4228DAC3885B199BB21AB20392B8
:1051DC00944221DA3A1CB74200DA321C12B22E1C6D
:1051EC00A54200DA261C019C029D36B2AC4201DCC1
:1051FC00009CA4466446A41A84804C88C988039DEC
:10520C00611889B20CB2A54200DB0B009B1BC3805A
:10521C000280468005B0F0BD00230380438083806C
:10522C00C380F7E70421425E03000120002A04DD5D
:10523C000620185E431E1843C00F70470023F0B5BC
:10524C0004008D6A85B0038043808380C380002D69
:10525C0048D0281DFFF7E6FF002811D12000FFF7EA
:10526C00E1FF0423EE5E0622AB5E08216A5E0A278C
:10527C00E95F0191002805D026806380A280E1803F
:10528C00AD69E4E70020215E081CB14200DD301C52
:10529C0000B202900220275E381C9F4200DD181CD1
:1052AC0000B20390A088B618844661440A1C30B240
:1052BC0009B2814200DA321CE18812B2CF1901998D
:1052CC005B181EB2391C3FB2B74200DA191C029BA4
:1052DC002380039B6380029BD21A039BA280C81A73
:1052EC00E080CDE7200005B0F0BDF0B5831DDB7F7D
:1052FC0085B0002B31D0846A002C2ED000228B5E1E
:10530C0001930223CD5E0423CE5E0623CF5EA31D44
:10531C00DB7F002B1ED0019A02AB18001A805D8037
:10532C009E80DF80211DFFF72DFF02A8FFF77AFF7B
:10533C0000280FD102AB1B88A28820009B1A02AA5E
:10534C0013805388E2889B1A02AA538023681100A9
:10535C009B689847A469002CD9D105B0F0BD73B5F2
:10536C00831DDB7F0D001600002B27D0846A002CD8
:10537C0024D0A31DDB7F002B1ED0082229006846F9
:10538C0007F00EFC6846211DFFF7FCFE6846FFF790
:10539C0049FF002810D16B46A2881B8869469B1ACE
:1053AC006A4613805388E28820009B1A6A46538011
:1053BC0023683200DB6D9847A469D8E773BD000001
:1053CC0030B5204B85B01B689C69FDF761F900284E
:1053DC0002D0FDF737FAF8E7236820009B6898475E
:1053EC0000282DD0236820001B69984702AD0100CE
:1053FC000822280007F0D4FB6888EB88C01880B21C
:10540C00FDF74AF9002802D1FDF71CFAF4E72368EE
:10541C002900DB6820009847AB886A882988ED88CA
:10542C000095FDF73DF9236820009B6898470028FC
:10543C00D2D0FDF72DF90028CED0FDF703FAF8E70E
:10544C0005B030BD4826002030B5224B85B01B6816
:10545C009D692B6828005B689847FDF719F90028AF
:10546C0023D12B6828009B68984700281DD02B68F7
:10547C0028001B69984702AC01000822200007F0A5
:10548C008FFB6388E088C01880B2FDF705F92B68A4
:10549C0000280CD02100DB6828009847A38862887C
:1054AC002188E4880094FDF7FBF805B030BD5B69FA
:1054BC00280098470028F8D16088E388C01880B28B
:1054CC00FDF7EAF8002802D1FDF7BCF9F4E72B68E8
:1054DC00E0E7C0464826002030B5174B85B01B6866
:1054EC009D692B6828009B6998472B6828009B684E
:1054FC00984700281DD02B6828001B69984702ACE0
:10550C0001000822200007F04BFB6088E388C018DC
:10551C0080B2FDF7C1F800280BD02B682100DB68A6
:10552C0028009847A38862882188E4880094FDF7B6
:10553C00B7F805B030BDC0464826002013B5036847
:10554C00A8331C680023009301936B46A04713BD3E
:10555C00020001234B326D30137003707047020050
:10556C0001234B326D30137003707047012310B55B
:10557C0042685372406803681B69984710BD10B5A8
:10558C00406803689B68984710BDF0B58FB00093D6
:10559C0014AC248804ABA44615AC24880A9416AC2D
:1055AC0024880B9417AC24780C9418AC24780D94A4
:1055BC0019AC25881AAC26781BAC27784124E41842
:1055CC00E47F036809940D9C089705940C9C07963E
:1055DC0004940B9C069503940A9C029464460194D3
:1055EC00DC6B13000022A0470FB0F0BD044B1A78FF
:1055FC000123002A02D06E30027853401800704705
:10560C004626002010B50400406803689B68984744
:10561C0023006D331B78002B02D001236E342370D2
:10562C0010BD10B50400FDF7C1F8FDF7FDFB606877
:10563C000368DB689847E06803689B6898472368B1
:10564C0020005B6F984710BD10B50400036804334D
:10565C00DB6F984723689B6F20009847FDF7E0F8B5
:10566C0023681B6FF8E70000F0B5036885B0B03312
:10567C001B6804009847002800D1A4E00120FDF726
:10568C0041FB23002500002627006A331A786B356E
:10569C002A701F3BDE7779371E703B78B34205D0FA
:1056AC0023682000C4331B6898473E7023000126F2
:1056BC004A331B786268734053724E4B1E7002F073
:1056CC0063F803685B6B98472B78002B00D12E7026
:1056DC0002F05AF803685B699847E06D03681B6930
:1056EC00984722002B786C32013BDBB22B7012787E
:1056FC00002A01D0002BEBD121003F4A68311378EE
:10570C0001335BB21370097849B2994210DC002363
:10571C00E0681370036803AADB6802A99847236842
:10572C0000285DD0BC331B68039A0299200098476F
:10573C006B46DD1D002360692B7098420AD003680C
:10574C002900DB689847002804D0E06D29780368AD
:10575C00DB68984720001C3007F0F0F8230070330A
:10576C001B78002B2AD0206903681B699847636F4C
:10577C000500002B00D16067636F204AEB1A93423F
:10578C001CD9206903689B699847636F06006421E4
:10579C00E81AFAF7CFFC01003000FAF7CBFC230033
:1057AC0064226933002802DD63281EDD00221A7092
:1057BC00206900210368DB699847656701F0E4FF05
:1057CC0003689B6B984723682000B4331B68984789
:1057DC000120FDF7C3FA0023064A137005B0F0BD93
:1057EC00C0331B6820009847A2E76422101A187077
:1057FC00DEE7C0464C2600204D26002000E1F505D2
:10580C0010B50400FCF7E6FF002263689A7210BD25
:10581C0010B51C30016407F08FF810BDF0B5040012
:10582C000E2587B004A80491059201F089FD049B14
:10583C0003AE27006D443380059B290030002B807C
:10584C0001F0D0FD20006F37338839789C461C302E
:10585C002B88002911D0626E216E009392B289B20E
:10586C00634607F079F8002805D00022B35E236662
:10587C000022AB5E636607B0F0BD624607F0A8F885
:10588C0001233B70F1E710B5002B42D00800012436
:10589C005040204207D0CB188B423AD910780132B5
:1058AC0008700131F8E7224204D01078013B0870EF
:1058BC0001320131012B11D9080003245040204240
:1058CC001FD001201C0084430819884204D9148875
:1058DC0002320C800231F8E70120034003201C0047
:1058EC0084430819884202D910CA10C1FAE7032070
:1058FC000340CB188B420CD910780132087001315F
:10590C00F8E72242EAD01088023B088002320231CA
:10591C00E4E7012010BD10B504006F342378002B90
:10592C0009D0436E026E9BB292B21C30012107F07B
:10593C004FF80023237010BD054B1B681A0058321A
:10594C001278002A02D0D86C002800D198687047D1
:10595C0048260020F0B587B002930CAB14001A88CF
:10596C0000230F00050080690593036805A90191C8
:10597C0000921E682200029B3900B047029B0E4E1B
:10598C0003903380FFF7D8FF0368DB6A9847002841
:10599C0004D001280AD0039807B0F0BD33885C43CB
:1059AC00E4196400059B1C1BEC63F4E733885C432F
:1059BC000323E4195C43F5E742260020F0B591B0CF
:1059CC000B9316AB1B8815000C9317AB1B880400AC
:1059DC000D9318AB1B880A910E9319AB1B780F9380
:1059EC001AAB1E781BAB1F78FFF7A6FF0368DB6AA8
:1059FC0098470D4A089007900997128823680692D9
:105A0C000F9A059604920E9A0A9903920D9A200009
:105A1C0002920C9A01920B9A0092DE6B00222B00E0
:105A2C00B04711B0F0BDC04642260020F0B593B08F
:105A3C000D9318AB1B8815000E9319AB1B880C919A
:105A4C000F931AAB1B88040010931BAB1B7811939C
:105A5C001CAB1F780368DB6B0B93104B1E88FFF796
:105A6C006BFF0368DB6A984702230793013B05939E
:105A7C00119B08900493109B200003930F9B099794
:105A8C0002930E9B069601930D9B002200930C999A
:105A9C002B000B9CA04713B0F0BDC0464226002043
:105AAC00F0B58DB0099312AB1B8807910A9313AB19
:105ABC001B8808920B9314AB1D7815AB1F780368E9
:105ACC0004009B6D06930B4B1E88FFF735FF036894
